:020000040800F2
:1000000000900020BD7100084F7000085970000872
:1000100000000000000000000000000000000000E0
:100020000000000000000000000000005F700008F9
:1000300000000000000000006970000873700008F4
:100040000D7200080D7200080D7200080D72000894
:100050000D7200080D7200080D7200080D72000884
:100060000D720008817000080D7200080D72000802
:100070000D7200080D7200080D7200080D72000864
:100080000D7200080D7200080D7200080D72000854
:100090000D7200080D7200080D72000899700008BA
:1000A0000D720008C9700008E17000080D720008A8
:0C00B000F9700008997100080D7200083A
:1000BC0010B5064C2378002B07D1054B002B02D032
:1000CC00044800E000BF0123237010BD7400002021
:1000DC000000000050F80008044B10B5002B03D0B2
:1000EC000349044800E000BF10BDC04600000000FA
:1000FC007800002050F80008002243088B4274D38B
:10010C0003098B425FD3030A8B4244D3030B8B420C
:10011C0028D3030C8B420DD3FF22090212BA030C15
:10012C008B4202D31212090265D0030B8B4219D3F6
:10013C0000E0090AC30B8B4201D3CB03C01A524116
:10014C00830B8B4201D38B03C01A5241430B8B425E
:10015C0001D34B03C01A5241030B8B4201D30B0347
:10016C00C01A5241C30A8B4201D3CB02C01A52416E
:10017C00830A8B4201D38B02C01A5241430A8B4231
:10018C0001D34B02C01A5241030A8B4201D30B021A
:10019C00C01A5241CDD2C3098B4201D3CB01C01A34
:1001AC00524183098B4201D38B01C01A524143093E
:1001BC008B4201D34B01C01A524103098B4201D32C
:1001CC000B01C01A5241C3088B4201D3CB00C01A99
:1001DC00524183088B4201D38B00C01A5241430811
:1001EC008B4201D34B00C01A5241411A00D2014636
:1001FC00524110467047FFE701B5002000F0F0F8BF
:10020C0002BDC0460029F7D076E7704703460B4382
:10021C007FD4002243088B4274D303098B425FD3F3
:10022C00030A8B4244D3030B8B4228D3030C8B421F
:10023C000DD3FF22090212BA030C8B4202D3121205
:10024C00090265D0030B8B4219D300E0090AC30BDA
:10025C008B4201D3CB03C01A5241830B8B4201D387
:10026C008B03C01A5241430B8B4201D34B03C01A70
:10027C005241030B8B4201D30B03C01A5241C30AE8
:10028C008B4201D3CB02C01A5241830A8B4201D359
:10029C008B02C01A5241430A8B4201D34B02C01A43
:1002AC005241030A8B4201D30B02C01A5241CDD2E8
:1002BC00C3098B4201D3CB01C01A524183098B4233
:1002CC0001D38B01C01A524143098B4201D34B011C
:1002DC00C01A524103098B4201D30B01C01A52417F
:1002EC00C3088B4201D3CB00C01A524183088B4206
:1002FC0001D38B00C01A524143088B4201D34B00EF
:10030C00C01A5241411A00D2014652411046704760
:10031C005DE0CA0F00D04942031000D34042534065
:10032C0000229C4603098B422DD3030A8B4212D325
:10033C00FC22890112BA030A8B420CD38901921157
:10034C008B4208D3890192118B4204D389013AD094
:10035C00921100E08909C3098B4201D3CB01C01A69
:10036C00524183098B4201D38B01C01A524143097C
:10037C008B4201D34B01C01A524103098B4201D36A
:10038C000B01C01A5241C3088B4201D3CB00C01AD7
:10039C00524183088B4201D38B00C01A5241D9D2EF
:1003AC0043088B4201D34B00C01A5241411A00D270
:1003BC000146634652415B10104601D34042002B6C
:1003CC0000D54942704763465B1000D3404201B5EB
:1003DC00002000F005F802BD0029F8D016E77047A0
:1003EC007047C0468446100062468C46190063462E
:1003FC0000E0C0461FB500F00DFF002801D400211D
:10040C00C8421FBD10B500F05DFE4042013010BD6A
:10041C0010B500F0FFFE002801DB002010BD01200C
:10042C0010BDC04610B500F0F5FE002801DD00201F
:10043C0010BD012010BDC04610B500F085FE00288F
:10044C0001DC002010BD012010BDC04610B500F02D
:10045C007BFE002801DA002010BD012010BDC04633
:10046C00F0B54F464646D6460D000400C0B51F00F9
:10047C0011002803620F400A10437A00520DE3006A
:10048C003C039146640AFA0F4F0F6E0027439246C5
:10049C00B846760DED0FC900954200D199E04C4657
:1004AC00341BA446002C00DC7CE04A46002A00D118
:1004BC00B8E0C54A964200D11CE180223C001204EF
:1004CC001443A0466246382A00DD61E11F2A00DD94
:1004DC00CCE164462022121B444694400F00A146F6
:1004EC0064469140E7404C464A1E91413C4342468B
:1004FC0021436446E240801A5C1AA3429B415F424E
:10050C00C71B3B0200D4D0E07F027F0A002F00D132
:10051C00FFE0380001F06CFD0100083920232200B7
:10052C005B1A8F40DA408C401743B14200DAFFE08F
:10053C00891B4B1C1F2B00DDA8E020223900D21A8E
:10054C00200094409140D840621E9441DF40002628
:10055C0001430C43630709D00F232340042B05D020
:10056C00231DA342A44164423F191C003B0200D44A
:10057C009EE0954B01369E4200D1B7E0934AE408C9
:10058C0017407B0771057F0223433F0B4A0D120571
:10059C003A43ED072A4318001100E0BCBA46B146B5
:1005AC00A846F0BD002C4BD04C46A41BA446002EF4
:1005BC0000D023E104001C4300D1AFE16246541E7D
:1005CC00012A00D115E2804DAC4500D1C8E1A4460A
:1005DC001BE14A46B21A9446002A00DCACE04A46BB
:1005EC00002A43D0784A964200D1AFE180223C00E9
:1005FC0012041443A0466246382A67DC1F2A00DC2A
:10060C005FE14746203AD7406246202A05D064462F
:10061C004022121B4446944021434A1E91410C0037
:10062C003C4357E03A000A4300D105E12200013A6D
:10063C00012C00D182E1644CA4455BD0944641E787
:10064C00634C771C274200D0C4E004001C43002EEE
:10065C0000D069E1002C00D1BFE144460C4300D02E
:10066C00D0E14207DB081343C00829E03A000A43F3
:10067C0000D170E162466446013A012C00D1E0E001
:10068C00514CA44500D161E19446B4E73A001F39BE
:10069C00CA401100202B03D04022D31A9F403C4368
:1006AC00631E9C41002700260C43630700D053E7D0
:1006BC00B446E4087B072343F808434A94451DD00D
:1006CC006246070352053F0B520D60E744460C434C
:1006DC00621E9441E4189C429B415F423F183B02CE
:1006EC00E3D5394B01369E4200D0B5E032000027ED
:1006FC0000234CE74207DB081343C0081A000243EF
:10070C0000D1E1E180273F0307433F032E4A3F0B13
:10071C003DE7200001F06CFC010018311F2900DCC2
:10072C00FCE60838844027000024B14200DBFFE6D9
:10073C00264A761A17400DE7002A2FD04A46921BFC
:10074C009446002E00D1ADE01F4A914500D10FE137
:10075C008022120410436246382A00DD0FE11F2A62
:10076C0000DD80E1644620221E00121B6746040057
:10077C0093409440FE405A1E9341F84034431C432E
:10078C00804464188C42BF417F424E464744A6E7E2
:10079C0042460A4311004A1E9141ADE60C4C721CB4
:1007AC00224200D0A1E002001A43002E00D0FAE051
:1007BC00002A00D145E13A000A4300D046E1420745
:1007CC00DB081343C0087BE7FF070000FFFF7FFF38
:1007DC00FE07000047465C1AC21BA342BF417F4282
:1007EC00B94617004A46BF1A3A0200D58DE02300DD
:1007FC003B4300D08AE60020002561E7B44CA145BC
:10080C0000D1ADE08024240420436446382C3DDC28
:10081C0062461F2C00DDB7E020251E002D1B0400B6
:10082C00AB40AC40D640D04042465D1EAB41344359
:10083C00121A904623432CE04207DB081343C008EE
:10084C003BE75C189C429B4140445B42C718012625
:10085C003B0200D429E702269E4A63081740012276
:10086C0014401C43FB071C437F0873E64446203AA4
:10087C00D4406246202A05D067464022D21B474608
:10088C00974039434A1E9141214335E60343581E94
:10089C008341CC1AA142BF4143467F4255464E4646
:1008AC00DF1B2EE602001A4300D1BDE0624664460F
:1008BC00013A012C00D1E5E0854CA44558D0944672
:1008CC0049E764462022121B444694400F00A1467F
:1008DC0064469140E7404C464A1E91413C43424697
:1008EC000C436146CA408018F4E6794CA24200D110
:1008FC00FDE6591899429B4140445F42C719FC07D9
:10090C00490816000C437F08CFE6CC1AA142BF4120
:10091C0043467F42181A5546C71BF7E5C9087B07A3
:10092C0055460B43F808C8E6002C00D081E043463E
:10093C000B4315D1802000250003E3E65C1AA3428B
:10094C009B41C71B5B420126FF1ADAE54207DB0815
:10095C001343C008D2E64207DB081343C008ACE6D9
:10096C0043464246C9085B0755460B43D008C5E6CB
:10097C00434642465B07C9080B43D008BEE6034317
:10098C001C00631E9C41FCE60200203CE24014006B
:10099C006246202A03D04025AD1AA8400343581EB6
:1009AC008341234375E7002AE2D03A000A43CDD0B5
:1009BC004207DB0813438022C0081203104206D002
:1009CC00FC08144203D12000CB087A0713435A0FBA
:1009DC00DB005207DB08134390E643460B4300D180
:1009EC0009E743464246C9085B0755460B43D00806
:1009FC0066E6CC1AA14289413F1A49425546012666
:100A0C007F1A7EE542465C1A871AA34292415242F3
:100A1C00BF1A3A023DD5CC1AA142894143464942FC
:100A2C001F1A55467F1A95E57B07C9080B43F80832
:100A3C0043E64446DB080C4330D142071343C0085D
:100A4C005CE67B07C9080B43F80839E65C189C4246
:100A5C009B4140445B42C7183B0200D425E61D4B2A
:100A6C0001261F4021E60400203AD4406246202A89
:100A7C0004D040226646921B904003435A1E934179
:100A8C001C437EE65C188C4289414044494247181D
:100A9C00DDE623003B4300D1ADE606E644072343E5
:100AAC008024C0082403204208D04246D60826429F
:100ABC0004D155463000CB0851070B435A0FDB00CD
:100ACC00DB085207134319E60023014A1F005EE5B9
:100ADC00FF070000FFFF7FFFF0B557464E46454627
:100AEC00DE46E0B5814605000C03480092461F0027
:100AFC0085B0240B400DCE0F002800D156E1D44B0D
:100B0C00984200D172E16B0FE4001C4380231B045C
:100B1C0023439846CF4BED009B46002399468344D4
:100B2C0000933C037B005046240B5B0DFF0F002B06
:100B3C0000D11FE1C64A934200D162E1C549420F80
:100B4C008C46E40059461443802263441204CB1AA9
:100B5C0014439B46C200002033007B409A464B4610
:100B6C000F2B27D8BC499B00CB589F46B246009B05
:100B7C00022B16D0032B00D18EE2012B00D0D9E032
:100B8C0000230024002552461B052343D2071343A0
:100B9C002800190005B0F0BCBB46B246A946A046D9
:100BAC00F0BD00240025AA4BEDE7BA46A04615007F
:100BBC000090DCE7444500D2C7E100D1C2E101233B
:100BCC005B429C462E0040460025E3442302140E53
:100BDC001C431B0C994623041F0C1202494600921D
:100BEC000197FFF70FFB02007A430B04310C804690
:100BFC0019438A4207D901235B429C460919E044F8
:100C0C008C4200D807E2881A4946FFF7FBFA090420
:100C1C008C4631046646019A090C42430300314369
:100C2C008A4204D90919013B8C4200D8EDE1881A9B
:100C3C00424612041A4390464146009B0E041B0C7C
:100C4C001F000293009B360C1B04190C0B00734302
:100C5C00120C7E43039151437A431F0CBC46761809
:100C6C006644B14203D9802149028C466244310C5E
:100C7C008A1831041E04360C8E19904202D312D1FC
:100C8C00B54210D24346591E009B9C4665441F003A
:100C9C009D429B415B421B19C018844200D2A0E1CB
:100CAC0000D19BE18846AE1BB542AD41801A6D4226
:100CBC00401B844200D1D5E14946FFF7A3FA019AC3
:100CCC000B044243310C050019438A4200D96CE1F4
:100CDC00881A4946FFF796FA019A360442430904EA
:100CEC00360C03000E43B24200D953E10398B61AF6
:100CFC0002002D041D43029F2B041B0C5A437B4303
:100D0C009C46290C4843130C844463447943984211
:100D1C0003D98020400284466144180C12041B0441
:100D2C00120C41189B188E4200D2FFE000D1FAE061
:100D3C0001231D43494A5A44002A00DCAAE06B07F0
:100D4C0000D03DE1ED084346DB0106D54246444B5D
:100D5C001A4090468022D2005A44424B9A4200DDFF
:100D6C001FE743465B071D43434652055C02240BB9
:100D7C00530D08E75246224300D17BE0002C00D1F2
:100D8C00FAE0200001F034F902000B3A1D230100B7
:100D9C009B1A52460839DA408C40144352468A401A
:100DAC00314B58449B4683440020D5E64B462343A5
:100DBC00984644D0002C00D1CEE0200001F018F968
:100DCC00010002000B391D235B1A49461000D94063
:100DDC00083884400B004D462343984685402348F1
:100DEC00831A9B460023994600939AE64B4623436D
:100DFC0098461DD108239946063B0025834600934F
:100E0C008FE65246224309D1022349461943184B17
:100E1C0089469C4600240220E3449DE603234A466F
:100E2C001A43134B91469C4652460320E34493E6E7
:100E3C000C239946093BA0468346009371E6042394
:100E4C00994600239B4601330025009369E6C04672
:100E5C00FF07000001FCFFFF6CF80008FF03000017
:100E6C00FFFFFFFEFE070000F30300000DFCFFFF79
:100E7C0001F8FFFF4946012319438946002401204C
:100E8C006AE6002380249A4600258A4B24037AE6DE
:100E9C0001256D4201239B1A382B00DD70E61F2BB8
:100EAC0000DCBFE01F2149428A1A4146D1400A00AA
:100EBC00202B04D04146804B5B4499400D436B1E64
:100ECC009D4107232A431D0000241540134200D1E5
:100EDC00D4E00F2100231140042900D1CBE0111DD7
:100EEC009142924152429B180A00190200D4C2E06E
:100EFC0001230024002546E6802341461B031942AA
:100F0C0008D01C4206D11C432403BA461500694B79
:100F1C00240B38E68024434624031C432403B246A6
:100F2C00644B240B2FE6002B00D103E7A619681E97
:100F3C00A64200D28DE08E4200D2A3E000D1B3E0F5
:100F4C000500F5E6AA4200D939E64346DE07580803
:100F5C006B081E43ED0739E6484601F049F80100DD
:100F6C000200153120321C2900DC2CE74B460838D6
:100F7C0083400025984632E701F03AF803001A0046
:100F8C00153220301C2A00DC00E75446083B0022B6
:100F9C009C4005E73619013BB44200D9A6E6B242A3
:100FAC0000D8A3E6831E3619A0E60919013D8C4230
:100FBC0000D98DE68A4200D88AE6851E091987E693
:100FCC000F232B40042B00D1BCE605235B42AB4224
:100FDC009B4104355B42ED089844B4E6AF4200D91E
:100FEC0060E6824204D800D05CE6AE4200D859E6F6
:100FFC0002235B429C46009BE0449C4665449D4218
:10100C009B415B421B19C0184DE68A4200D80EE684
:10101C00831E09190BE68A4200D8F4E5831E984614
:10102C000919F0E52549280059448D4042468A406B
:10103C00691E8D414146D840D94002432A430B00DA
:10104C00510700D151E70F211140042900D046E788
:10105C004BE705008E4200D06AE6009A934200D01E
:10106C0066E667E6164A5A44002A00DC10E70123BC
:10107C000025984467E65D075B021C0BD208002331
:10108C00154380E50098023D42008242BF417F42F9
:10109C003C1936190092DDE78024434624031C4397
:1010AC002403044B240B6EE5009A9A42EAD3050004
:1010BC00D3E7C046FF0700003E0400001E040000FA
:1010CC00FF030000F0B54E464546DE4657469046B7
:1010DC00E0B517001A03120B0500844619480E03DD
:1010EC004C0091465A00DB0F9B46360B640DC90F22
:1010FC00520D844219D0824210D0012094420ED15C
:10110C004E450CD10120C44509D1594517D0002CAE
:10111C0005D130002843431E984100E00120F0BC6B
:10112C00BB46B246A946A046F0BD330001202B4376
:10113C00F5D1A242F3D14B463B43F0D1E2E700207C
:10114C00EDE7C046FF070000F0B54746CE46040069
:10115C00180016001B031B0B2D4D4A00994680B539
:10116C0043000F03A446B0463F0B520DC90F5B0D55
:10117C00C00FAA4221D0AB4213D0002A22D13C434B
:10118C00002B02D14D462E4322D0002C10D0814290
:10119C0022D00220013908400138C0BCB946B04603
:1011AC00F0BD4D462E4329D1002AF0D13C43EED15F
:1011BC000028F2D101204042EFE73D0025431DD12C
:1011CC009342EED0002BE2D14C462643DFD1E0E730
:1011DC000020002CE1D0DCE79A420ADCE8DB4F452A
:1011EC00D7D80ED000204F45D7D20029E2D0080026
:1011FC00D3E74342584140000138CEE70220404239
:10120C00CBE7C445C5D80020C445C6D2EDE7C046DF
:10121C00FF070000F0B54746CE4604001800160044
:10122C001B031B0B2C4D4A00994680B543000F0342
:10123C00A446B0463F0B520DC90F5B0DC00FAA421E
:10124C000DD0AB4210D0002A27D13C43002B11D13A
:10125C004D462E430ED10020002C15D00EE03D0043
:10126C00254310D1934218D14D462E430BD1002A61
:10127C0002D13C43002C0BD0814214D00220013906
:10128C000840013800E00220C0BCB946B046F0BDB1
:10129C000028F9D101204042F6E7002BECD14C4656
:1012AC002643E9D1EAE79A4204DD43425841400023
:1012BC000138E9E79A42EBDB4F45DFD806D0002036
:1012CC004F45E1D20029E5D00800DDE7C445D5D86B
:1012DC000020C445D8D2F5E7FF070000F0B557460B
:1012EC004E464546DE46E0B598460C034B000600DC
:1012FC00924687B0240B5B0DCF0F002B00D15CE125
:10130C00D94A934200D175E1420FE4001443802284
:10131C0012041443D54AC500944663440093002339
:10132C0099469B46434642461E03D20F5B005046ED
:10133C009046360B5B0D00D120E1CB4A934200D195
:10134C0062E1CA49420F8C4600996344F6008C4610
:10135C00164380229C44120463461643C2000020AC
:10136C0000930099434601318C4649467B400193DA
:10137C000F2926D8BE4B890059588F4643460193F6
:10138C003400150083465B46022B16D0032B00D18C
:10139C0003E2012B00D0CDE0002200240025019BAC
:1013AC0012052243DB071A432800110007B0F0BCDA
:1013BC00BB46B246A946A046F0BD00240025AA4A69
:1013CC00EDE7280C2D042D0C2B00110C1204120C23
:1013DC005343984613002F00434399464F434F44C1
:1013EC00BB4647460B003F0CBA464343DA440293D4
:1013FC00D14504D980277F02B9464B44029353460A
:10140C001B0C9B4653461F0443461B041B0C98465F
:10141C003B0043440493330C3604360C984633009B
:10142C0043439946434643432F009A4643467743EA
:10143C005D43380C4D444519A94503D980235B0203
:10144C009946CA443F04280C3F0C2D04ED19270C77
:10145C002404240C0300200050437A4391463A00A4
:10146C0053440593030C9A464A43614349445144FF
:10147C00AB44894503D980235B0299464A44000456
:10148C000B0C000C090409182000994643467043C4
:10149C005C437E435F43030C9846A41944444A447E
:1014AC000397A64204D980235B02984647440397CE
:1014BC002304029E9A46059B5E449846AE42AD417B
:1014CC0076188E4289410004000C504440446D4211
:1014DC004719B846934649428946C344D944984271
:1014EC008041A845AD4193459241894589416D4262
:1014FC0040422843240C524249420A43039B0019A0
:10150C008018C7184B46DC0D049B75021D436A1EE0
:10151C0095414B46F60D7F0235435A023C43154329
:10152C00FB0100D41CE101216A080D401543E207C0
:10153C00154364084F496144002900DCB0E06B0797
:10154C0009D00F222A40042A05D02A1DAA42AD41F7
:10155C006D4264191500E30104D58021464AC90087
:10156C0014406144454A914200DD26E76207ED08CC
:10157C00640249051543240B4A0D10E752463243C9
:10158C0000D17FE0002E00D1DCE0300000F030FD17
:10159C0002000B3A1D2301009B1A52460839DA400F
:1015AC008E40164352468A40009B3549181A030058
:1015BC008C46634400200093D3E6250005434AD0B3
:1015CC00002C00D1B0E0200000F012FD0100020060
:1015DC000B391D2310005B1A31003500083884408C
:1015EC00D94085400C432648831A00930023994622
:1015FC009B4697E60500254326D10822009302233B
:10160C00002491469B468DE65246009B324310D1F6
:10161C00154900268C46634449460093022319431E
:10162C00894602209DE65B460197022B00D0ADE671
:10163C00C3E60D4A0320944663444A4600930323B1
:10164C001A43914652468CE60C2200930323050064
:10165C0091469B4666E6042399460023009301338A
:10166C0000249B465EE6C046FF07000001FCFFFF1E
:10167C00ACF80008FF030000FFFFFFFEFE070000B0
:10168C000DFCFFFF49460123194389460026012022
:10169C0067E6002380240025434A019324037EE659
:1016AC000120401A382800DD76E61F285BDD1F225A
:1016BC0023005242511ACB401900202803D03B4A38
:1016CC006244944025436A1E95412A000A4307212F
:1016DC000D000024154011425BD00F210024114055
:1016EC00042953D0111D914292415242A4180A0070
:1016FC0023024BD501220024002550E680231B0336
:10170C001C4209D01E4207D133431C03434615002B
:10171C00240B254A019342E680221203144324032E
:10172C00214A240B01973AE600F062FC010002000A
:10173C00153120321C2900DC4BE734000838002519
:10174C00844050E700F054FC03001A00153220309E
:10175C001C2A00DC1EE75646083B00229E4023E76D
:10176C00009B9C46E6E61249220061442E008D4007
:10177C008A40C640691E8D4132432A43C4405307F8
:10178C00B6D00F2111400429ACD1B1E76507640232
:10179C00240BD2081543002201E6802212031443C5
:1017AC002403014A240BFAE5FF0700003E04000065
:1017BC001E040000F8B557464E464546DE46E0B5D9
:1017CC001E0017004A000B03520D5B0A9046420F95
:1017DC001A43CD0FCD4C3103C300944670007A0FE1
:1017EC00490AFF009A46B946400DF60F1143A04234
:1017FC0000D1B1E001225640B346B54200D188E099
:10180C004246121A002A00DCAEE0002800D1C1E0EA
:10181C00BE48804500D151E1802000040143382AA4
:10182C0000DD7BE11F2A00DDEEE120203E00801A66
:10183C000C00D640D140874062468440521A781E34
:10184C008741944634432743DC1BA3429B416246A9
:10185C005B42D31A99464B461B0200D418E14B4607
:10186C005802430A99464B46002B00D137E14846B3
:10187C0000F0BEFB010008392023220048465B1A09
:10188C00DA4088408C4043461043884500DD36E101
:10189C00C91A4B1C1F2B00DDEAE020222600D21AAD
:1018AC0001009440DE40D84000239140621E9441D8
:1018BC008146984631430C43630709D00F232340DC
:1018CC00042B05D0231DA342A4416442A1441C0057
:1018DC004B461B0200D4DEE041468C4B0131994251
:1018EC0000D1E7E04B468A48E4080340180049055C
:1018FC005B07400223434A0D040B1205ED072243FC
:10190C002A4318001100F0BCBB46B246A946A046BB
:10191C00F8BD4246121A002A52DD002800D19CE084
:10192C00A04500D1CAE0802000040143382A00DD24
:10193C0049E11F2A00DC97E110000E002038C64058
:10194C00202A04D04020821A91400F43B9464C46BD
:10195C00621E944134433AE10A003A4328D0B3461C
:10196C00B5422BD06B4A4244002A5DD042464446D5
:10197C00821A002C00D0F5E065461D4300D19CE195
:10198C00551E012A00D1FBE1604CA24200D1BDE101
:10199C002A00F0E00800384300D1C3E0501E012AB1
:1019AC0000D1A8E1594CA24200D187E0020036E7F1
:1019BC0001225640B346B54200D021E7554A424475
:1019CC00002A00D1B5E042464446821A002C00D1D0
:1019DC0038E14E4EB04200D1DEE18026644636043A
:1019EC003443A446382A00DD96E11F2A00DD24E2A8
:1019FC002026B41AA24664465646B440A1461C00A2
:101A0C004E46D440264334005646B3405E1EB34186
:101A1C001C436346D340C918E419BC42BF417F4202
:101A2C00B94680468944D8E040463B4C01302042C0
:101A3C0000D0B4E04046002800D044E16046184392
:101A4C0000D190E10800384300D0AAE16146DB08E0
:101A5C0049070B436146CC0827E00800384361D0A6
:101A6C00501E012A00D139E1A24227D002005DE7C5
:101A7C0002001F39CA401100202B03D04022D31A78
:101A8C0098400443631E9C410023994698460C439E
:101A9C00630700D012E74B464A46E4085B07234332
:101AAC00D408424619498A420ED024035205240B0D
:101ABC00520D22E70A00002400231EE7DB086246D1
:101ACC00520713436246D4081A00224300D1FCE1AA
:101ADC0080221203144324030C4A240B0DE720002C
:101AEC0000F086FA010018311F2900DCC4E6083822
:101AFC008440434620000024884500DCC8E6044AA4
:101B0C005B1A104098468146D6E6C046FF07000097
:101B1C00FFFF7FFF01F8FFFFFE0700000F437A1E57
:101B2C00974191E66146DB0849070B436146CC08B7
:101B3C00B8E74046D34C0130204200D0A2E04046EA
:101B4C00002800D001E16046184300D15EE1080096
:101B5C00384300D05FE16146DB0849070B4361461F
:101B6C00CC08A2E7C84DA84200D1CFE0802564463E
:101B7C002D042C43A446382A56DC1F2A00DDD1E064
:101B8C0020251E00AD1A6446AB40AC40D6405D1E0D
:101B9C00AB41344323436446D440091B49E06046BF
:101BAC00DC1B461AA34280414042814630004E461F
:101BBC00801B8146000276D44B46234300D052E66C
:101BCC000024002571E739430C00621E9441E4188F
:101BDC009C429B415B42634499464B461B0200D49A
:101BEC0056E701239C46A84BE044984538D04B4619
:101BFC00A648012203401800630814401C43C30785
:101C0C001C434308994657E610000E002038C64086
:101C1C00202A04D04020821A91400F43B9464F46E7
:101C2C007A1E974137430FE662461A4313005A1E39
:101C3C009341FC1AA742BF417F42CB1B99465D469C
:101C4C00804608E666461E4300D1BEE0561E012AB9
:101C5C0000D109E18C4CA24200D119E13200C1E65D
:101C6C0042460024002348E620200C00801A3E0047
:101C7C0087408440D640781E8741D14034433C4352
:101C8C008C44A4E7804A904200D1E9E0DF199F42DE
:101C9C009B4161445B42C918CC077F084B089946AD
:101CAC0080463C43F4E6FC1AA742BF4163467F42A0
:101CBC00C91ACB1B99465D46D5E5FF084B075D4617
:101CCC003B43CC08EEE662461A4300D082E00B00A0
:101CDC003B431BD1802400252403F9E6DC199C42EC
:101CEC009B41614489465B4299444B461B0244D458
:101CFC0001239846CCE6DC1B6246A3429B41511A59
:101D0C005B42CB1A994601239846A4E5FF084B0782
:101D1C005D463B43CC08D7E662461A431400631E6B
:101D2C009C4179E615006446203DEC40A046202AF3
:101D3C0005D040256446AA1A944023439A4654463B
:101D4C00631E9C414346234373E762461A4323D0E8
:101D5C000A003A4300D0A0E06246DB085207134366
:101D6C006246D408B0E60B003B4300D128E7FF08DD
:101D7C004B075D463B43CC0897E60223984636E773
:101D8C00FC1AA742BF4163467F42C91ACB1B994636
:101D9C0001235D4698465EE54B07FF083B43CC08A4
:101DAC0092E6DC1B6046A342B641401A7642801B89
:101DBC008146000260D5FC1AA742BF4163467F42B0
:101DCC00C91ACB1B99465D4676E5FF084B073B438A
:101DDC00CC0867E60A00DB083A4300D16FE662469E
:101DEC00520713436246D40880221203144207D0D0
:101DFC00C808104204D15D460400FB0849070B4398
:101E0C005A0FDB00DB08520713435DE64B07FF0854
:101E1C003B43CC0849E6DC199C429B416144894612
:101E2C005B4299444B461B0200D431E64A46174BA1
:101E3C001A400123914698462AE616006446203E35
:101E4C00F440A046202A05D040266446B21A94409D
:101E5C0023439A465446631E9C4143461C43DBE590
:101E6C0002000024002348E5DC19BC42BF41614458
:101E7C0089467F42B94438E74B46234300D19FE65D
:101E8C0006E6C046FE070000FF070000FFFF7FFFCD
:101E9C00FF084B073B43CC0816E66246DB085207AB
:101EAC0013436246D40880221203144207D0C80898
:101EBC00104204D15D460400FB0849070B435A0F3E
:101ECC00DB005207DB081343FEE50023014A1C002C
:101EDC0013E5C046FF0700000A0030B5134C530051
:101EEC0009030500090B00205B0DD20FA34204DD92
:101EFC000F48834202DD0F4BD01830BD80204003C9
:101F0C0001430D48C01A1F2808DD0C48C31AD940DC
:101F1C000B005842002AF0D11800EEE7084CC540DF
:101F2C00A446634499400B002B43F2E7FE030000E8
:101F3C001D040000FFFFFF7F3304000013040000AA
:101F4C00EDFBFFFF70B5002816D0C317C5185D4018
:101F5C00C40F280000F04CF8114A121A0A2816DC9B
:101F6C0003002E0015339E400B23181AC540520552
:101F7C002D032D0B530D03E0002400230025002618
:101F8C001B052B43E40723433000190070BD0B38AD
:101F9C00854052052D0300262D0B530DF0E7C0464E
:101FAC001E04000010B5041E10D000F021F80F4BD9
:101FBC001B1A0A2811DC0B222100121AD1401530F1
:101FCC000A035B058440120B5B0D01E00023002229
:101FDC001B0513432000190010BD22000B38824052
:101FEC005B0512030024120B5B0DF1E71E040000CD
:101FFC001C2101231B04984201D3000C10391B0A2D
:10200C00984201D3000A08391B09984201D30009F0
:10201C00043902A2105C40187047C0460403020247
:10202C0001010101000000000000000080B582B039
:10203C0000AF0200FB1D1A70FB1D1B787F2B09D80B
:10204C00FB1D1B781A001F231A40044B01219140E1
:10205C000A001A60C046BD4602B080BD00E100E037
:10206C0090B583B000AF02003960FB1D1A70FB1DE8
:10207C001B787F2B28D82F4AFB1D1B785BB29B0843
:10208C00C0339B009B58FA1D1278110003220A40A2
:10209C00D200FF2191400A00D2431A4011003B6844
:1020AC009B01FF221A40FB1D1B78180003230340E1
:1020BC00DB009A401F48FB1D1B785BB29B080A4350
:1020CC00C0339B001A5031E01B4AFB1D1B781900D2
:1020DC000F230B40083B9B0806339B00D31804339B
:1020EC001B68FA1D1278110003220A40D200FF214E
:1020FC0091400A00D2431A4011003B689B01FF2219
:10210C001A40FB1D1B78180003230340DB009A4088
:10211C000948FB1D1B781C000F232340083B9B0820
:10212C000A4306339B00C31804331A60C046BD46ED
:10213C0003B090BD00E100E000ED00E080B582B09E
:10214C0000AF78607B681B6801221A437B681A60B9
:10215C00C046BD4602B080BD80B582B000AF78608D
:10216C007B681B68034A1A407B681A60C046BD46F0
:10217C0002B080BDFFFFFFDF80B586B000AF786096
:10218C003960EFF31083BB60BB687B610123FB609C
:10219C00FB6883F31088C0467B689B68DB00DA0819
:1021AC003B685B071A437B689A607B693B613B69C0
:1021BC0083F31088C046C046BD4606B080BD000003
:1021CC0080B586B000AF78603960EFF31083BB60E8
:1021DC00BB687B610123FB60FB6883F31088C046FE
:1021EC007B689B68084A1A403B685B061A437B680D
:1021FC009A607B693B613B6983F31088C046C0469B
:10220C00BD4606B080BDC046FFFFFFF180B582B071
:10221C0000AF78607B685B68074A1A407B685A603D
:10222C007B689B682A2293431A007B689A60C0469D
:10223C00BD4602B080BDC046FFB7FFFF80B582B07F
:10224C0000AF78607B68DA6980239B031A40802397
:10225C009B039A4201D1012300E000231800BD46E4
:10226C0002B080BD80B582B000AF78607B68DA695F
:10227C008023DB031A408023DB039A4201D1012324
:10228C0000E000231800BD4602B080BD80B586B0CA
:10229C0000AF7860EFF31083BB60BB687B610123F8
:1022AC00FB60FB6883F31088C0467B681B682022A8
:1022BC001A437B681A607B693B613B6983F3108826
:1022CC00C046C046BD4606B080BD80B586B000AFE6
:1022DC007860EFF31083BB60BB687B610123FB600C
:1022EC00FB6883F31088C0467B689B6801221A4305
:1022FC007B689A607B693B613B6983F31088C046BD
:10230C00C046BD4606B080BD80B582B000AF7860D7
:10231C007B685B6A9BB2DB05DB0D9BB21800BD468C
:10232C0002B080BD80B582B000AF7860044B1968F4
:10233C00034B7A680A431A60C046BD4602B080BDA2
:10234C000000014080B582B000AF786039607B68D6
:10235C003A689A61C046BD4602B080BD80B582B075
:10236C0000AF786039607B683A689A62C046BD46B7
:10237C0002B080BD80B584B000AF7860074BD96BDC
:10238C00064B7A680A43DA63044BDB6B7A681340BA
:10239C00FB60FB68C046BD4604B080BD0010024027
:1023AC0080B584B000AF7860074B596B064B7A68E8
:1023BC000A435A63044B5B6B7A681340FB60FB68FF
:1023CC00C046BD4604B080BD0010024090B58DB033
:1023DC0002AF2423FB1800221A802223FB180022B0
:1023EC001A802023FB1800221A801E23FB180022BF
:1023FC001A801C23FB18012252421A8004F002FF9F
:10240C0000F014F9824B5A6B814B01210A435A6339
:10241C007F4B5B6B01221340BB60BB687C4B5A6BE0
:10242C007B4B02210A435A63794B5B6B02221340AC
:10243C007B607B68764B5A6B754B04210A435A635D
:10244C00734B5B6B042213403B603B6800F03EFC1B
:10245C0000F01EFC00F022FB00F046F900F024FA1C
:10246C0000F0D2FB00F0B2F900F070F900F0D8F9EE
:10247C00684B180005F094F9642004F049FF01F052
:10248C00A5FD00F061FE012004F042FF00F0F8FE13
:10249C0002F052FA01F07EF804F06AFA5E4B1A6808
:1024AC005D4B5E490A431A605B4B1800FFF7EEFE6A
:1024BC00594B1800FFF709FF574B1A6A564B082166
:1024CC000A431A6204F0C8F9012001F023F8002134
:1024DC00012001F03DF8002001F01CF830214120D2
:1024EC0001F036F8012001F015F80021102001F060
:1024FC002FF800212E2001F02BF81B23FB180222B1
:10250C001A701A23FB1804221A701923FB1826229E
:10251C001A701823FB1810221A7027217B1801221D
:10252C001A701723FB18F1221A701623FB180122BC
:10253C001A701523FB1804221A701423FB18072297
:10254C001A701323FB180E221A701223FB18002288
:10255C001A7011203B1800221A707B1801221A7075
:10256C003B181B7801221340DBB2002B02D07B18E6
:10257C0002221A7012203A181423FB1812781B78B6
:10258C00D318DBB2013BDCB21323FA182723FB1858
:10259C0012781B78D31ADAB211217B181B78D31856
:1025AC00DAB27B1819783B1818781D4B0193FF236E
:1025BC0000931300220000F0C7FE1A4B5A69194B06
:1025CC0040218A435A612623FB1800221A700DE021
:1025DC00002001F04FFFFA239B00180004F098FE36
:1025EC002622BB18BA18127801321A702623FB184F
:1025FC001B78002BECD00B4B5A690A4B40210A4339
:10260C005A61094B1B78180002F0F8F9F9E7C0463B
:10261C000010024090000020004400400D100010FB
:10262C0030000020000800501E03002090B593B02D
:10263C0000AF10243B19180038231A0000210CF0AD
:10264C00EBF83B00180010231A0000210CF0E4F802
:10265C0080239B00180007F0FDFA3B1902221A6038
:10266C003B1980225200DA6021007B1800221A618B
:10267C007B1840225A617B180222DA617B180222F5
:10268C001A627B1800225A627B1808229A627B1805
:10269C0080229202DA627B18802292041A637B18E1
:1026AC00802292055A637B18180007F01FFB031E4B
:1026BC0001D004F08FF93B0007221A603B00022284
:1026CC005A603B0000229A603B000022DA603B001B
:1026DC000221180007F024FE031E01D004F07AF941
:1026EC00C046BD4613B090BD80B500AF154B164A21
:1026FC001A60144B802252001A61124B30225A611C
:10270C00104B0022DA610F4B00229A600D4B002215
:10271C009A610C4B802292031A620A4B0022DA60F7
:10272C00084B00225A60074B12225A62054B1800C4
:10273C0004F0D4FE031E01D004F04CF9C046BD4693
:10274C0080BDC046900000200002014080B500AF63
:10275C001B4B1C4A1A601A4B1B4A5A60184B00221E
:10276C009A60174B0122DA60154B00221A61144B48
:10277C0000225A61124B00229A61114B0022DA613D
:10278C000F4B00221A620E4B180005F065FD031E5C
:10279C0001D004F01FF90A4B0021180006F0EEFEE0
:1027AC00031E01D004F016F9054B0021180006F0A9
:1027BC0031FF031E01D004F00DF9C046BD4680BDAB
:1027CC00C0000020005400402C10941080B500AFC5
:1027DC00114B124A1A60104B802292005A600E4B19
:1027EC0000229A600C4B0022DA600B4B8022920084
:1027FC001A61094BFA2292015A61074B00229A6125
:10280C00054B180006F052FF031E01D004F0E2F84D
:10281C00C046BD4680BDC0461401002000300140BA
:10282C0080B500AF1E4B0822DA611D4B1D4A1A60A1
:10283C001B4B822252005A60194B00229A60184B93
:10284C00E022D200DA60164B02221A61144B0122EC
:10285C005A61134B802292009A61114B1022DA615B
:10286C000F4B00221A620E4B00225A620C4B0022B4
:10287C009A620B4B0722DA62094B00221A63084B4F
:10288C0000225A63064B180008F0F4FB031E01D01B
:10289C0004F0A0F8024B0822DA61C046BD4680BDA8
:1028AC00AC0100200038004080B59EB000AF68231A
:1028BC00FB18180010231A0000210BF0ADFF5C234D
:1028CC00FB1818000C231A0000210BF0A5FF502355
:1028DC00FB1818000C231A0000210BF09DFF342369
:1028EC00FB1818001C231A0000210BF095FF3B006D
:1028FC00180034231A0000210BF08EFF644B654A3C
:10290C001A60634B00225A60614B00229A60604B44
:10291C00614ADA605E4B00221A615D4B00225A61FB
:10292C005B4B80229A615A4B180009F0C1FB031EC5
:10293C0001D004F04FF868217B18802252011A60F4
:10294C007A18534B1100180009F054FE031E01D0E5
:10295C0004F040F84E4B180009F002FC031E01D0A5
:10296C0004F038F85C217B1800221A607B180022D6
:10297C005A607B1800229A607A18454B1100180097
:10298C000AF012FB031E01D004F024F850217B182E
:10299C0002221A607B1801225A607B1800229A606E
:1029AC007A183B4B012118000AF012FC031E01D0CF
:1029BC0004F010F834217B1860221A607B189622E0
:1029CC0052005A607B1800229A607B180022DA6051
:1029DC007B1804221A617B1800225A617B18002292
:1029EC009A6179182A4B0022180009F003FD031E86
:1029FC0001D003F0EFFF34217B1832225A60791892
:102A0C00234B1022180009F0F5FC031E01D003F033
:102A1C00E1FF3B00802212011A603B008022D200B1
:102A2C005A603B0000229A603B000022DA603B00B7
:102A3C00802252011A613B00802292015A613B00B4
:102A4C000A229A613B000022DA613B0000221A62E2
:102A5C003B00802292045A623B0000229A623B00A7
:102A6C000022DA623B008022D2011A633A00084B42
:102A7C00110018000AF006FB031E01D003F0AAFF98
:102A8C00034B180004F0D4F9C046BD461EB080BDFF
:102A9C0010020020002C01407F02000090B59DB078
:102AAC0000AF5023FB18180020231A0000210BF054
:102ABC00B3FE3823FB18180018231A0000210BF062
:102ACC00ABFE3B1D180034231A0000210BF0A4FEB2
:102ADC003B1D02221A603B1D00229A603B1D180010
:102AEC0007F0C8FD031E01D003F074FF80239B0286
:102AFC001800FFF73FFC0120FFF752FC38243B196C
:102B0C0004221A603B1902225A603B1903229A6074
:102B1C003B190022DA603B1900221A613B19012291
:102B2C005A613A19A023DB05110018000BF0F2FAD8
:102B3C0021007B1808221A607B1802225A607B182D
:102B4C0003229A607B180122DA607B1801221A6139
:102B5C007B1801225A617A18A023DB05110018009A
:102B6C000BF0D8FA00211C20FFF77AFA1C20FFF793
:102B7C005DFA50217B1800221A607B18E1221202A8
:102B8C005A607B18802252019A607B180022DA600E
:102B9C007B1800221A617B180C225A617B180022C8
:102BAC009A617B180022DA617B18164A1900100012
:102BBC000BF080FD134B00211800FFF7DDFA114BD1
:102BCC0000211800FFF7FCFA0E4B1800FFF7C4FAAF
:102BDC000C4B1800FFF71AFB0A4B1800FFF7AEFA64
:102BEC00C046084B1800FFF729FB031EF9D0054B14
:102BFC001800FFF737FB031EF3D0C046C046BD4696
:102C0C001DB090BD0044004080B500AF1C4B5A680D
:102C1C001B4B802109030A435A601A4B184A1A604D
:102C2C00184B194A5A60174B00229A60154B002218
:102C3C00DA60144B00221A61124B08225A61114BB4
:102C4C008022D2009A610F4B80229200DA610D4BE8
:102C5C00802252001A620B4B00225A62094B00224E
:102C6C001A64084B18000AF05FFB031E01D003F036
:102C7C00B1FE044B054A5A60C046BD4680BDC046F5
:102C8C00004800405C02002000093D0000127A0060
:102C9C0080B582B000AF0C4B9A6B0B4B01210A43F1
:102CAC009A63094B9B6B012213407B607B6800226B
:102CBC000021092004F072FE092004F084FEC046B5
:102CCC00BD4602B080BDC0460010024080B586B043
:102CDC0000AF3B00180018231A0000210BF09CFDDC
:102CEC000220FFF75DFB0420FFF75AFB0120FFF7E2
:102CFC0057FB80239B008F4A19001000FFF722FB23
:102D0C008023DB018C4A19001000FFF71BFB80238A
:102D1C001B02894A19001000FFF714FBA023DB05E6
:102D2C0040211800FFF70EFBA023DB0580211800C3
:102D3C00FFF708FB804B40211800FFF70FFB8023A7
:102D4C001A01A023DB0511001800FFF707FB8023F5
:102D5C005A01A023DB0511001800FFF7FFFA3B0016
:102D6C00802292001A603B0001225A603B00032231
:102D7C009A603B000022DA603B0001221A613B00A2
:102D8C006C4A190010000BF0C5F93B008022D201EF
:102D9C001A603B0001225A603B0000229A603B0003
:102DAC000022DA603B0001221A613B00624A1900E2
:102DBC0010000BF0AFF93B00802212021A603B00AE
:102DCC0001225A603B0000229A603B000022DA602C
:102DDC003B0001221A613B00574A190010000BF00E
:102DEC0099F93B0001221A603B0000225A603B001B
:102DFC0001221A613A00A023DB05110018000BF028
:102E0C0089F93B0002221A603B0000225A603B0009
:102E1C0001221A613A00A023DB05110018000BF007
:102E2C0079F93B0010221A603B0000225A603B00EB
:102E3C0001221A613A00A023DB05110018000BF0E7
:102E4C0069F93B0040221A603B0001225A603B00AA
:102E5C0003229A603B000022DA603B0000221A61D8
:102E6C003A00A023DB05110018000BF053F93B00CE
:102E7C0080221A603B0001225A603B0003229A60B8
:102E8C003B000022DA603B0000221A613A00A023CA
:102E9C00DB05110018000BF03DF93B0040221A60D5
:102EAC003B0001225A603B0003229A603B00002247
:102EBC00DA603B0000221A613B001F4A1900100027
:102ECC000BF028F93B00802212011A603B00012212
:102EDC005A603B0003229A603B000022DA603B0000
:102EEC0000221A613A00A023DB05110018000BF038
:102EFC0011F93B00802252011A603B0001225A60FA
:102F0C003B0003229A603B000022DA603B00002267
:102F1C001A613A00A023DB05110018000BF0FAF837
:102F2C0080231B031800FFF7FDF9C046BD4606B011
:102F3C0080BDC046000400500008005080B500AFB2
:102F4C00144B1800FFF7E0F903001A00124B1A801B
:102F5C00124B01221A70104B1B881A0080235B0045
:102F6C0013400AD00C4B1B88DAB20D4B1A700D4B68
:102F7C0000221A800C4B01221A700B4B1B78012B70
:102F8C0004D1054B1B88180000F042F8C046BD4622
:102F9C0080BDC046004400401A03002018030020E6
:102FAC00E80200201C0300201903002080B582B029
:102FBC0000AF7860A023DB055A69A023DB058021D4
:102FCC008A435A61A023DB055A69A023DB05402103
:102FDC000A435A61034B00221A70C046BD4602B028
:102FEC0080BDC0461E03002080B582B000AF786063
:102FFC0001F070FCC046BD4602B080BD80B582B009
:10300C0000AF786001F070FCC046BD4602B080BDD8
:10301C0080B584B000AF0200BB1D1A800F23FB18D3
:10302C0000221A70C046394B1B78002BFBD0374B53
:10303C0000221A70364B1B881A00BB1D1B88D9B294
:10304C00344B9954324B1B8801339AB2304B1A8053
:10305C002F4B1B88002B4FD02D4B1B881A002D4B50
:10306C005B7801339A4247DD0F23FB1800221A705C
:10307C000FE00F217B181B78264AD25C264B1B785D
:10308C00D318DAB2244B1A707B181A787B180132D9
:10309C001A70204B5B785A1C0F217B181B789A42B4
:1030AC00E7DA1D4B1B78002B22D0194B1B881A001A
:1030BC00184B5B7802339A421AD1184B00221A70C3
:1030CC007B1800221A700AE00F203B181B78114A5B
:1030DC000021D1543B181A783B1801321A700D4B51
:1030EC005B785A1C0F23FB181B789A42ECDA03E02E
:1030FC00084B180000F008FB094B1A6A084B082112
:10310C000A431A62C046BD4604B080BD18030020B5
:10311C001C030020E80200202003002019030020DB
:10312C000044004080B582B000AF0200FB1D1A7055
:10313C00F91D04480A2301220AF046F9C046BD468F
:10314C0002B080BD5C02002080B500AF4A4B1A680B
:10315C00494B01218A431A60474B5A68464B8021E0
:10316C0009030A435A60444B1A68434B01210A4332
:10317C001A60012004F0CCF8012004F0C9F83F4B90
:10318C000021180009F04CF8012004F0C1F8A0232C
:10319C00DB055A69A023DB0540218A435A61A02331
:1031AC00DB055A69A023DB0580218A435A61AF20D5
:1031BC00FFF7B8FFB820FFF7B5FF0020FFF7B2FF0D
:1031CC000020FFF7AFFF0120FFF7ACFF0220FFF755
:1031DC00A9FF0420FFF7A6FF0720FFF7A3FF0B2092
:1031EC00FFF7A0FF0E20FFF79DFF1220FFF79AFFBD
:1031FC001720FFF797FF1B20FFF794FF2120FFF705
:10320C0091FF2820FFF78EFF3120FFF78BFF3F2027
:10321C00FFF788FFA020FFF785FF5220FFF782FF02
:10322C008120FFF77FFFFF20FFF77CFFA120FFF736
:10323C0079FF0020FFF776FFA220FFF773FF002035
:10324C00FFF770FFA820FFF76DFF7F20FFF76AFFE5
:10325C00A023DB055A69A023DB0580210A435A61B0
:10326C00A023DB055A69A023DB0540210A435A61E0
:10327C00C046BD4680BDC04600480040100200203C
:10328C0080B582B000AFA023DB055A69A023DB0513
:10329C0040218A435A61A023DB055A69A023DB0530
:1032AC0080218A435A617520FFF73CFF0020FFF70D
:1032BC0039FF7F20FFF736FF1520FFF733FF002083
:1032CC00FFF730FF7F20FFF72DFFA023DB055A69A6
:1032DC00A023DB0540218A435A61A023DB055A69F0
:1032EC00A023DB0580210A435A61BB1D00221A80F2
:1032FC000DE0C046124BDB6980221340FAD0104B14
:10330C0000229A62BB1D1A88BB1D01321A80BB1D9C
:10331C001B880C4A9342ECD9A023DB055A69A023E5
:10332C00DB0580218A435A61A023DB055A69A0235F
:10333C00DB0540210A435A61C046BD4602B080BD40
:10334C000048004001200000F0B585B000AF05003A
:10335C000C0010001900FB1D2A1C1A70BB1D221C2E
:10336C001A707B1D021C1A703B1D0A1C1A700E244D
:10337C003B1900221A80FB1D1B785BB2002B00DA74
:10338C00C1E0BB1D1B785BB2002B00DABBE07B1DE0
:10339C001B785BB2002B00DAB5E03B1D1B785BB2EF
:1033AC00002B00DAAFE00D257B19FA1D12781A708C
:1033BC000C26BB19BA1D12781A700B23FB187A1D38
:1033CC0012781A700A22BB183A1D12781A70A023B0
:1033DC00DB055A69A023DB0540218A435A61A023EF
:1033EC00DB055A69A023DB0580218A435A617520CD
:1033FC00FFF798FE7B191B781800FFF793FE0B2341
:10340C00FB181B781800FFF78DFE1520FFF78AFEBE
:10341C00BB191B785B08DBB21800FFF783FE0A228E
:10342C00BB181B785B08DBB21800FFF77BFEA023F0
:10343C00DB055A69A023DB0580210A435A61A023CE
:10344C00DB055A69A023DB0540210A435A61A023FE
:10345C00DB055A69A023DB0540218A435A61A0236E
:10346C00DB055A69A023DB0580210A435A613B190D
:10347C0000221A8012E0C046254BDB6980221340E3
:10348C00FAD00E217B181B88FA6AD3181A78204BB5
:10349C009A627B181A887B1801321A800E23FB184B
:1034AC001A880B23FB1819780D23FB181B78CB1AE1
:1034BC0001330A21791809784908C9B208000C218E
:1034CC00791809784908C9B2411A01314B439A421B
:1034DC00D1DBC0460E4BDB6980221340FAD00120B1
:1034EC0003F016FFA023DB055A69A023DB0580211E
:1034FC008A435A61A023DB055A69A023DB054021CE
:10350C000A435A6100E0C046BD4605B0F0BDC04656
:10351C000048004080B586B002AF0200FB1D1A7057
:10352C000C217B1800221A707B18FA1D12785A7025
:10353C007A180648FA239B0000930223302104F0EA
:10354C0021FFC046BD4604B080BDC046C00000206F
:10355C0080B586B002AF0200FB1D1A70BB1D0A1CA1
:10356C001A700C217B18FA1D12781A707B18BA1D70
:10357C0012785A707A180648FA239B00009302239B
:10358C00302104F0FFFEC046BD4604B080BDC046ED
:10359C00C000002080B500AF0020FFF7BBFF012169
:1035AC000120FFF7D5FF0120FFF7B4FF0021022017
:1035BC00FFF7CEFF0F2003F0ABFE0020FFF7AAFFB2
:1035CC0003210420FFF7C4FF91210520FFF7C0FF62
:1035DC0004210620FFF7BCFF00210720FFF7B8FFEE
:1035EC0000210820FFF7B4FF0F2003F091FE842187
:1035FC000B20FFF7ADFF82210C20FFF7A9FF002164
:10360C000D20FFF7A5FF80210E20FFF7A1FF002161
:10361C001B20FFF79DFF00211C20FFF799FF0221C3
:10362C003C20FFF795FF0120FFF774FF10210120CC
:10363C00FFF78EFF00210A20FFF78AFF00210C20E4
:10364C00FFF786FF00211620FFF782FF00211820CC
:10365C00FFF77EFF00211920FFF77AFF00210920D8
:10366C00FFF776FF00211020FFF772FF00212E20BC
:10367C00FFF76EFF10213020FFF76AFF02212D208B
:10368C00FFF766FF0020FFF745FF90213F20FFF773
:10369C005FFF00214120FFF75BFF04214020FFF773
:1036AC0057FFC046BD4680BD90B583B000AF040047
:1036BC0008001100FB1D221C1A70BB1D021C1A7085
:1036CC007B1D0A1C1A700020FFF724FFBB1D1B7802
:1036DC0019004120FFF73CFF0120FFF71BFF0021E1
:1036EC001020FFF735FF7B1D1B7819002E20FFF7EC
:1036FC002FFFFB1D1B7819003020FFF729FFC04658
:10370C00BD4603B090BD000080B584B000AF7860BA
:10371C000F23FB18FF221A700D23FB1800221A70BE
:10372C00D44B01221A70D44B00221A707B681A7881
:10373C007B681A707B681B78112B0FD07B681B7809
:10374C00122B0BD07B681B78132B07D07B681B7854
:10375C00142B03D07B681B78152B05D1C74B5A69EA
:10376C00C64B40218A435A617B681B7880225242A7
:10377C001343DBB29AB2C24B1A807B681B780F2BB7
:10378C0000D862E17B681B78152B00D95DE1A02382
:10379C00DB051B691022134006D10F22BB18BA1887
:1037AC00127801218A431A70A023DB051B690222BF
:1037BC00134006D10F22BB18BA18127802218A4383
:1037CC001A70A023DB051B690122134006D10F22BE
:1037DC00BB18BA18127804218A431A70A023DB058F
:1037EC001A6980239B01134006D10F22BB18BA180B
:1037FC00127808218A431A70A023DB051A698023EA
:10380C00DB01134006D10F22BB18BA181278102115
:10381C008A431A700F217B187A181278D2431A70C7
:10382C000C203B1804221A703B181B789BB2023BED
:10383C009AB2934B5A807B181B789AB2904B9A8011
:10384C000E23FB1800221A7011E00E203B181A7878
:10385C008B4B5200D35AD9B20D22BB18BA1812781E
:10386C008A181A703B181A783B1801321A700E20FD
:10387C003B181A780C23FB181B78013B9A42E4DBAB
:10388C000D217B187A18127852421A707B181B780B
:10389C009AB27B4BDA803B1800221A70C046794BE7
:1038AC00DB6980221340FAD0754B1B8880225200B2
:1038BC0013439AB2734B9A620E23FB1801221A70AF
:1038CC0013E0C0466F4BDB6980221340FAD00E2107
:1038DC007B181A786A4B5200D35ADAB2694B9A6247
:1038EC007B181A787B1801321A700E23FA180C23E5
:1038FC00FB1812781B789A42E3D3624B1A68614B1F
:10390C0004210A431A605B4B00221A707B681B78F7
:10391C00112B09D17B689A785B4B1A70564B11228C
:10392C001A705A4B00221A707B681B78122B15D117
:10393C007B6802331B781A00554B1A607B68033383
:10394C001B781A00534B1A607B681A794E4B1A700D
:10395C00494B12221A704D4B00221A707B681B784F
:10396C00132B40D17B6802331B781A00484B1A602A
:10397C007B6803331B781A00464B1A607B681A79F4
:10398C00454B1A70444B1B78102252421343DAB247
:10399C00424B1A707B6801331B78043BDAB2404B04
:1039AC001A700E23FB1800221A700FE00E203B1821
:1039BC001B7805337A68D2183B181B781178394A72
:1039CC00D1543B181A783B1801321A70344B1B78BF
:1039DC000E22BA1812789A42E8D3274B13221A7087
:1039EC002A4B00221A707B681B78142B09D17B6838
:1039FC009A782D4B1A70204B14221A70234B0022EC
:103A0C001A707B681B78152B0DD17B689A78274B25
:103A1C001A707B68DA78264B1A70174B15221A70BD
:103A2C001A4B00221A707B681B78162B0DD17B6801
:103A3C00DA781E4B1A707B681A791D4B1A700E4B74
:103A4C0016221A70114B00221A707B681B78002BFF
:103A5C0000D09FE00C217B1814221A707B181B7865
:103A6C009BB2023B9AB2064B5A800E23FB180022E3
:103A7C001A7030E0BC0200201E0300200008005029
:103A8C000403002000440040BD0200201F0300205E
:103A9C00C4020020C8020020290300202A030020B1
:103AAC00C2020020D0020020BE020020BF02002073
:103ABC00C00200200E203B181B78CB4AD15C3B186F
:103ACC001B789A1C89B2C94B5200D1523B181A78F8
:103ADC003B1801321A700E22BB181B78102BE9D937
:103AEC00BB1800221A7011E00E203B181A78BF4B3D
:103AFC005200D35AD9B20D22BB18BA1812788A18B0
:103B0C001A703B181A783B1801321A700E23FB18E6
:103B1C001A780C203B181B78013B9A42E4DB0D21F0
:103B2C007B187A18127852421A703B181B785A1E5E
:103B3C007B181B7899B2AD4B5200D152C046AC4B9E
:103B4C00DB6980221340FAD0A84B1B8880225200DC
:103B5C0013439AB2A64B9A6214E00E217B181A7882
:103B6C007B1801321A70C046A14BDB6980221340CE
:103B7C00FAD00E23FB181A789C4B5200D35ADAB2A7
:103B8C009B4B9A620E23FB181A78984B5200D35A0F
:103B9C00002BE2D17B681B78012B00D07FE00C213D
:103BAC007B180B221A707B181B789BB2023B9AB2C3
:103BBC008E4B5A800E23FB1800221A7010E00E2038
:103BCC003B181B788B4AD15C3B181B789A1C89B22A
:103BDC00864B5200D1523B181A783B1801321A709E
:103BEC000E22BB181B78102BE9D9BB1800221A70B7
:103BFC0011E00E203B181A787C4B5200D35AD9B2E4
:103C0C000D22BB18BA1812788A181A703B181A7839
:103C1C003B1801321A700E23FB181A780C203B1833
:103C2C001B78013B9A42E4DB0D217B187A18127841
:103C3C0052421A703B181B785A1E7B181B7899B28B
:103C4C006A4B5200D152C046694BDB69802213404B
:103C5C00FAD0664B1B888022520013439AB2644BF5
:103C6C009A6214E00E217B181A787B1801321A70B4
:103C7C00C0465F4BDB6980221340FAD00E23FB1841
:103C8C001A785A4B5200D35ADAB2594B9A620E2315
:103C9C00FB181A78554B5200D35A002BE2D17B6893
:103CAC001B78022B00D07FE00C217B1813221A709A
:103CBC007B181B789BB2023B9AB24C4B5A800E235A
:103CCC00FB1800221A7010E00E203B181B784A4A91
:103CDC00D15C3B181B789A1C89B2444B5200D152D0
:103CEC003B181A783B1801321A700E22BB181B783D
:103CFC00102BE9D9BB1800221A7011E00E203B18CA
:103D0C001A783A4B5200D35AD9B20D22BB18BA18B2
:103D1C0012788A181A703B181A783B1801321A70EC
:103D2C000E23FB181A780C203B181B78013B9A4287
:103D3C00E4DB0D217B187A18127852421A703B186A
:103D4C001B785A1E7B181B7899B2284B5200D15203
:103D5C00C046274BDB6980221340FAD0234B1B88CB
:103D6C008022520013439AB2214B9A6214E00E2126
:103D7C007B181A787B1801321A70C0461C4BDB6911
:103D8C0080221340FAD00E23FB181A78174B5200DE
:103D9C00D35ADAB2164B9A620E23FB181A78134BCD
:103DAC005200D35A002BE2D17B681B78032B00D036
:103DBC007CE00C217B1804221A707B181B789BB2B8
:103DCC00023B9AB2094B5A800C4B1B789AB2074BA8
:103DDC009A800D23FB181B789AB2044BDA800E23C1
:103DEC00FB1800221A701DE00000002004030020C4
:103DFC000044004014000020200000201C00002083
:103E0C000E203B181A786D4B5200D35AD9B20D22A2
:103E1C00BB18BA1812788A181A703B181A783B1803
:103E2C0001321A700E23FB181A780C203B181B78E1
:103E3C00013B9A42E4DB0D217B187A18127852422E
:103E4C001A703B181B785A1E7B181B7899B25B4B67
:103E5C005200D152C0465A4BDB6980221340FAD033
:103E6C00564B1B888022520013439AB2544B9A62D1
:103E7C0014E00E217B181A787B1801321A70C04698
:103E8C004F4BDB6980221340FAD00E23FB181A78B3
:103E9C004A4B5200D35ADAB2494B9A620E23FB18A2
:103EAC001A78464B5200D35A002BE2D17B681B7810
:103EBC00042B00D076E00C217B1804221A707B189E
:103ECC001B789BB2023B9AB23C4B5A807B68023304
:103EDC001B781A003B4B1A603B4B1B789AB2374B42
:103EEC009A800D23FB181B789AB2344BDA800E2380
:103EFC00FB1800221A7011E00E203B181A782F4B79
:103F0C005200D35AD9B20D22BB18BA1812788A189B
:103F1C001A703B181A783B1801321A700E23FB18D2
:103F2C001A780C203B181B78013B9A42E4DB0D21DC
:103F3C007B187A18127852421A703B181B785A1E4A
:103F4C007B181B7899B21D4B5200D152C0461C4BAA
:103F5C00DB6980221340FAD0184B1B888022520058
:103F6C0013439AB2164B9A6214E00E217B181A78FE
:103F7C007B1801321A70C046114BDB69802213404A
:103F8C00FAD00E23FB181A780C4B5200D35ADAB223
:103F9C000B4B9A620E23FB181A78084B5200D35A1B
:103FAC00002BE2D1064B1A6A054B08210A431A6210
:103FBC00C0461800BD4604B080BDC04604030020B6
:103FCC0000440040CC020020C102002080B582B029
:103FDC0000AF012003F09CF9284B5A69274B284964
:103FEC000A405A61FB1D66221A70F91D25480523EB
:103FFC00012207F0F7F8214B5A69204B80218900E8
:10400C000A435A61C046C046C046C046C046C04678
:10401C001A4B5A69194B1A490A405A61FB1D9922CD
:10402C001A70F91D17480523012207F0DBF8134B12
:10403C005A69124B802189000A435A61012003F00E
:10404C0067F9FB1DB7221A700C4B5A690B4B0C49C4
:10405C000A405A61F91D0B480523012207F0C2F8EA
:10406C00064B5A69054B802189000A435A6101208D
:10407C0003F04EF9C046BD4602B080BD00040050AE
:10408C00FFFDFFFFAC010020B0B53F4CA54402AFD3
:10409C0002003E4B3E495B18DB191A703D4C3B1934
:1040AC0013221A70394B5B18DB191B785B033A48E7
:1040BC003A1813603B181B68DAB2384B5B18DB19E3
:1040CC001A703B181B681B0ADAB2344B5B18DB19ED
:1040DC005A703B181B681B0CDAB2304B5B18DB199F
:1040EC009A703B181B681B0EDAB22C4B5B18DB1951
:1040FC00DA702B4B5A692A4B2A490A405A613919F2
:10410C0029483223012207F06DF808243B19D91CE9
:10411C0025483223012207F065F83B19991C2248E7
:10412C003223012207F05EF83B19591C1E4832233A
:10413C00012207F057F839191B483223012207F0E6
:10414C0051F81A4C80239A0110257919164823002E
:10415C0007F0A0F9124B5A69114B802189000A43D0
:10416C005A617B190193FF2300937F237F22002147
:10417C000020FFF7E9F80E4B00221A70C046180019
:10418C00BD46034B9D44B0BDE0DFFFFFEFDFFFFFFB
:10419C00182000001320000014200000F0DFFFFFA7
:1041AC0000040050FFFDFFFFAC010020881300004D
:1041BC001E030020F0B59A4CA54402AF0400080081
:1041CC001100984B984D5B19DB19221C1A70974BF8
:1041DC002C001B19DB19021C1A70954B20001B18A4
:1041EC00DB190A1C1A700023924C3A191360924D79
:1041FC007B1913221A708B4B01005B18DB191B788F
:10420C000133FF335B032600BA191360BB191B681B
:10421C00DAB28A4B0C001B19DB191A70BB191B681C
:10422C001B0ADAB2854B1B19DB195A70BB191B68B8
:10423C001B0CDAB2814B1B19DB199A70BB191B686A
:10424C001B0EDAB27D4B1B19DB19DA707C4B5A69E9
:10425C007B4B7C490A405A6179197B4832230122F5
:10426C0006F0C0FF08257B19D91C774832230122A0
:10427C0006F0B8FF7B19991C73483223012206F013
:10428C00B1FF7B19591C70483223012206F0AAFF9A
:10429C0079196D483223012206F0A4FF6B4B0C22D6
:1042AC00B9186948022207F0F5F8654B5A69644B56
:1042BC00802189000A435A6165497B18654A1219A5
:1042CC00D21912781A70644B1800FB18614A121933
:1042DC00D21952781A707B181B780200BA1812780F
:1042EC005208D2B253431A005C4B1A60BE193368A1
:1042FC0002335B497E1833607E183368DAB24F4B59
:10430C001E19F3191A707E1833681B0ADAB24B4B5C
:10431C001E19F3195A707E1833681B0CDAB2474B0E
:10432C001E19F3199A707E1833681B0EDAB2434BC0
:10433C001E19F319DA704B4B1A6A4A4B08210A43BF
:10434C001A623D483B1813221A703D4B5A693C4B7C
:10435C003C490A405A6139183B483223012206F085
:10436C0041FF7B19D91C38483223012206F03AFF51
:10437C007B19991C34483223012206F033FF7B1938
:10438C00591C31483223012206F02CFF79192E4892
:10439C003223012206F026FF304B1B689AB22B4BBE
:1043AC0010257919284807F075F8254B5A69244BC4
:1043BC00802189000A435A612B4B01221A701B4B36
:1043CC0021005C18E219224BFB1812781B78D318C9
:1043DC00DBB2013BDCB2164B5B18DA191E483B18FA
:1043EC0012781B78D318DBB2013BDAB2104B080001
:1043FC005B18DB1919780D4B1B18DB1918787B1916
:10440C000193FF23009313002200FEF79DFF174B2F
:10441C0000221A70C0461800BD46154B9D44F0BDD5
:10442C00D4DFFFFFE7DFFFFF20200000E6DFFFFF08
:10443C00E5DFFFFF1C20000013200000E8DFFFFF7A
:10444C0000040050FFFDFFFFAC01002088130000AA
:10445C001B200000ECDFFFFF1A2000002C030020C3
:10446C001420000000440040280300201E030020FC
:10447C002420000090B58DB000AF0200FB1D1A7017
:10448C002723FB1813221A700023FB600022302113
:10449C001020FFF709F97C4B00221A600023FB6205
:1044AC007A4B00221A70794B1B78012B09D1784B6F
:1044BC005A69774B40218A435A61734B00221A6028
:1044CC00EDE1714B1B68002B00D08DE0714B1B682C
:1044DC00DAB218243B191A706E4B1B681B0ADAB23D
:1044EC003B195A706B4B1B681B0CDAB23B199A7058
:1044FC00684B1B681B0EDAB23B19DA70664B5A69B3
:10450C00654B66490A405A612723F91864483223DF
:10451C00012206F067FE3B19D91C614832230122A7
:10452C0006F060FE3B19991C5D483223012206F00F
:10453C0059FE3B19591C5A483223012206F052FEEF
:10454C00391957483223012206F04CFE554B1C24D6
:10455C0039195348092206F09DFF4F4B5A694E4BAF
:10456C00802189000A435A6120003B181A791421D2
:10457C007B181A703B18DA787B185A703B189A78AB
:10458C007B189A703B185A787B18DA707B180022CB
:10459C001A707B1800225A707B1800229A707B18B4
:1045AC000022DA7010217B18DB781A00FB6A1343A7
:1045BC00FB62FB6A1B02FB627B189B781A00FB6A8E
:1045CC001343FB62FB6A1B02FB627B185B781A00CD
:1045DC00FB6A1343FB62FB6A1B02FB627B181B78B2
:1045EC001A00FB6A1343FB622F4BFB622F4B1B8899
:1045FC001900F86AFBF780FD03001A002C4B1A60B7
:10460C00254B5A69244B25490A405A612723F9182E
:10461C0023483223012206F0E5FD14243B19D91C52
:10462C001F483223012206F0DDFD3B19991C1C4862
:10463C003223012206F0D6FD3B19591C18483223AF
:10464C00012206F0CFFD391915483223012206F05C
:10465C00C9FD164B1A88134B1649114806F01AFF60
:10466C000D4B5A690C4B802189000A435A610F4B40
:10467C001B885B089AB20F490F4B180005F00CF918
:10468C000E4B01221A7003E1302300203933002035
:10469C00000800502403002000040050FFFDFFFF21
:1046AC00AC0100208813000028F8140064000020DE
:1046BC00342300203823002014010020383300203C
:1046CC00794B1B78022B6FD1784B5A69774B402171
:1046DC000A435A61764B1B885B089BB21A00FB6835
:1046EC00D318FB60FB68DAB214243B191A70FB6810
:1046FC001B0ADAB23B195A70FB681B0CDAB23B1975
:10470C009A70FB681B0EDAB23B19DA70FB681A0E52
:10471C002B23FB181A70FB681A0C2A23FB181A702F
:10472C00FB681A0A2923FB181A70FA682823FB184D
:10473C001A70604B5A695F4B5F490A405A612723D4
:10474C00F9185E483223012206F04CFD3B19D91CA6
:10475C005A483223012206F045FD3B19991C574853
:10476C003223012206F03EFD3B19591C53483223DB
:10477C00012206F037FD391950483223012206F088
:10478C0031FD4B4B1B885B089AB24D4B4D494B4846
:10479C0006F080FE474B5A69464B802189000A433C
:1047AC005A61414B01221A703F4B1B78002B6FD181
:1047BC003E4B5A693D4B40218A435A613C4B1B8806
:1047CC005B089BB21A00FB68D318FB60FB68DAB27B
:1047DC0014243B191A70FB681B0ADAB23B195A7085
:1047EC00FB681B0CDAB23B199A70FB681B0EDAB231
:1047FC003B19DA70FB681A0E2B23FB181A70FB6836
:10480C001A0C2A23FB181A70FB681A0A2923FB18A6
:10481C001A70FA682823FB181A70264B5A69254B14
:10482C0025490A405A612723F918244832230122CA
:10483C0006F0D8FC3B19D91C20483223012206F083
:10484C00D1FC3B19991C1D483223012206F0CAFCED
:10485C003B19591C19483223012206F0C3FC3919A3
:10486C0016483223012206F0BDFC114B1B885B0855
:10487C009AB2134B1449114806F00CFE0D4B5A69B1
:10488C000C4B802189000A435A61074B01221A7094
:10489C000E4B1A680E4B1B689A4200D810E7180092
:1048AC00BD460DB090BDC046383300200008005006
:1048BC006400002000040050FFFDFFFFAC0100204D
:1048CC008813000038230020382B002030230020D0
:1048DC003423002080B500AF024B02221A70C04670
:1048EC00BD4680BD3833002080B500AF0C4B1B6833
:1048FC005A1C0B4B1A600A4B1A680A4B1B689A42DB
:10490C000BD8094B1B885B089AB20849084B180056
:10491C0004F0C2FF074B00221A70C046BD4680BD92
:10492C003023002034230020640000203823002092
:10493C00140100203833002080B582B000AF3B1D3D
:10494C00294A12781A70FB1D9E221A70274B5A693D
:10495C00264B27490A405A61F91D26483223012269
:10496C0006F040FCFA239B00391D2248012206F078
:10497C0091FD3B1D1B781A001F4B1A601E4B1B68C8
:10498C001A021D4B1A60FA239B00391D194801228B
:10499C0006F080FD3B1D1B781A00174B1B68D218C4
:1049AC00154B1A60144B1B681A02134B1A60FA232E
:1049BC009B00391D0F48012206F06CFD3B1D1B7836
:1049CC001A000D4B1B68D2180B4B1A60074B5A6917
:1049DC00064B802189000A435A61074B1B6818005B
:1049EC00BD4602B080BDC04668F800080004005007
:1049FC00FFFDFFFFAC010020E402002090B585B064
:104A0C0002AF0200FB1D1A70614B1B78102B00D1FA
:104A1C00B7E0604B1B78002B00D0B4E05E4B1A6AF9
:104A2C005D4B08210A431A62FB1D1B78112B0DD11B
:104A3C00584B11221A70594B1B781800FFF724FBA6
:104A4C00554B1A6A544B08210A431A62FB1D1B78FA
:104A5C00122B0DD14F4B12221A70504B1878504B11
:104A6C001B68D9B24F4B1B68DBB21A00FFF7A2FBD5
:104A7C00FB1D1B78132B11D1464B13221A70484B7C
:104A8C001B68D8B2474B1B68D9B2474B1A78474BB7
:104A9C001C78474B0093230000F092F8FB1D1B7809
:104AAC00142B05D13B4B14221A70FB1D00221A70DB
:104ABC00FB1D1B78152B4DD1364B15221A7001207E
:104ACC00FEF728FD3B4B1B78002B06D10120FEF78F
:104ADC0021FDFF212E20FEF73BFD0120FEF71AFDE4
:104AEC00344B1B7819002E20FEF732FD324B1B780D
:104AFC00002B02D1FEF7C4FB29E0A023DB055A6989
:104B0C00A023DB0540218A435A61A023DB055A69A7
:104B1C00A023DB0580218A435A618120FEF702FB2A
:104B2C00254B1B781B01DBB21800FEF7FBFAA02308
:104B3C00DB055A69A023DB0580210A435A61A023B7
:104B4C00DB055A69A023DB0540210A435A61FB1D92
:104B5C0000221A70FB1D1B78162B02D10D4B16224E
:104B6C001A70FB1D00221A70144B5A69134B40210A
:104B7C000A435A61084B1A6A074B08210A431A6206
:104B8C0002E0C04600E0C0461800BD4603B090BD30
:104B9C00E80200201F03002000440040BD0200205A
:104BAC00C4020020C8020020C202002029030020F9
:104BBC00D0020020BF020020C002002000080050DC
:104BCC00F0B5CE46474680B5E5B002AF16009C4620
:104BDC002023FF3308229B18DA19031C13708F2330
:104BEC005B0008229B18DA190B1C13701E22FF3273
:104BFC000823D318DA19331C13708E267600082379
:104C0C00F318DA19634613705F238C2149005A1884
:104C1C0008239C46BC4462442020FF300823C31860
:104C2C00DB191B7813705E20421808239C46BC4489
:104C3C0062440823F318DB191B781B0913705D26DB
:104C4C00721808239C46BC44624443183B600823FA
:104C5C009C46BC443B6863441B781B0113705C236B
:104C6C000A00591808239C46BC4461441300F218EE
:104C7C000826B446BC4462441E00C0180823FB1826
:104C8C00C31812781B7813430B70602130000A187C
:104C9C0008239C46BC446244012313708F235B00A1
:104CAC0008229B18DB191A7801231340DBB2002B66
:104CBC0005D00B180822BA189A1802231370612118
:104CCC008C2040000B180822BA189A180023137075
:104CDC008E235B0008229B18DB191A7801231340E2
:104CEC0005D00B180822BA189A18012313708E23BA
:104CFC005B0008229B18DB191A780223134008D09A
:104D0C0061238C2252009B180822BA189A1802238D
:104D1C00137061238C2676009B1908229446BC44A0
:104D2C0063441B78002B00D0A7E26B4698465A21AF
:104D3C008B190822BA189A18312313808B19082260
:104D4C009446BC4463441A881300013BB6214900C5
:104D5C0008200918C9190B6088210823CB18DB1906
:104D6C001A6000238C2008268019C01903600823C0
:104D7C00CB18DB191868596803005B0F0E00F5009F
:104D8C001D430300DC0080210823CB18DB191A60BB
:104D9C000023842008240019C01903600823CB18B1
:104DAC00DB191868596803005B0F0D00ED008A24AD
:104DBC0064000826A619F619356008256519ED1941
:104DCC002D681D430823E318DB191D600300DB006D
:104DDC008821490008200918C9190B6013000733F2
:104DEC00DB08DB006A46D31A9D4602AB0033B422C3
:104DFC00520008215218D21913605A2490235B00D8
:104E0C00FB181C608C267600A31908229446BC441F
:104E1C0063441A881300013BB22149000820091889
:104E2C00C9190B608023FB181A60002384217918A0
:104E3C000B608023FB181868596803005B0F9C46B5
:104E4C000D00ED00862464000823E418E4192560A5
:104E5C0086256D000823EB18DC19256863461D4375
:104E6C0086235B0008241B19DB191D600300DB0083
:104E7C008421490008200918C9190B60BA6700235E
:104E8C00FB67B86FF96F03005B0F0D00ED00862414
:104E9C0064003C192560862464003C1925681D4378
:104EAC0086235B00FB181D600300DB008421490096
:104EBC0079180B6013000733DB08DB006A46D31A42
:104ECC009D4602AB0033B022520008215218D21971
:104EDC00136090235B00FB181C68350063190822D3
:104EEC009446BC4463441A881300013BAE2149002C
:104EFC0008200918C9190B603A6700237B67386FC3
:104F0C00796F03005B0F0C00E400FC260825751973
:104F1C00ED192C6008243419E41924681C43082367
:104F2C00F318DB191C600300DB00F82108200918BA
:104F3C00C9190B60BA660023FB66B86EF96E0300E4
:104F4C005B0F0C00E400F42608257519ED192C6094
:104F5C0008243419E41924681C430823F318DB19BA
:104F6C001C600300DB00F02108200918C9190B6034
:104F7C0013000733DB08DB006A46D31A9D4602ABED
:104F8C000033AC22520008215218D21913603F236F
:104F9C008C256D005B190822BA189A180723137018
:104FAC003E235B190822BA189A180E231370622339
:104FBC005B190822BA189A180023138010E1642395
:104FCC008C2252009B180822BA189A1800231380BE
:104FDC0042E062238C2149005B1808229446BC44B1
:104FEC0063441A8880235B18082084460820814675
:104FFC00B944CC4463441B689B181B781D00642285
:10500C00531808208446BC4463441888160053186F
:10501C0008229446BC4463441C887E492A00D20072
:10502C00521BD3009B1ACB181B5CB42252000821D4
:10503C005218D2191268135532008C21490053189A
:10504C0008208446BC4463441B88521808218C46B3
:10505C00BC4462440133138064238C2149005B18E7
:10506C000822BA189A185A235B1808208446BC44A4
:10507C00634412881B889A42ABD366235B180822C0
:10508C00BA189A180023138030E066208C24640030
:10509C00031908229446BC4463441A88B4256D0055
:1050AC000823EB18DB191B689A5C031908218C4642
:1050BC00BC44634419885C231B190826B446BC44C1
:1050CC0063441B781340DBB20822AA18D219126869
:1050DC005354031908229446BC4463441B88021998
:1050EC0008218C46BC4462440133138066238C2512
:1050FC006D005B190822BA189A185A235B190821FB
:10510C008C46BC44634412881B889A42BDD35F20F2
:10511C0043190822BA189A183F231E005B1908215C
:10512C008C46BC44634412781B78D318DBB2013B29
:10513C00DCB28F2149000823CB18DA193E214B1918
:10514C0008218C46BC44634412781B78D318DAB21D
:10515C0060214B1908218C46BC4463441B78D31A3C
:10516C00DBB299468F2149000823CB18DB1919783B
:10517C0005008C235B00C31808229446BC4463448E
:10518C001878B4235B0008229B18DB191B68019369
:10519C00FF2300934B462200FEF7D6F88C204000EC
:1051AC002B180822BA1899182B180822BA189A1812
:1051BC0033001B180824A446BC44634412781B78A3
:1051CC00D3180B706222131808218C46BC4463441C
:1051DC001B88121808218C46BC446244013313808E
:1051EC001E23FF3308229B18DB191B789AB262210D
:1051FC008C2040000B180824A446BC4463441B8834
:10520C00934200D2DBE60B180822BA189A18002336
:10521C00138020E0ECF8000864238C2040001B185D
:10522C0008229446BC4463441988B4235B000822CA
:10523C009B18DB191A680023535462221318082197
:10524C008C46BC4463441B88121808218C46BC4411
:10525C0062440133138062238C2149005B180822BD
:10526C00BA189A185A235B1808218C46BC4463441C
:10527C0012881B889A42CFD3C54661238C225200D8
:10528C009B1808218C46BC4463441B78012B00D02E
:10529C009BE26B4698465A241600A3180822BA18AB
:1052AC009A183F23138090235B00FB181C60A319F2
:1052BC0008229446BC4463441A881300013BA8217D
:1052CC00490008200918C9190B603A6600237B664F
:1052DC00386E796E03005B0F0E00F600EC25082487
:1052EC002C19E419266008242C19E41926681E438D
:1052FC000823EB18DB191E600300DB00E8210820F3
:10530C000918C9190B60BA650023FB65B86DF96DF6
:10531C0003005B0F0E00F600E42508242C19E41999
:10532C00266008242C19E61936681E430823EB184E
:10533C00DB191E600300DB00E02108200918C919E5
:10534C000B6013000733DB08DB006A46D31A9D465B
:10535C0002AB0033A621490008228A18D1190B6030
:10536C0090235B00FB181C6890235B00FB181C60EF
:10537C008C267600A31908229446BC4463441A88F0
:10538C001300013BA421490008200918C9190B601E
:10539C003A6500237B65386D796D03005B0F0E0059
:1053AC00F600DC2508242C19E419266008242C1995
:1053BC00E41926681E430823EB18DB191E60030052
:1053CC00DB00D82108200918C9190B60BA64002326
:1053DC00FB64B86CF96C03005B0F0E00F600D4256F
:1053EC0008242C19E419266008242C19E6193668AF
:1053FC001E430823EB18DB191E600300DB00D021D1
:10540C0008200918C9190B6013000733DB08DB00EF
:10541C006A46D31A9D4602AB0033A22149000822EA
:10542C008A18D1190B6090235B00FB181C688C2622
:10543C007600A31908229446BC4463441A881300CE
:10544C00013BA021490008200918C9190B603A64D6
:10545C0000237B64386C796C03005B0F0C00E40058
:10546C00CC250826AE19F619346008242C19E41939
:10547C0024681C430823EB18DB191C600300DB00B9
:10548C00C82108200918C9190B60BA630023FB63F3
:10549C00B86BF96B03005B0F9C460C00E400C42551
:1054AC002E000823ED18ED192C603400260008237B
:1054BC00E318DD192C6863461C43330008255B197F
:1054CC00DB191C600300DB00C02108200918C91976
:1054DC000B6013000733DB08DB006A46D31A9D46CA
:1054EC0002AB00339E22520008215218D2191360CD
:1054FC003F238C2676009B190822BA189A1807238A
:10550C0013703E239B190822BA189A181223137091
:10551C0062239B190822BA189A180023138007E1FA
:10552C0064238C2252009B180822BA189A18002364
:10553C0013803FE062238C2149005B1808229446BB
:10554C00BC4463441A8880235B18082084460820D6
:10555C008146B944CC4463441B689B181B781C00DF
:10556C0064260A00731808218C46BC4463441988CD
:10557C001500B31808229446BC4463441888794A31
:10558C0023009B011B1BD3185B5CA6246400082220
:10559C00A218D419226813542900731808229446AF
:1055AC00BC4463441B88721808218C46BC4462447A
:1055BC000133138064238C2149005B180822BA182C
:1055CC009A185A235B1808208446BC4463441288FA
:1055DC001B889A42AED366235B180822BA189A1815
:1055EC000023138030E066208C2464000319082209
:1055FC009446BC4463441A88A6256D000823EB1816
:10560C00DB191B689A5C031908218C46BC44634463
:10561C0019885C231B190826B446BC4463441B78C8
:10562C001340DBB20822AA18D2191268535403197A
:10563C0008229446BC4463441B88021908218C46FA
:10564C00BC4462440133138066238C2676009B197C
:10565C000822BA189A185A239B1908218C46BC4464
:10566C00634412881B889A42BDD35F208319082299
:10567C00BA189A183F239B1908218C46BC446344E2
:10568C0012781B78D318DBB2013BDCB28F256D008E
:10569C000823EB18DA193E218B1908218C46BC44DF
:1056AC00634412781B78D318DAB260218919082365
:1056BC00FB18CB181B78D31ADAB20823EB18DB19BA
:1056CC00197806008C235B00C5180823FB18EB180F
:1056DC001878A6256D000823EB18DD192B680193AB
:1056EC00FF23009313002200FDF72EFE8C204000B8
:1056FC0033180822BA18991833180822BA189A18AD
:10570C003F231B180824A446BC44634412781B781E
:10571C00D3180B706222131808218C46BC446344C6
:10572C001B88121808218C46BC4462440133138038
:10573C001E23FF3308229B18DB191B789AB26221B7
:10574C008C2040000B180824A446BC4463441B88DE
:10575C00934200D2E4E60B180822BA189A180023D8
:10576C00138020E0EC29010864238C2040001B18D6
:10577C0008229446BC4463441988A6235B00082283
:10578C009B18DB191A680023535462221318082142
:10579C008C46BC4463441B88121808218C46BC44BC
:1057AC0062440133138062238C2149005B18082268
:1057BC00BA189A185A235B1808218C46BC446344C7
:1057CC0012881B889A42CFD3C54661238C2676005B
:1057DC009B1908229446BC4463441B78022B01D0CD
:1057EC0001F02BF86B461D005A24A3190822BA1895
:1057FC009A1898235B0013807C60A31908229446A6
:10580C00BC4463441B8890225200BA181360902346
:10581C005B00FB181B68013B9C21490008228A187D
:10582C00D1190B6090235B00FB181B683B630023B2
:10583C007B63386B796B03005B0F0E00F600BC24A6
:10584C000822A218D21916600822A218D619366896
:10585C001E430823E318DB191E600300DB00B8218C
:10586C0008228A18D1190B6090235B00FB181B6867
:10587C00BB620023FB62B86AF96A03005B0F9C46AB
:10588C000E00F600B42422000823E418E419266064
:10589C00160032000823F318DC19266863461E43F1
:1058AC00130008229B18DB191E600300DB00B021DB
:1058BC0008228A18D1190B6090235B00FB181B6817
:1058CC000733DB08DB006A46D31A9D4602AB003374
:1058DC009A22520008215218D21913607C687C60FD
:1058EC008C267600A31908229446BC4463441B887A
:1058FC0090225200BA18136090235B00FB181B68AF
:10590C00013B9821490008228A18D1190B60902379
:10591C005B00FB181B683B6200237B62386A796A68
:10592C0003005B0F0E00F600AC240822A218D2195B
:10593C0016600822A218D61936681E430823E318ED
:10594C00DB191E600300DB00A82108228A18D1197C
:10595C000B6090235B00FB181B68BB610023FB6191
:10596C00B869F96903005B0F9C460E00F600A4248D
:10597C0022000823E418E4192660160032000823DC
:10598C00F318DC19266863461E43130008229B1883
:10599C00DB191E600300DB00A02108228A18D11934
:1059AC000B6090235B00FB181B680733DB08DB00E4
:1059BC006A46D31A9D4602AB003396225200082148
:1059CC005218D21913607C688C267600A319082211
:1059DC009446BC4463441B8890225200BA1813604E
:1059EC0090235B00FB181A68013A942149000823A4
:1059FC00CB18D9190A6090235B00FB181B683B611C
:105A0C0000227A61386979690200520F0C00E400B7
:105A1C009C260823F318DB191C600823F318DC19E7
:105A2C00246814430823F318DA1914600200D20016
:105A3C0098210823CB18D9190A6090235B00FB1816
:105A4C001B68BB600022FA60B868F9680200520F4C
:105A5C000C00E40094263E600823F618F619346016
:105A6C003C6823000826A419E619346814431A006C
:105A7C000823D318DA1914600200D20090210823ED
:105A8C00CB18D9190A6090235B00FB181B680733ED
:105A9C00DB08DB006A46D31A9D4602AB0033922228
:105AAC00520008215218D21913603F238C2676001D
:105ABC009B1908229446BC44634410221A703E235E
:105ACC009B1908229446BC44634426221A70622314
