:020000040800F2
:1000000000900020254600087B4400088544000835
:1000100000000000000000000000000000000000E0
:100020000000000000000000000000008B440008F9
:100030000000000000000000954400089F440008F4
:1000400075460008754600087546000875460008A4
:100050007546000875460008754600087546000894
:1000600075460008AD440008C5440008E94400088E
:100070007546000875460008754600087546000874
:100080007546000875460008754600087546000864
:1000900075460008754600087546000801450008C9
:1000A00075460008314500084945000875460008B6
:0C00B00061450008014600087546000884
:1000BC0010B5064C2378002B07D1054B002B02D032
:1000CC00044800E000BF0123237010BD4000002055
:1000DC000000000048C90008044B10B5002B03D0E9
:1000EC000349044800E000BF10BDC04600000000FA
:1000FC004400002048C90008002243088B4274D3F6
:10010C0003098B425FD3030A8B4244D3030B8B420C
:10011C0028D3030C8B420DD3FF22090212BA030C15
:10012C008B4202D31212090265D0030B8B4219D3F6
:10013C0000E0090AC30B8B4201D3CB03C01A524116
:10014C00830B8B4201D38B03C01A5241430B8B425E
:10015C0001D34B03C01A5241030B8B4201D30B0347
:10016C00C01A5241C30A8B4201D3CB02C01A52416E
:10017C00830A8B4201D38B02C01A5241430A8B4231
:10018C0001D34B02C01A5241030A8B4201D30B021A
:10019C00C01A5241CDD2C3098B4201D3CB01C01A34
:1001AC00524183098B4201D38B01C01A524143093E
:1001BC008B4201D34B01C01A524103098B4201D32C
:1001CC000B01C01A5241C3088B4201D3CB00C01A99
:1001DC00524183088B4201D38B00C01A5241430811
:1001EC008B4201D34B00C01A5241411A00D2014636
:1001FC00524110467047FFE701B5002000F006F8A9
:10020C0002BDC0460029F7D076E770477047C0465C
:10021C0080B582B000AF0200FB1D1A70FB1D1B786D
:10022C007F2B09D8FB1D1B781A001F231A40044B87
:10023C00012191400A001A60C046BD4602B080BD43
:10024C0000E100E090B583B000AF02003960FB1D07
:10025C001A70FB1D1B787F2B28D82F4AFB1D1B788F
:10026C005BB29B08C0339B009B58FA1D127811009F
:10027C0003220A40D200FF2191400A00D2431A40C7
:10028C0011003B689B01FF221A40FB1D1B781800D4
:10029C0003230340DB009A401F48FB1D1B785BB215
:1002AC009B080A43C0339B001A5031E01B4AFB1DCC
:1002BC001B7819000F230B40083B9B0806339B004F
:1002CC00D31804331B68FA1D1278110003220A405C
:1002DC00D200FF2191400A00D2431A4011003B6822
:1002EC009B01FF221A40FB1D1B78180003230340BF
:1002FC00DB009A400948FB1D1B781C000F23234090
:10030C00083B9B080A4306339B00C31804331A604E
:10031C00C046BD4603B090BD00E100E000ED00E03A
:10032C0080B582B000AF78607B681B6801221A43ED
:10033C007B681A60C046BD4602B080BD80B582B0F5
:10034C0000AF78607B681B68034A1A407B681A60B0
:10035C00C046BD4602B080BDFFFFFFDF80B586B052
:10036C0000AF78603960EFF31083BB60BB687B61D2
:10037C000123FB60FB6883F31088C0467B689B6895
:10038C00DB00DA083B685B071A437B689A607B6981
:10039C003B613B6983F31088C046C046BD4606B03E
:1003AC0080BD000080B586B000AF78603960EFF397
:1003BC001083BB60BB687B610123FB60FB6883F32C
:1003CC001088C0467B689B68084A1A403B685B06ED
:1003DC001A437B689A607B693B613B6983F31088A5
:1003EC00C046C046BD4606B080BDC046FFFFFFF10B
:1003FC0080B582B000AF78607B685B68074A1A40B2
:10040C007B685A607B689B682A2293431A007B683E
:10041C009A60C046BD4602B080BDC046FFB7FFFF24
:10042C0080B582B000AF78607B68DA6980239B036B
:10043C001A4080239B039A4201D1012300E0002340
:10044C001800BD4602B080BD80B582B000AF7860A8
:10045C007B68DA698023DB031A408023DB039A4232
:10046C0001D1012300E000231800BD4602B080BD7D
:10047C0080B586B000AF7860EFF31083BB60BB68CB
:10048C007B610123FB60FB6883F31088C0467B68AB
:10049C001B6820221A437B681A607B693B613B69AD
:1004AC0083F31088C046C046BD4606B080BD80B5FB
:1004BC0086B000AF7860EFF31083BB60BB687B61E4
:1004CC000123FB60FB6883F31088C0467B689B6844
:1004DC0001221A437B689A607B693B613B6983F319
:1004EC001088C046C046BD4606B080BD80B582B0FF
:1004FC0000AF78607B685B6A9BB2DB05DB0D9BB25F
:10050C001800BD4602B080BD80B582B000AF7860E7
:10051C00044B1968034B7A680A431A60C046BD46FF
:10052C0002B080BD0000014080B582B000AF7860A1
:10053C0039607B683A689A61C046BD4602B080BD9E
:10054C0080B582B000AF786039607B683A689A6297
:10055C00C046BD4602B080BD80B584B000AF7860A7
:10056C00074BD96B064B7A680A43DA63044BDB6B97
:10057C007A681340FB60FB68C046BD4604B080BD82
:10058C000010024080B584B000AF7860074B596B07
:10059C00064B7A680A435A63044B5B6B7A681340C8
:1005AC00FB60FB68C046BD4604B080BD0010024035
:1005BC0080B588B000AF1E23FB1800221A801C23C4
:1005CC00FB1800221A801A23FB1800221A80182309
:1005DC00FB1800221A801623FB18012252421A80A3
:1005EC0004F044F800F078F8354B5A6B344B012189
:1005FC000A435A63324B5B6B01221340FB60FB686E
:10060C002F4B5A6B2E4B02210A435A632C4B5B6BBC
:10061C0002221340BB60BB68294B5A6B284B042148
:10062C000A435A63264B5B6B042213407B607B6846
:10063C0000F0B0FB00F080FB00F086FA00F0AAF8A6
:10064C0000F088F900F036FB00F016F900F0D4F851
:10065C0000F03CF91B4B180004F0D6FA642004F0AF
:10066C008BF801F0FFFD00F05DFE012004F084F832
:10067C0000F0F4FE02F0D8FA01F002F903F004FBEA
:10068C00114B1A68104B11490A431A600E4B180093
:10069C00FFF7EEFE0C4B1800FFF709FF0A4B1A6A26
:1006AC00094B08210A431A62094B5A69084B40212D
:1006BC000A435A61074B1B78180002F017FBF9E745
:1006CC00001002405C000020004400400D1000109F
:1006DC0000080050FE03002090B593B000AF10242A
:1006EC003B19180038231A0000210CF01FF93B00AD
:1006FC00180010231A0000210CF018F980239B001D
:10070C00180006F043FE3B1902221A603B198022A6
:10071C005200DA6021007B1800221A617B184022FB
:10072C005A617B180222DA617B1802221A627B184A
:10073C0000225A627B1808229A627B18802292024D
:10074C00DA627B18802292041A637B18802292054D
:10075C005A637B18180006F065FE031E01D003F0E7
:10076C00C5FA3B0007221A603B0002225A603B008C
:10077C0000229A603B000022DA603B000221180044
:10078C0007F06AF9031E01D003F0B0FAC046BD466B
:10079C0013B090BD80B500AF154B164A1A60144BC0
:1007AC00802252001A61124B30225A61104B0022E7
:1007BC00DA610F4B00229A600D4B00229A610C4BB0
:1007CC00802292031A620A4B0022DA60084B002244
:1007DC005A60074B12225A62054B180004F0B2F80B
:1007EC00031E01D003F082FAC046BD4680BDC04650
:1007FC005C0000200002014080B500AF1B4B1C4A7E
:10080C001A601A4B1B4A5A60184B00229A60174BFD
:10081C000122DA60154B00221A61144B00225A6136
:10082C00124B00229A61114B0022DA610F4B00220D
:10083C001A620E4B180004F0A5FF031E01D003F042
:10084C0055FA0A4B0021180006F02EF9031E01D0B0
:10085C0003F04CFA054B0021180006F071F9031E49
:10086C0001D003F043FAC046BD4680BD8C00002089
:10087C00005400402C10941080B500AF114B124A5C
:10088C001A60104B802292005A600E4B00229A6024
:10089C000C4B0022DA600B4B802292001A61094B40
:1008AC00FA2292015A61074B00229A61054B1800FB
:1008BC0006F092F9031E01D003F018FAC046BD46AB
:1008CC0080BDC046E00000200030014080B500AF84
:1008DC001E4B0822DA611D4B1D4A1A601B4B8222EB
:1008EC0052005A60194B00229A60184BE022D20039
:1008FC00DA60164B00221A61144B00225A61134B1A
:10090C00802292009A61114B1022DA610F4B002267
:10091C001A620E4B00225A620C4B00229A620B4B4D
:10092C000722DA62094B00221A63084B08225A6329
:10093C00064B180007F03AFF031E01D003F0D6F95E
:10094C00024B0822DA61C046BD4680BD780100200A
:10095C000038004080B59EB000AF6823FB1818002B
:10096C0010231A0000210BF0E1FF5C23FB18180088
:10097C000C231A0000210BF0D9FF5023FB18180090
:10098C000C231A0000210BF0D1FF3423FB181800A4
:10099C001C231A0000210BF0C9FF3B001800342364
:1009AC001A0000210BF0C2FF644B654A1A60634BBE
:1009BC0000225A60614B00229A60604B614ADA60F7
:1009CC005E4B00221A615D4B00225A615B4B802208
:1009DC009A615A4B180009F0E9FA031E01D003F092
:1009EC0085F968217B18802252011A607A18534BC2
:1009FC001100180009F07CFD031E01D003F076F9FC
:100A0C004E4B180009F02AFB031E01D003F06EF9BF
:100A1C005C217B1800221A607B1800225A607B181C
:100A2C0000229A607A18454B110018000AF03AFA25
:100A3C00031E01D003F05AF950217B1802221A60D0
:100A4C007B1801225A607B1800229A607A183B4B63
:100A5C00012118000AF03AFB031E01D003F046F9FD
:100A6C0034217B1860221A607B18C8225A607B18CC
:100A7C0000229A607B180022DA607B1804221A612B
:100A8C007B1800225A617B1800229A6179182B4B33
:100A9C000022180009F02CFC031E01D003F026F9EB
:100AAC0034217B1832225A607918244B10221800FA
:100ABC0009F01EFC031E01D003F018F93B00802244
:100ACC0012011A603B008022D2005A603B000022C7
:100ADC009A603B000022DA603B00802252011A61CE
:100AEC003B00802292015A613B000A229A613B0032
:100AFC000022DA613B0000221A623B008022920441
:100B0C005A623B0000229A623B000022DA623B00F0
:100B1C008022D2011A633A00084B110018000AF027
:100B2C002FFA031E01D003F0E1F8044B180003F078
:100B3C0067FBC046BD461EB080BDC0469402002077
:100B4C00002C01407F02000090B59DB000AF5023F7
:100B5C00FB18180020231A0000210BF0E7FE3823A5
:100B6C00FB18180018231A0000210BF0DFFE3B1DA8
:100B7C00180034231A0000210BF0D8FE3B1D022272
:100B8C001A603B1D00229A603B1D180007F00EF9FD
:100B9C00031E01D003F0AAF880239B021800FFF774
:100BAC00DBFC0120FFF7EEFC38243B1904221A6011
:100BBC003B1902225A603B1903229A603B1900220E
:100BCC00DA603B1901221A613B1901225A613A1968
:100BDC00A023DB05110018000BF026FB21007B186D
:100BEC0008221A607B1802225A607B1803229A6032
:100BFC007B180022DA607B1801221A617B18012213
:100C0C005A617A18A023DB05110018000BF00CFBBD
:100C1C0000211C20FFF716FB1C20FFF7F9FA5021CE
:100C2C007B1800221A607B18E12212025A607B1892
:100C3C00802252019A607B180022DA607B18002215
:100C4C001A617B180C225A617B1800229A617B185E
:100C5C000022DA617B18164A190010000BF0B4FD63
:100C6C00134B00211800FFF779FB114B00211800E2
:100C7C00FFF798FB0E4B1800FFF760FB0C4B1800AE
:100C8C00FFF7B6FB0A4B1800FFF74AFBC046084BB0
:100C9C001800FFF7C5FB031EF9D0054B1800FFF732
:100CAC00D3FB031EF3D0C046C046BD461DB090BD5D
:100CBC000044004080B500AF1C4B5A681B4B802190
:100CCC0009030A435A601A4B184A1A60184B194AFE
:100CDC005A60174B00229A60154B0022DA60144BB5
:100CEC0000221A61124B08225A61114B8022D20049
:100CFC009A610F4B80229200DA610D4B80225200D8
:100D0C001A620B4B00225A62094B00221A64084BE0
:100D1C0018000AF087FA031E01D002F0E7FF044B1B
:100D2C00044A5A60C046BD4680BDC04600480040DB
:100D3C00E002002000127A0080B582B000AF144BA4
:100D4C009A6B134B01210A439A63114B9B6B012243
:100D5C0013407B607B6800220021092004F052F8CC
:100D6C00092004F064F8002200210A2004F04AF85B
:100D7C000A2004F05CF8002200210B2004F042F859
:100D8C000B2004F054F8C046BD4602B080BDC046EE
:100D9C000010024080B586B000AF3B00180018234D
:100DAC001A0000210BF0C2FD0220FFF7EBFB042020
:100DBC00FFF7E8FB0120FFF7E5FB80239B00A04A2F
:100DCC0019001000FFF7B0FB8023DB019D4A1900CE
:100DDC001000FFF7A9FB80231B029A4A1900100090
:100DEC00FFF7A2FBA023DB0540211800FFF79CFBBB
:100DFC00A023DB0580211800FFF796FB914B4021C7
:100E0C001800FFF791FB80231A01A023DB051100CA
:100E1C001800FFF795FB80235A01A023DB05110076
:100E2C001800FFF78DFB3B00802292001A603B00FC
:100E3C0001225A603B0003229A603B000022DA60D8
:100E4C003B0001221A613B007D4A190010000BF097
:100E5C00EBF93B008022D2011A603B0001225A6060
:100E6C003B0000229A603B000022DA603B0001222A
:100E7C001A613B00734A190010000BF0D5F93B00C6
:100E8C00802212021A603B0001225A603B000022B1
:100E9C009A603B000022DA603B0001221A613B00A1
:100EAC00684A190010000BF0BFF93B0001221A60D0
:100EBC003B0000225A603B0001221A613A00A02339
:100ECC00DB05110018000BF0AFF93B0002221A6091
:100EDC003B0000225A603B0001221A613A00A02319
:100EEC00DB05110018000BF09FF93B0010221A6073
:100EFC003B0000225A603B0001221A613A00A023F9
:100F0C00DB05110018000BF08FF93B0040221A6032
:100F1C003B0001225A603B0003229A603B000022F6
:100F2C00DA603B0000221A613A00A023DB051100B5
:100F3C0018000BF079F93B0080221A603B0001226B
:100F4C005A603B0003229A603B000022DA603B00AF
:100F5C0000221A613A00A023DB05110018000BF0E7
:100F6C0063F93B0040221A603B0001225A603B00AF
:100F7C0003229A603B000022DA603B0001221A61D6
:100F8C003B00304A190010000BF04EF93B00802258
:100F9C0012011A603B0001225A603B0003229A6046
:100FAC003B000022DA603B0000221A613A00A023C9
:100FBC00DB05110018000BF037F93B0080225201C1
:100FCC001A603B0001225A603B0003229A603B00EE
:100FDC000022DA603B0000221A613A00A023DB05F4
:100FEC00110018000BF020F93B00802292011A60CE
:100FFC003B0000225A603B0001221A613A00A023F8
:10100C00DB05110018000BF00FF93B008022D20118
:10101C001A603B0000225A603B0001221A613A0020
:10102C00A023DB05110018000BF0FEF880231B0336
:10103C001800FFF769FAC046BD4606B080BDC04631
:10104C00000400500008005080B500AF144B18008D
:10105C00FFF74CFA03001A00124B1A80124B0122B4
:10106C001A70104B1B881A0080235B0013400AD0A7
:10107C000C4B1B88DAB20D4B1A700D4B00221A80E8
:10108C000C4B01221A700B4B1B78012B04D1054B16
:10109C001B88180000F0AAF8C046BD4680BDC046AB
:1010AC0000440040FA030020F8030020C80300208D
:1010BC00FC030020F903002080B582B000AF7860FB
:1010CC001C4B1B78112B16D1A023DB055A69A023CE
:1010DC00DB0540218A435A61A023DB055A69A02312
:1010EC00DB0580210A435A61134B1A881349144BB0
:1010FC0018000AF0A5F90F4B1B78122B16D1A02360
:10110C00DB055A69A023DB0540218A435A61A023E1
:10111C00DB055A69A023DB0580210A435A61064B83
:10112C001A880649064B18000AF08AF9C046BD46D3
:10113C0002B080BDFF030020020400200404002044
:10114C00E002002080B582B000AF7860054B5A6990
:10115C00044B802189000A435A61C046BD4602B047
:10116C0080BDC0460004005080B582B000AF7860EE
:10117C00C046114BDB6980221340FAD0A023DB055B
:10118C005A69A023DB0580218A435A61A023DB0521
:10119C005A69A023DB0540210A435A61074B002200
:1011AC001A70074B5A69064B40210A435A61C046D4
:1011BC00BD4602B080BDC04600480040FE03002082
:1011CC000008005080B582B000AF786001F080FC60
:1011DC00C046BD4602B080BD80B582B000AF78601D
:1011EC0001F080FCC046BD4602B080BD80B584B025
:1011FC0000AF0200BB1D1A800F23FB1800221A70CF
:10120C00C046394B1B78002BFBD0374B00221A7091
:10121C00364B1B881A00BB1D1B88D9B2344B995412
:10122C00324B1B8801339AB2304B1A802F4B1B88E0
:10123C00002B4FD02D4B1B881A002D4B5B780133A4
:10124C009A4247DD0F23FB1800221A700FE00F2182
:10125C007B181B78264AD25C264B1B78D318DAB243
:10126C00244B1A707B181A787B1801321A70204B99
:10127C005B785A1C0F217B181B789A42E7DA1D4BBE
:10128C001B78002B22D0194B1B881A00184B5B784B
:10129C0002339A421AD1184B00221A707B18002282
:1012AC001A700AE00F203B181B78114A0021D15408
:1012BC003B181A783B1801321A700D4B5B785A1C8C
:1012CC000F23FB181B789A42ECDA03E0084B18004A
:1012DC0000F060FB094B1A6A084B08210A431A629A
:1012EC00C046BD4604B080BDF8030020FC030020BE
:1012FC00C803002001040020F90300200044004032
:10130C0080B582B000AF0200FB1D1A70F91D0448B5
:10131C000A23012209F0D6FFC046BD4602B080BDAB
:10132C00E002002080B500AF4A4B1A68494B0121FE
:10133C008A431A60474B5A68464B802109030A437B
:10134C005A60444B1A68434B01210A431A6001202E
:10135C0003F012FA012003F00FFA3F4B00211800A2
:10136C0008F0DCFE012003F007FAA023DB055A6924
:10137C00A023DB0540218A435A61A023DB055A696F
:10138C00A023DB0580218A435A61AF20FFF7B8FF09
:10139C00B820FFF7B5FF0020FFF7B2FF0020FFF7E2
:1013AC00AFFF0120FFF7ACFF0220FFF7A9FF0420DD
:1013BC00FFF7A6FF0720FFF7A3FF0B20FFF7A0FF07
:1013CC000E20FFF79DFF1220FFF79AFF1720FFF763
:1013DC0097FF1B20FFF794FF2120FFF791FF282098
:1013EC00FFF78EFF3120FFF78BFF3F20FFF788FFC1
:1013FC00A020FFF785FF5120FFF782FF8120FFF728
:10140C007FFFFF20FFF77CFFA120FFF779FF002073
:10141C00FFF776FFA220FFF773FF0020FFF770FFA6
:10142C00A820FFF76DFF7F20FFF76AFFA023DB05E5
:10143C005A69A023DB0580210A435A61A023DB05EE
:10144C005A69A023DB0540210A435A61C046BD46B8
:10145C0080BDC046004800409402002080B582B098
:10146C0000AFA023DB055A69A023DB0540218A438A
:10147C005A61A023DB055A69A023DB0580218A432E
:10148C005A617520FFF73CFF0020FFF739FF7F20E2
:10149C00FFF736FF1520FFF733FF0020FFF730FF73
:1014AC007F20FFF72DFFA023DB055A69A023DB0566
:1014BC0040218A435A61A023DB055A69A023DB052E
:1014CC0080210A435A61BB1D00221A800DE0C046E0
:1014DC00124BDB6980221340FAD0104B00229A6227
:1014EC00BB1D1A88BB1D01321A80BB1D1B880C4A00
:1014FC009342ECD9A023DB055A69A023DB0580219C
:10150C008A435A61A023DB055A69A023DB054021DD
:10151C000A435A61C046BD4602B080BD0048004037
:10152C0001200000F0B585B000AF05000C001000E4
:10153C001900FB1D2A1C1A70BB1D221C1A707B1D66
:10154C00021C1A703B1D0A1C1A700E243B19002237
:10155C001A80FB1D1B785BB2002B00DAC2E0BB1DAE
:10156C001B785BB2002B00DABCE07B1D1B785BB2F6
:10157C00002B00DAB6E03B1D1B785BB2002B00DAC7
:10158C00B0E00D257B19FA1D12781A700C26BB19C8
:10159C003A1D12787F218A1A1A700B23FB187A1DB8
:1015AC0012781A700A22BB18BA1D12787F218A1A77
:1015BC001A70A023DB055A69A023DB0540218A435E
:1015CC005A61A023DB055A69A023DB0580218A43DD
:1015DC005A617520FFF794FE7B191B781800FFF7F2
:1015EC008FFE0B23FB181B781800FFF789FE1520C4
:1015FC00FFF786FEBB191B785B08DBB21800FFF700
:10160C007FFE0A22BB181B785B08DBB21800FFF7C1
:10161C0077FEA023DB055A69A023DB0580210A4352
:10162C005A61A023DB055A69A023DB0540210A433C
:10163C005A61A023DB055A69A023DB0540218A43AC
:10164C005A61A023DB055A69A023DB0580210A43DC
:10165C005A613B1900221A8012E0C046234BDB6909
:10166C0080221340FAD00E217B181B88FA6AD318FB
:10167C001A781E4B9A627B181A887B1801321A80D2
:10168C000B23FB181A780D23FB181B78D31A013384
:10169C000A22BA1812785208D2B211000C22BA18C7
:1016AC0012785208D2B28A1A01325A430E23FB180E
:1016BC001B889A42D1DAC0460C4BDB69802213405E
:1016CC00FAD0A023DB055A69A023DB0580218A43CD
:1016DC005A61A023DB055A69A023DB0540210A438C
:1016EC005A6100E0C046BD4605B0F0BD0048004060
:1016FC00F0B585B000AF05000C0010001900FB1D03
:10170C002A1C1A70BB1D221C1A707B1D021C1A701D
:10171C003B1D0A1C1A700E23FB1800221A80FB1D9D
:10172C001B785BB2002B66DBBB1D1B785BB2002BFE
:10173C0061DB7B1D1B785BB2002B5CDB3B1D1B78DC
:10174C005BB2002B57DB0D243B19FA1D12781A7073
:10175C000C257B193A1D12787F218A1A1A700B26D8
:10176C00BB197A1D12781A700A23FB18BA1D12784D
:10177C007F218A1A1A70A023DB055A69A023DB0586
:10178C0040218A435A61A023DB055A69A023DB055B
:10179C0080218A435A617520FFF7B2FD3B191B78F3
:1017AC001800FFF7ADFDBB191B781800FFF7A8FD5B
:1017BC001520FFF7A5FD7B191B785B08DBB2180021
:1017CC00FFF79EFD0A23FB181B785B08DBB21800A1
:1017DC00FFF796FDA023DB055A69A023DB058021CA
:1017EC000A435A61A023DB055A69A023DB0540217B
:1017FC000A435A6100E0C046BD4605B0F0BD00008A
:10180C0080B586B002AF0200FB1D1A700C217B184C
:10181C0000221A707B18FA1D12785A707A18064832
:10182C00FA239B0000930223302104F041F8C046B8
:10183C00BD4604B080BDC0468C00002080B586B08B
:10184C0002AF0200FB1D1A70BB1D0A1C1A700C2182
:10185C007B18FA1D12781A707B18BA1D12785A7000
:10186C007A180648FA239B0000930223302104F0D7
:10187C001FF8C046BD4604B080BDC0468C00002099
:10188C0080B500AF0020FFF7BBFF01210120FFF75F
:10189C00D5FF0120FFF7B4FF00210220FFF7CEFF98
:1018AC000F2002F069FF0020FFF7AAFF032104209C
:1018BC00FFF7C4FF91210520FFF7C0FF042106208C
:1018CC00FFF7BCFF00210720FFF7B8FF002108201D
:1018DC00FFF7B4FF0F2002F04FFF84210B20FFF71E
:1018EC00ADFF82210C20FFF7A9FF00210D20FFF78F
:1018FC00A5FF80210E20FFF7A1FF00211B20FFF781
:10190C009DFF00211C20FFF799FF02213C20FFF7CF
:10191C0095FF0120FFF774FF10210120FFF78EFFC8
:10192C0000210A20FFF78AFF00210C20FFF786FF19
:10193C0000211620FFF782FF00211820FFF77EFF01
:10194C0000211920FFF77AFF00210920FFF776FF0D
:10195C0000211020FFF772FF00212E20FFF76EFFF1
:10196C0010213020FFF76AFF02212D20FFF766FFC0
:10197C000020FFF745FF90213F20FFF75FFF00217C
:10198C004120FFF75BFF04214020FFF757FFC046C3
:10199C00BD4680BD80B584B000AF78600F23FB18C6
:1019AC00FF221A700D23FB1800221A70D74B01224C
:1019BC001A70D74B00221A707B681A787B681A70E1
:1019CC007B681B78112B0FD07B681B78122B0BD0EC
:1019DC007B681B78132B07D07B681B78142B03D0E8
:1019EC007B681B78152B05D1CA4B5A69C94B402112
:1019FC008A435A617B681B78112B05D1C54B5A69F8
:101A0C00C44B40218A435A617B681B788022524226
:101A1C001343DBB29AB2C04B1A807B681B780F2B36
:101A2C0000D85EE17B681B78152B00D959E1A02307
:101A3C00DB051B691022134006D10F22BB18BA1804
:101A4C00127801218A431A70A023DB051B6902223C
:101A5C00134006D10F22BB18BA18127802218A4300
:101A6C001A70A023DB051B690122134006D10F223B
:101A7C00BB18BA18127804218A431A70A023DB050C
:101A8C001A6980239B01134006D10F22BB18BA1888
:101A9C00127808218A431A70A023DB051A69802367
:101AAC00DB01134006D10F22BB18BA181278102193
:101ABC008A431A700F217B187A181278D2431A7045
:101ACC000C203B1804221A703B181B789BB2023B6B
:101ADC009AB2914B5A807B181B789AB28E4B9A8093
:101AEC000E23FB1800221A7011E00E203B181A78F6
:101AFC00894B5200D35AD9B20D22BB18BA1812789E
:101B0C008A181A703B181A783B1801321A700E207A
:101B1C003B181A780C23FB181B78013B9A42E4DB28
:101B2C000D217B187A18127852421A707B181B7888
:101B3C009AB2794BDA803B1800221A70C046774B68
:101B4C00DB6980221340FAD0734B1B888022520031
:101B5C0013439AB2714B9A620E23FB1801221A702E
:101B6C0013E0C0466D4BDB6980221340FAD00E2186
:101B7C007B181A78684B5200D35ADAB2674B9A62C8
:101B8C007B181A787B1801321A700E23FA180C2362
:101B9C00FB1812781B789A42E3D3604B1A685F4BA0
:101BAC0004210A431A60594B00221A707B681B7877
:101BBC00102B02D1564B10221A707B681B78112BFC
:101BCC0009D17B689A78564B1A70514B11221A70B6
:101BDC00544B00221A707B681B78122B15D17B6832
:101BEC0002331B781A00504B1A607B6803331B7846
:101BFC001A004E4B1A607B681A79494B1A70444B89
:101C0C0012221A70474B00221A707B681B78132B18
:101C1C0040D17B6802331B781A00434B1A607B68F7
:101C2C0003331B781A00414B1A607B681A79404BBE
:101C3C001A703F4B1B78102252421343DAB23D4BC1
:101C4C001A707B6801331B78043BDAB23A4B1A707A
:101C5C000E23FB1800221A700FE00E203B181B7885
:101C6C0005337A68D2183B181B781178334AD15453
:101C7C003B181A783B1801321A702F4B1B780E2226
:101C8C00BA1812789A42E8D3214B13221A70254BBA
:101C9C0000221A707B681B78142B09D17B689A7808
:101CAC00274B1A701A4B14221A701E4B00221A70F2
:101CBC007B681B78152B0DD17B689A78214B1A7099
:101CCC007B68DA78204B1A70114B15221A70154B61
:101CDC0000221A707B681B78162B02D1114B002244
:101CEC001A707B681B78002B00D09FE00C217B18AE
:101CFC0014221A707B181B789BB2023B9AB2064BCB
:101D0C005A800E23FB1800221A7030E09C0300202E
:101D1C00FE03002000080050E403002000440040B3
:101D2C009D03002000040020A4030020A803002031
:101D3C000424002005240020A2030020B00300206E
:101D4C009E0300209F030020A00300200E203B18C0
:101D5C001B78CB4AD15C3B181B789A1C89B2C94BB7
:101D6C005200D1523B181A783B1801321A700E22CD
:101D7C00BB181B78102BE9D9BB1800221A7011E084
:101D8C000E203B181A78BF4B5200D35AD9B20D22F1
:101D9C00BB18BA1812788A181A703B181A783B18A4
:101DAC0001321A700E23FB181A780C203B181B7882
:101DBC00013B9A42E4DB0D217B187A1812785242CF
:101DCC001A703B181B785A1E7B181B7899B2AD4BB6
:101DDC005200D152C046AC4BDB6980221340FAD082
:101DEC00A84B1B888022520013439AB2A64B9A62CE
:101DFC0014E00E217B181A787B1801321A70C04639
:101E0C00A14BDB6980221340FAD00E23FB181A7801
:101E1C009C4B5200D35ADAB29B4B9A620E23FB189E
:101E2C001A78984B5200D35A002BE2D17B681B785E
:101E3C00012B00D07FE00C217B180B221A707B1831
:101E4C001B789BB2023B9AB28E4B5A800E23FB1826
:101E5C0000221A7010E00E203B181B788B4AD15CC4
:101E6C003B181B789A1C89B2864B5200D1523B18F6
:101E7C001A783B1801321A700E22BB181B78102BE3
:101E8C00E9D9BB1800221A7011E00E203B181A7801
:101E9C007C4B5200D35AD9B20D22BB18BA18127807
:101EAC008A181A703B181A783B1801321A700E23D4
:101EBC00FB181A780C203B181B78013B9A42E4DB88
:101ECC000D217B187A18127852421A703B181B7825
:101EDC005A1E7B181B7899B26A4B5200D152C046DD
:101EEC00694BDB6980221340FAD0664B1B88802239
:101EFC00520013439AB2644B9A6214E00E217B1881
:101F0C001A787B1801321A70C0465F4BDB6980224D
:101F1C001340FAD00E23FB181A785A4B5200D35A9E
:101F2C00DAB2594B9A620E23FB181A78554B5200B1
:101F3C00D35A002BE2D17B681B78022B00D07FE0B8
:101F4C000C217B1813221A707B181B789BB2023B56
:101F5C009AB24C4B5A800E23FB1800221A7010E0D8
:101F6C000E203B181B784A4AD15C3B181B789A1CF4
:101F7C0089B2444B5200D1523B181A783B180132AB
:101F8C001A700E22BB181B78102BE9D9BB18002233
:101F9C001A7011E00E203B181A783A4B5200D35AA3
:101FAC00D9B20D22BB18BA1812788A181A703B18BD
:101FBC001A783B1801321A700E23FB181A780C2071
:101FCC003B181B78013B9A42E4DB0D217B187A18F5
:101FDC00127852421A703B181B785A1E7B181B78C9
:101FEC0099B2284B5200D152C046274BDB69802254
:101FFC001340FAD0234B1B888022520013439AB211
:10200C00214B9A6214E00E217B181A787B1801324E
:10201C001A70C0461C4BDB6980221340FAD00E2389
:10202C00FB181A78174B5200D35ADAB2164B9A6235
:10203C000E23FB181A78134B5200D35A002BE2D103
:10204C007B681B78032B00D07CE00C217B180422CE
:10205C001A707B181B789BB2023B9AB2094B5A80C0
:10206C000C4B1B789AB2074B9A800D23FB181B78EC
:10207C009AB2044BDA800E23FB1800221A701DE072
:10208C0000000020E4030020004400401400002065
:10209C00200000201C0000200E203B181A786D4BED
:1020AC005200D35AD9B20D22BB18BA1812788A181A
:1020BC001A703B181A783B1801321A700E23FB1851
:1020CC001A780C203B181B78013B9A42E4DB0D215B
:1020DC007B187A18127852421A703B181B785A1EC9
:1020EC007B181B7899B25B4B5200D152C0465A4BAD
:1020FC00DB6980221340FAD0564B1B888022520099
:10210C0013439AB2544B9A6214E00E217B181A783E
:10211C007B1801321A70C0464F4BDB69802213408A
:10212C00FAD00E23FB181A784A4B5200D35ADAB263
:10213C00494B9A620E23FB181A78464B5200D35A1D
:10214C00002BE2D17B681B78042B00D076E00C21AD
:10215C007B1804221A707B181B789BB2023B9AB234
:10216C003C4B5A807B6802331B781A003B4B1A603D
:10217C003B4B1B789AB2374B9A800D23FB181B787C
:10218C009AB2344BDA800E23FB1800221A7011E03D
:10219C000E203B181A782F4B5200D35AD9B20D226D
:1021AC00BB18BA1812788A181A703B181A783B1890
:1021BC0001321A700E23FB181A780C203B181B786E
:1021CC00013B9A42E4DB0D217B187A1812785242BB
:1021DC001A703B181B785A1E7B181B7899B21D4B32
:1021EC005200D152C0461C4BDB6980221340FAD0FE
:1021FC00184B1B888022520013439AB2164B9A62DA
:10220C0014E00E217B181A787B1801321A70C04624
:10221C00114BDB6980221340FAD00E23FB181A787D
:10222C000C4B5200D35ADAB20B4B9A620E23FB18AA
:10223C001A78084B5200D35A002BE2D1064B1A6A7B
:10224C00054B08210A431A62C0461800BD4604B06B
:10225C0080BDC046E403002000440040AC030020D5
:10226C00A103002080B582B000AF012002F084FAF7
:10227C00284B5A69274B28490A405A61FB1D662294
:10228C001A70F91D25480523012206F047FB214B46
:10229C005A69204B802189000A435A61C046C046C6
:1022AC00C046C046C046C0461A4B5A69194B1A491B
:1022BC000A405A61FB1D99221A70F91D1748052313
:1022CC00012206F02BFB134B5A69124B802189001B
:1022DC000A435A61012002F04FFAFB1DB7221A7013
:1022EC000C4B5A690B4B0C490A405A61F91D0B48AF
:1022FC000523012206F012FB064B5A69054B80217F
:10230C0089000A435A61012002F036FAC046BD46E4
:10231C0002B080BD00040050FFFDFFFF78010020DB
:10232C0090B587B000AF0200FB1D1A70314B5A6993
:10233C00304B40218A435A617F237F2200210020A9
:10234C00FFF7D6F92C4B802292011A802A4B1A885F
:10235C002A4B1A8013203B1813221A70FB1D1B7872
:10236C005B037B617B69DAB20C243B191A707B69C5
:10237C001B0ADAB23B195A707B691B0CDAB23B1997
:10238C009A707B691B0EDAB23B19DA701C4B5A69D6
:10239C001B4B1C490A405A6139181B483223012235
:1023AC0006F0BCFA3B19D91C17483223012206F05F
:1023BC00B5FA3B19991C14483223012206F0AEFAE7
:1023CC003B19591C10483223012206F0A7FA39197F
:1023DC000D483223012206F0A1FA074B1A880B494B
:1023EC00094B180006F010FFC0461800BD4607B098
:1023FC0090BDC046000800500204002030000020B0
:10240C0000040050FFFDFFFF7801002004040020B1
:10241C00F0B589B000AF040008001100FB1D221CB0
:10242C001A70BB1D021C1A707B1D0A1C1A7000232B
:10243C00FB6113203B1813221A70FB1D1B78013310
:10244C00FF335B03FB61FB69DAB20C243B191A7096
:10245C00FB691B0ADAB23B195A70FB691B0CDAB226
:10246C003B199A70FB691B0EDAB23B19DA70664B9A
:10247C005A69654B65490A405A61391864483223D8
:10248C00012206F04BFA3B19D91C61483223012278
:10249C0006F044FA3B19991C5D483223012206F0E0
:1024AC003DFA3B19591C5A483223012206F036FAE0
:1024BC00391957483223012206F030FA554B1024B3
:1024CC0039195348022206F081FB4F4B5A694E4B87
:1024DC00802189000A435A611B23FB183A19127890
:1024EC001A701A23FB183A1952781A7019217B1892
:1024FC0001221A707B1D1B7801221340DBB2002BCA
:10250C0002D07B1802221A7019217B1801221A7032
:10251C00BA1D1B257B1912781B78D318DBB2013B33
:10252C00DCB27A1D1A26BB1912781B78D318DAB2D2
:10253C007B181B78D31ADAB27B1D1978BB1D18785F
:10254C0013002200FFF7D4F8FB6902337B617B197F
:10255C001B78BA1912785343002B00DA01335B1045
:10256C009AB22D4B1A807B69DAB20C243B191A7083
:10257C007B691B0ADAB23B195A707B691B0CDAB205
:10258C003B199A707B691B0EDAB23B19DA70234B3C
:10259C001A6A224B08210A431A6213203B18132291
:1025AC001A70194B5A69184B18490A405A61391854
:1025BC0017483223012206F0B1F93B19D91C1448F3
:1025CC003223012206F0AAF93B19991C1048322338
:1025DC00012206F0A3F93B19591C0D4832230122A4
:1025EC0006F09CF939190A483223012206F096F9B3
:1025FC00094B1A880A49064B180006F005FEC0461E
:10260C001800BD4609B0F0BD00040050FFFDFFFFEF
:10261C0078010020881300000204002000440040D0
:10262C000404002090B58DB000AF0200FB1D1A70A1
:10263C002B23FB1813221A70FB1D1A781300DB00D6
:10264C009B188022D20394466344FB60A34B002268
:10265C001A600023FB62A24B00221A7000233B611C
:10266C009F4B1B78012B09D19E4B00221A709E4B5D
:10267C005A699D4B40210A435A610EE2974B1B68E5
:10268C00002B00D0B1E0FB68DAB21C243B191A70A5
:10269C00FB681B0ADAB23B195A70FB681B0CDAB2E6
:1026AC003B199A70FB681B0EDAB23B19DA708F4B30
:1026BC005A698E4B8E490A405A612B23F9188D4862
:1026CC003223012206F02AF93B19D91C89483223FE
:1026DC00012206F023F93B19991C8648322301226A
:1026EC0006F01CF93B19591C82483223012206F0D2
:1026FC0015F939197F483223012206F00FF97E4B68
:10270C00202439197B48092206F060FA774B5A6964
:10271C00764B802189000A435A6121007B181A7973
:10272C0018203B181A707B18DA783B185A707B18F3
:10273C009A783B189A707B185A783B18DA703B18C9
:10274C00DB781A00FB681343FB60FB681B02FB6021
:10275C003B189B781A00FB681343FB60FB681B0259
:10276C00FB603B185B781A00FB681343FB60FB684B
:10277C001B02FB603B181B781A00FB681343FB60C1
:10278C007B181A7A14203B181A707B18DA793B18CC
:10279C005A707B189A793B189A707B185A790100F9
:1027AC007B18DA707B18DB781A00FB6A1343FB6228
:1027BC00FB6A1B02FB627B189B781A00FB6A1343B3
:1027CC00FB62FB6A1B02FB627B185B781A00FB6ADC
:1027DC001343FB62FB6A1B02FB627B181B781A001B
:1027EC00FB6A1343FB6200F012FA444B1B8819007E
:1027FC00F86AFDF781FC03001A00414B1A603F4B4D
:10280C001B885B089AB23F4B1A80384B5A69374B7E
:10281C0037490A405A612B23F918364832230122D2
:10282C0006F07CF818243B19D91C324832230122BB
:10283C0006F074F83B19991C2E483223012206F03D
:10284C006DF83B19591C2B483223012206F066F80F
:10285C00391928483223012206F060F8274B1A88D0
:10286C00254B2949234806F0B1F9204B5A691F4BD7
:10287C00802189000A435A61FB683B61214B1A880D
:10288C002149224B180004F09DFA214B01221A70A9
:10289C00F2E01B4B1B685A1E104B1B689A420BD163
:1028AC00164B1B881A00FB6A11001800FDF7AAFCD6
:1028BC000B009AB2134B1A80094B1B78012B29D1B0
:1028CC00124B180004F02AFB064B00221A70064B20
:1028DC005A69054B40210A435A61DEE00824002066
:1028EC0013280020FE0300200008005000040050B4
:1028FC00FFFDFFFF7801002088130000320000204C
:10290C000C2400201028002010240020E0000020BF
:10291C0012280020634B1B78022B52D1624B1B8870
:10292C001A003B69D3183B613B69DAB218243B1996
:10293C001A703B691B0ADAB23B195A703B691B0CC3
:10294C00DAB23B199A703B691B0EDAB23B19DA709A
:10295C00564B5A69554B56490A405A612B23F91864
:10296C0054483223012205F0D9FF3B19D91C514898
:10297C003223012205F0D2FF3B19991C4D4832231A
:10298C00012205F0CBFF3B19591C4A483223012286
:10299C0005F0C4FF391947483223012205F0BEFF68
:1029AC00414B1A88444B4549424806F00FF93F4BBE
:1029BC005A693E4B802189000A435A61394B0122E6
:1029CC001A70384B1B78002B56D1374B1B881A00CA
:1029DC003B69D3183B613B69DAB218243B191A7076
:1029EC003B691B0ADAB23B195A703B691B0CDAB211
:1029FC003B199A703B691B0EDAB23B19DA702B4B00
:102A0C005A692A4B2A490A405A612B23F91829483A
:102A1C003223012205F082FF3B19D91C25483223B1
:102A2C00012205F07BFF3B19991C2248322301221D
:102A3C0005F074FF3B19591C1E483223012205F086
:102A4C006DFF39191B483223012205F067FF164B25
:102A5C001B881A00194BD118134B1A88164B1548A2
:102A6C0006F0B4F8114B5A69104B802189000A43C7
:102A7C005A610C4B01221A70114B1A68114B1B68CE
:102A8C009A4200D805E7104B00221A700F4B5A6976
:102A9C000E4B40210A435A61C0461800BD460DB08A
:102AAC0090BDC046122800201028002000040050C1
:102ABC00FFFDFFFF78010020881300001024002088
:102ACC00082400200C240020FE03002000080050E5
:102ADC0080B500AF024B02221A70C046BD4680BDC5
:102AEC001228002080B500AF154B1A68154B1B68D7
:102AFC009A420FD2144B1A881449154B180004F043
:102B0C0061F9144B00221A700D4B1B685A1C0C4BAC
:102B1C001A6013E00E4B180004F000FA0E4B012261
:102B2C001A700E4B00221A700A4B03221A700C4BAF
:102B3C005A690B4B40210A435A61C046BD4680BDC1
:102B4C00082400200C240020102800201024002031
:102B5C00E00000201228002013280020FE03002093
:102B6C000008005090B585B000AF040008001100BB
:102B7C00FB1D221C1A70BB1D021C1A707B1D0A1C2B
:102B8C001A700F217B1800221A707B1D1B781A1CDF
:102B9C005201D21A9200D31ADB18DAB20C007B184D
:102BAC0074321A70FB1D50221A70BB1D30221A7021
:102BBC000020FEF725FEBB1D1B7819004120FEF7F7
:102BCC003DFE0120FEF71CFE00211020FEF736FE14
:102BDC003B191B7819002E20FEF730FEFB1D1B78CD
:102BEC0019003020FEF72AFE032001F0C5FDC04677
:102BFC00BD4605B090BD80B500AF0120FEF700FECC
:102C0C0000212D20FEF71AFEC046BD4680BD80B5C2
:102C1C0000AF0120FEF7F4FD02212D20FEF70EFE81
:102C2C00C046BD4680BD000080B582B000AF3B1DE4
:102C3C00294A12781A70FB1D9E221A70274B5A696A
:102C4C00264B27490A405A61F91D26483223012296
:102C5C0005F064FEFA239B00391D2248012205F081
:102C6C00B5FF3B1D1B781A001F4B1A601E4B1B68CF
:102C7C001A021D4B1A60FA239B00391D19480122B8
:102C8C0005F0A4FF3B1D1B781A00174B1B68D218CC
:102C9C00154B1A60144B1B681A02134B1A60FA235B
:102CAC009B00391D0F48012205F090FF3B1D1B783E
:102CBC001A000D4B1B68D2180B4B1A60074B5A6944
:102CCC00064B802189000A435A61074B1B68180088
:102CDC00BD4602B080BDC04660C90008000400506B
:102CEC00FFFDFFFF78010020C403002090B585B0E4
:102CFC0002AF0200FB1D1A70FB1D1B78102B00D1BC
:102D0C00D1E06D4B1B78002B00D0CEE0FB1D1B7867
:102D1C00002B00D1CBE0694B1A6A684B08210A439F
:102D2C001A62FB1D1B78112B17D1654B5A69644B2A
:102D3C0040218A435A61604B11221A70614B112257
:102D4C001A70614B1B781800FFF7EAFA5B4B1A6A92
:102D5C005A4B08210A431A62AAE0FB1D1B78122B5E
:102D6C0017D1554B12221A70564B12221A70564B11
:102D7C001878564B1B68D9B2554B1B68DBB21A003E
:102D8C00FFF746FB4D4B1A6A4C4B08210A431A625B
:102D9C008EE0FB1D1B78132B15D1474B13221A7099
:102DAC00484B13221A70494B1B68D8B2484B1B680E
:102DBC00D9B2484B1A78484B1C78484B00932300E7
:102DCC0000F094F874E0FB1D1B78142B11D13A4BD6
:102DDC0014221A703B4B14221A70414B1B781800AA
:102DEC00FFF720FC354B1A6A344B08210A431A6250
:102DFC005EE0FB1D1B78152B47D12F4B15221A704B
:102E0C00384B1B78002B01D1FFF7F5FE354B1B78A7
:102E1C001A0000210020FFF7A5FE334B1B78002B76
:102E2C0002D1FEF71BFB29E0A023DB055A69A02386
:102E3C00DB0540218A435A61A023DB055A69A02394
:102E4C00DB0580218A435A618120FEF759FA264B13
:102E5C001B781B01DBB21800FEF752FAA023DB052E
:102E6C005A69A023DB0580210A435A61A023DB05A4
:102E7C005A69A023DB0540210A435A61104B5A6959
:102E8C000F4B40210A435A6112E0FB1D1B78162B95
:102E9C0002D1094B16221A70084B1A6A074B0821EB
:102EAC000A431A6204E0C04602E0C04600E0C04695
:102EBC00BD4603B090BDC046000400200044004055
:102ECC0000080050FF0300209D030020A4030020F5
:102EDC00A8030020A203002004240020B00300203B
:102EEC009E0300209F030020A0030020F0B5C646DF
:102EFC0000B5A6B002AF16009C465F23FA18031C5F
:102F0C0013705E23FA180B1C13705D22BA18331C55
:102F1C0013705C26BA1963461370332358215A1860
:102F2C00D2195F203B181B7813702D204218D21930
:102F3C00BB191B781B0913702C267218D219431855
:102F4C00DB191B781B0113702B230A005918C919A4
:102F5C001300F218D2191E00C018C31912781B786E
:102F6C0013430B70342130000A18D219012313704B
:102F7C005E23FB181A7801231340DBB2002B03D01D
:102F8C000B18DA1902231370352158200B18DA1993
:102F9C00002313705C23FB181A780123134003D011
:102FAC000B18DA19012313705C23FB181A7802230F
:102FBC00134005D0352358229B18DA1902231370BD
:102FCC00352358229B18DB191B78002B00D02EE1DF
:102FDC006B469846282110008B18DA193123138080
:102FEC000B18DB191A881300013BFB67BA6200232C
:102FFC00FB62B86AF96A03005B0F0E00F5001D4313
:10300C000300DC003A6200237B62386A796A0300B1
:10301C005B0F0C00E4007C657C6D1C437C6503003D
:10302C00DB003B6513000733DB08DB006A46D31A71
:10303C009D4602AB0033BB671F2358215B18DA197E
:10304C00072313701E235B18DA190E231370362313
:10305C005B18DA1900231380BCE0302358229B182C
:10306C00DA190023138025E0362358215B18DB196D
:10307C001A88A823FB181B689B181B781D0030228C
:10308C005318DB19188816005318DB191C88E249F1
:10309C002A00D200521BD3009B1ACB181B5CBA6FB0
:1030AC001355320058215318DB191B885218D219AA
:1030BC0001331380302358215B18DA1928235B184D
:1030CC00DB1912881B889A42CED336235B18DB1986
:1030DC001A88A823FB181B689B181B78012B62D03D
:1030EC002E235B18DA190023138018E02E205824A5
:1030FC000319DB191A88BB6F9A5C0319DB19198841
:10310C002B231B19DB191B781340DBB2BA6F5354FA
:10311C000319DB191B880219D219013313802E23D2
:10312C0058255B19DA1928235B19DB1912881B88BF
:10313C009A42DBD333204319DA191F231E005B1983
:10314C00DB1912781B78D318DBB2013BDCB25E21A1
:10315C007A181E214B19DB1912781B78D318DAB2A6
:10316C0034214B19DB191B78D31ADAB25E217B1888
:10317C00197805005823C318DB191878BB6F019315
:10318C00FF23009313002200FEF7CCF958202B18D4
:10319C00D9192B18DA1933001B18DB1912781B7884
:1031AC00D3180B700DE0332358229918C91910004D
:1031BC009B18DA191F231B18DB1912781B78D318EC
:1031CC000B70362258215318DB191B885218D21950
:1031DC00013313805D23FB181B789AB236215820DB
:1031EC000B18DB191B88934200D236E70B18DA193F
:1031FC00002313800FE0302358201B18DB1919888B
:10320C00BA6F0023535436221318DB191B8812187B
:10321C00D21901331380362358215B18DA1928236D
:10322C005B18DB1912881B889A42E4D3C5463523F8
:10323C0058269B19DB191B78012B00D034E16B4607
:10324C001D0028218B19DA19632313808B19DB19C4
:10325C001A881300013B3B67BA610023FB61B86914
:10326C00F96903005B0F0C00E400FC64FC6C1C436C
:10327C00FC640300DB00BB643A6100237B613869AA
:10328C00796903005B0F0C00E4007C647C6C1C43CC
:10329C007C640300DB003B6413000733DB08DB00BA
:1032AC006A46D31A9D4602AB0033FB661F239B195B
:1032BC00DB1907221A701E239B19DB1912221A70B4
:1032CC0036239B19DB1900221A80C0E030235822C8
:1032DC009B18DB1900221A8023E0362358215B1837
:1032EC00DB191B88A822BA181268D3181B781A008D
:1032FC0030267318DB1918887318DB191988474C9A
:10330C0013005B009B185A019B18E3181A5CFB6EA8
:10331C005A5458217318DB191A887318DB190132A7
:10332C001A80302358215B18DA1928235B18DB1913
:10333C0012881B889A42D0D336235B18DB191B8862
:10334C00A822BA181268D3181B78012B68D02E2328
:10335C005B18DB1900221A8018E02E205824031960
:10336C00DB191B88FA6ED25C0319DB191B882B2125
:10337C000919C91909780A40D1B2FA6ED154031946
:10338C00DB191A880319DB1901321A802E235826EF
:10339C009B19DA1928239B19DB1912881B889A426E
:1033AC00DBD333208319DA191F239B19DB1912780D
:1033BC001B78D318DBB2013BD9B25E243A191E2418
:1033CC00A319DB1912781B78D318DAB23424A31999
:1033DC00DB191B78D31ADAB25E243B191C78060071
:1033EC005823C018C3191878FB6E0193FF23009360
:1033FC0013000A002100FEF795F85822B318DB19C8
:10340C001000B218D1191F221218D219097812788B
:10341C008A181A7012E0C04664C9000864FA0008E1
:10342C00332258215318DB1908005218D1191F22C6
:10343C001218D219097812788A181A703621582065
:10344C000B18DB191A880B18DB1901321A805D2353
:10345C00FB181B789BB2362158200A18D2191288F7
:10346C009A4200D232E70B18DB1900221A800FE0C7
:10347C00302358201B18DB191B88FA6E0021D154FD
:10348C0036210B18DB191A880B18DB1901321A803C
:10349C00362358215B18DA1928235B18DB1912889C
:1034AC001B889A42E4D3AD46352358269B19DB1969
:1034BC001B78022B01D000F0AEFB6B461D002821BF
:1034CC008B19DB19982252001A808B19DB191B8877
:1034DC001A00013ABA66BB600022FA60B868F96853
:1034EC000200520F0C00E400FC63FC6B1443FC6301
:1034FC000200D200BA633B6000227A6038687968B7
:10350C000200520F0C00E4007C637C6B14437C6360
:10351C000200D2003A630733DB08DB006A46D31A99
:10352C009D4602AB00337B661F239B19DB191022CF
:10353C001A701E239B19DB1926221A7036239B192D
:10354C00DB1900221A8088E2362158240B19DB196A
:10355C001B88A8203A181268D3181B78202B07D187
:10356C000B19DB191B883A181268D31800221A7031
:10357C00362158240B19DB191B88A8203A1812681D
:10358C00D3181B78212B07D10B19DB191B883A1880
:10359C001268D31801221A70362158240B19DB1922
:1035AC001B88A8203A181268D3181B78252B07D132
:1035BC000B19DB191B883A181268D31802221A70DF
:1035CC00362158240B19DB191B88A8203A181268CD
:1035DC00D3181B78282B07D10B19DB191B883A1829
:1035EC001268D31803221A70362158240B19DB19D0
:1035FC001B88A8203A181268D3181B78292B07D1DE
:10360C000B19DB191B883A181268D31804221A708C
:10361C00362158240B19DB191B88A8203A1812687C
:10362C00D3181B782A2B07D10B19DB191B883A18D6
:10363C001268D31805221A70362158240B19DB197D
:10364C001B88A8203A181268D3181B782B2B07D18B
:10365C000B19DB191B883A181268D31806221A703A
:10366C00362158240B19DB191B88A8203A1812682C
:10367C00D3181B782C2B07D10B19DB191B883A1884
:10368C001268D31807221A70362158240B19DB192B
:10369C001B88A8203A181268D3181B782D2B07D139
:1036AC000B19DB191B883A181268D31808221A70E8
:1036BC00362158240B19DB191B88A8203A181268DC
:1036CC00D3181B782E2B07D10B19DB191B883A1832
:1036DC001268D31809221A70362158240B19DB19D9
:1036EC001B88A8203A181268D3181B782F2B07D1E7
:1036FC000B19DB191B883A181268D3180A221A7096
:10370C00362158240B19DB191B88A8203A1812688B
:10371C00D3181B78302B07D10B19DB191B883A18DF
:10372C001268D3180B221A70362158240B19DB1986
:10373C001B88A8203A181268D3181B78312B07D194
:10374C000B19DB191B883A181268D3180C221A7043
:10375C00362158240B19DB191B88A8203A1812683B
:10376C00D3181B78322B07D10B19DB191B883A188D
:10377C001268D3180D221A70362158240B19DB1934
:10378C001B88A8203A181268D3181B78332B07D142
:10379C000B19DB191B883A181268D3180E221A70F1
:1037AC00362158240B19DB191B88A8203A181268EB
:1037BC00D3181B78342B07D10B19DB191B883A183B
:1037CC001268D3180F221A70362158240B19DB19E2
:1037DC001B88A8203A181268D3181B78352B07D1F0
:1037EC000B19DB191B883A181268D31810221A709F
:1037FC00362158240B19DB191B88A8203A1812689B
:10380C00D3181B78362B07D10B19DB191B883A18E8
:10381C001268D31811221A70362158240B19DB198F
:10382C001B88A8203A181268D3181B78372B07D19D
:10383C000B19DB191B883A181268D31812221A704C
:10384C00362158240B19DB191B88A8203A1812684A
:10385C00D3181B78382B07D10B19DB191B883A1896
:10386C001268D31813221A70362158240B19DB193D
:10387C001B88A8203A181268D3181B78392B07D14B
:10388C000B19DB191B883A181268D31814221A70FA
:10389C00362158240B19DB191B88A8203A181268FA
:1038AC00D3181B783A2B07D10B19DB191B883A1844
:1038BC001268D31815221A70362158240B19DB19EB
:1038CC001B88A8203A181268D3181B783B2B07D1F9
:1038DC000B19DB191B883A181268D31816221A70A8
:1038EC00362158240B19DB191B88A8203A181268AA
:1038FC00D3181B783C2B07D10B19DB191B883A18F2
:10390C001268D31817221A70362158240B19DB1998
:10391C001B88A8203A181268D3181B783D2B07D1A6
:10392C000B19DB191B883A181268D31818221A7055
:10393C00362158240B19DB191B88A8203A18126859
:10394C00D3181B783E2B07D10B19DB191B883A189F
:10395C001268D31819221A70362158240B19DB1946
:10396C001B88A8203A181268D3181B783F2B07D154
:10397C000B19DB191B883A181268D3181A221A7003
:10398C00362158240B19DB191B88A8203A18126809
:10399C00D3181B785B2B07D10B19DB191B883A1832
:1039AC001268D3181B221A70362158240B19DB19F4
:1039BC001B88A8203A181268D3181B785C2B07D1E7
:1039CC000B19DB191B883A181268D3181C221A70B1
:1039DC00362158240B19DB191B88A8203A181268B9
:1039EC00D3181B785D2B07D10B19DB191B883A18E0
:1039FC001268D3181D221A70362158240B19DB19A2
:103A0C001B88A8203A181268D3181B785F2B07D193
:103A1C000B19DB191B883A181268D3181E221A705E
:103A2C00362158240B19DB191B88A8203A18126868
:103A3C00D3181B787C2B07D10B19DB191B883A1870
:103A4C001268D3181F221A70362158200B18DB1954
:103A5C001A880B18DB1901321A805D23FB181B78AE
:103A6C009BB2362158200A18D21912889A4200D2D9
:103A7C006AE50B18DB1900221A809FE030235822CC
:103A8C009B18DB1900221A8024E0362358215B187E
:103A9C00DB191B88A822BA181268D3181B781A00D5
:103AAC0030267318DB1918887318DB191988624CC7
:103ABC001300DB009B185B009B181B01E3181A5CBE
:103ACC007B6E5A5458217318DB191A887318DB193A
:103ADC0001321A80302358215B18DA1928235B181D
:103AEC00DB1912881B889A42CFD32E235B18DB1963
:103AFC0000221A8018E02E2058240319DB191B8889
:103B0C007A6ED25C0319DB191B882B210919C91990
:103B1C0009780A40D1B27A6ED1540319DB191A888C
:103B2C000319DB1901321A802E2358269B19DA1936
:103B3C0028239B19DB1912881B889A42DBD333206C
:103B4C008319DA191F239B19DB1912781B78D318E8
:103B5C00DBB2013BDCB25E217A181E218B19DB191A
:103B6C0012781B78D318DAB234218B19DB191B7835
:103B7C00D31ADAB25E217B18197806005823C318C1
:103B8C00DB1918787B6E0193FF230093130022003E
:103B9C00FDF7C8FC58203318DB193218D1191F2235
:103BAC001218D219097812788A181A7036210B1843
:103BBC00DB191A880B18DB1901321A805D23FB18EC
:103BCC001B789BB2362158200A18D21912889A42B7
:103BDC0000D253E70B18DB1900221A800FE03023B8
:103BEC0058201B18DB191B887A6E0021D154362102
:103BFC000B18DB191A880B18DB1901321A803623C3
:103C0C0058215B18DA1928235B18DB1912881B88DA
:103C1C009A42E4D3AD46094B00221A70084B5A69FC
:103C2C00074B40210A435A61C0461800BD4624B0D8
:103C3C0080BCB846F0BDC046645D0108FE030020A0
:103C4C000008005080B586B002AF0200FB1D1A7050
:103C5C00BB1D0A1C1A700C217B18FA1D12781A70E5
:103C6C007B18BA1D12785A707A180648FA239B00F2
:103C7C0000930223322101F01BFEC046BD4604B066
:103C8C0080BDC0468C00002080B582B000AFFB1D0B
:103C9C0000221A70BB1D00221A707B1D00221A70A4
:103CAC003B1D00221A70FB1C00221A70BB1C002248
:103CBC001A707B1C00221A703B0000221A70FB1D2C
:103CCC001B7837221343DBB219002020FFF7BAFF11
:103CDC00BB1D1B787C2252421343DBB219002320FC
:103CEC00FFF7B0FFC046BD4602B080BD80B500AF47
:103CFC00C046BD4680BD000080B582B000AF114B00
:103D0C001A6C104B01210A431A640E4B1B6C0122D6
:103D1C0013407B607B680B4BDA6B0A4B80214905A7
:103D2C000A43DA63074BDA6B80235B0513403B6075
:103D3C003B6880239B00180000F042FDC046BD4646
:103D4C0002B080BD0010024090B589B000AF786021
:103D5C000C243B19180014231A00002108F0E6FD6E
:103D6C007B681B68104A93421AD1104B5A6B0F4B4D
:103D7C0002210A435A630D4B5B6B02221340BB605A
:103D8C00BB683B1904221A603B1903225A603B1989
:103D9C0000229A603B19064A1900100001F08EFBB4
:103DAC00C046BD4609B090BD000201400010024063
:103DBC000004005090B597B000AF78604423FB1816
:103DCC00180014231A00002108F0B0FD10243B1930
:103DDC00180034231A00002108F0A8FD7B681B682A
:103DEC00274A934247D13B1920221A603B190022E3
:103DFC001A613B19180003F0D9FF031E01D0FFF71D
:103E0C0075FF204B5A6B1F4B01210A435A631D4B04
:103E1C005B6B01221340FB60FB6844217B18C022C2
:103E2C00D2001A607B1812225A607B1801229A6009
:103E3C007B180022DA607B1806221A617A18A023FC
:103E4C00DB051100180001F039FB0E4BDA6B0D4B42
:103E5C00802189030A43DA630A4BDA6B80239B03C4
:103E6C001340BB60BB6800220021172000F0CAFF82
:103E7C00172000F0DCFFC046BD4617B090BDC04611
:103E8C00005400400010024090B599B000AF78602B
:103E9C004C23FB18180014231A00002108F046FDCF
:103EAC0018243B19180034231A00002108F03EFD99
:103EBC007B681B684F4A934200D097E03B198022E5
:103ECC0012011A603B1900225A613B19180003F0C9
:103EDC006DFF031E01D0FFF709FF474B1A6C464BD1
:103EEC00802149010A431A64434B1A6C80235B01FD
:103EFC0013407B617B69404B5A6B3F4B01210A435A
:103F0C005A633D4B5B6B012213403B613B693A4B5F
:103F1C005A6B394B02210A435A63374B5B6B0222B3
:103F2C001340FB60FB684C217B18802212021A6044
:103F3C000C003B1902225A603B1901229A603B1972
:103F4C000322DA603B1900221A613A19A023DB051F
:103F5C001100180001F0B2FA21007B1838221A6007
:103F6C007B1802225A607B1801229A607B1803226C
:103F7C00DA607B1800221A617B18204A19001000A5
:103F8C0001F09CFA1E4B1F4A1A601D4B11225A60FD
:103F9C001B4B10229A601A4B0022DA60184B8022BD
:103FAC001A61174B802252005A61154B8022D200A5
:103FBC009A61134B0022DA61114BC02292011A62F2
:103FCC000F4B180000F050FF031E01D0FFF78EFEC0
:103FDC007B680B4ADA620A4B7A689A6200220021EB
:103FEC00192000F00FFF192000F021FFC046BD463C
:103FFC0019B090BD00300140001002400004005088
:10400C001C0100200800024090B58BB000AF786016
:10401C0014243B19180014231A00002108F086FC04
:10402C007B681B68544A934200D0A0E0534BDA6B78
:10403C00524B8021C9010A43DA63504BDA6B80235F
:10404C00DB0113403B613B694C4B5A6B4B4B0221E0
:10405C000A435A63494B5B6B02221340FB60FB68BB
:10406C003B1940221A603B1902225A603B1901226B
:10407C009A603B190022DA603B1904221A613B1941
:10408C003F4A1900100001F019FA21007B18C022D8
:10409C0052001A607B1802225A607B1801229A6027
:1040AC007B180022DA607B1801221A617B18344AD3
:1040BC001900100001F002FA324B334A1A60314BEE
:1040CC0012225A602F4B00229A602E4B0022DA608B
:1040DC002C4B80221A612B4B00225A61294B002257
:1040EC009A61284B0022DA61264B802292011A62D7
:1040FC00244B180000F0B8FE031E01D0FFF7F6FDAC
:10410C007B68204A9A651F4B7A689A621F4B204A3B
:10411C001A601E4B13225A601C4B10229A601B4BC8
:10412C000022DA60194B80221A61184B00225A6166
:10413C00164B00229A61154B0022DA61134B0022B8
:10414C001A62124B180000F08FFE031E01D0FFF70D
:10415C00CDFD7B680D4A5A650C4B7A689A62002239
:10416C0000211A2000F04EFE1A2000F060FEC0461E
:10417C00BD460BB090BDC046003800400010024058
:10418C0000040050DC0100201C000240380200201A
:10419C004400024090B591B000AF78600C243B19FC
:1041AC00180034231A00002108F0C0FB7B681B6840
:1041BC00114A93421CD13B19802292031A603B197D
:1041CC0000229A623B19180003F0F0FD031E01D087
:1041DC00FFF78CFD094B1A6C084B802109010A432F
:1041EC001A64064B1A6C80231B011340BB60BB681E
:1041FC00C046BD4611B090BD002C014000100240DD
:10420C0090B589B000AF78600C243B1918001423CA
:10421C001A00002108F08AFB7B681B68154A934240
:10422C0023D1154B5A6B144B01210A435A63124B81
:10423C005B6B01221340BB60BB683B1980225200B0
:10424C001A6021007B1802225A607B1802229A60A5
:10425C007B180322DA607B1802221A617A18A023D9
:10426C00DB051100180001F029F9C046BD4609B064
:10427C0090BDC046002C01400010024090B58BB0A0
:10428C0000AF786014243B19180014231A00002185
:10429C0008F04CFB7B681B68454A934200D083E0D6
:1042AC00444BDA6B434B8021C9020A43DA63414B1E
:1042BC00DA6B8023DB0213403B613B693D4B5A6B4D
:1042CC003C4B01210A435A633A4B5B6B012213406E
:1042DC00FB60FB68374B5A6B364B02210A435A631F
:1042EC00344B5B6B02221340BB60BB683B19202232
:1042FC001A603B1902225A603B1900229A603B1942
:10430C000322DA603B1904221A613A19A023DB0557
:10431C001100180001F0D2F821007B1803221A605A
:10432C007B1802225A607B1800229A607B180322A9
:10433C00DA607B1804221A617B181F4A19001000DE
:10434C0001F0BCF81D4B1E4A1A601C4B37225A60F8
:10435C001A4B10229A60194B0022DA60174B8022FC
:10436C001A61164B00225A61144B00229A61134BAE
:10437C000022DA61114B802252011A620F4B180095
:10438C0000F072FD031E01D0FFF7B0FC7B680B4AF6
:10439C001A650A4B7A689A62002200211D2000F0EF
:1043AC0031FD1D2000F043FDC046BD460BB090BD55
:1043BC000048004000100240000400504003002060
:1043CC003000024080B582B000AF78607B68DB695A
:1043DC0002221340022B01D1012300E0002318001C
:1043EC00BD4602B080BD80B582B000AF78607B68FE
:1043FC00DB6904221340042B01D1012300E00023CC
:10440C001800BD4602B080BD80B582B000AF7860A8
:10441C007B68DB6908221340082B01D1012300E0E3
:10442C0000231800BD4602B080BD80B582B000AF3D
:10443C0078607B68DB6920221340202B01D101239B
:10444C0000E000231800BD4602B080BD80B582B0EC
:10445C0000AF78607B681B6820221340202B01D1B1
:10446C00012300E000231800BD4602B080BD80B5DA
:10447C0000AFC046BD4680BD80B500AFFEE780B53D
:10448C0000AFC046BD4680BD80B500AFC046BD463E
:10449C0080BD80B500AF00F053F9C046BD4680BD6D
:1044AC0080B500AF034B180000F0BAFEC046BD4605
:1044BC0080BDC0461C01002080B500AF054B180024
:1044CC0000F0AEFE044B180000F0AAFEC046BD463C
:1044DC0080BDC046DC0100204003002080B500AF49
:1044EC00034B180000F09CFEC046BD4680BDC04684
:1044FC003802002080B500AF094B1B689A69E02395
:10450C00DB00134004D0064B180001F0F3FA03E073
:10451C00034B180001F0D4FAC046BD4680BDC0461E
:10452C008C00002080B500AF034B180002F0C2FDD8
:10453C00C046BD4680BDC046E000002080B500AF3F
:10454C00034B180005F050F9C046BD4680BDC0466F
:10455C007801002080B500AF254B1A6A244B082146
:10456C000A431A62224B1A6A214B02210A431A622D
:10457C001F4B1A6A1E4B04210A431A621C4B18006B
:10458C00FFF753FF031E09D0194B1800FFF75EFF0E
:10459C00031E03D0FCF758FDC04625E0144B1A6AE5
:1045AC00134B08210A431A62114B1800FFF72CFF1A
:1045BC00031E08D00E4B1A6A0D4B08210A431A62CF
:1045CC000B4B5B6A10E00A4B1800FFF7FBFE031E57
:1045DC0002D0074B5B6A07E0054B1800FFF703FF9F
:1045EC00031E01D0024B5B6AC046BD4680BDC0466F
:1045FC000044004080B500AF034B180006F0BCFF30
:10460C00C046BD4680BDC046E002002080B500AF6C
:10461C00C046BD4680BD00000D488546FFF7F6FF3D
:10462C000C480D490D4A002302E0D458C450043301
:10463C00C4188C42F9D30A4A0A4C002301E01360D7
:10464C000432A242FBD308F04DF9FBF7B1FFFEE7B1
:10465C000090002000000020400000205084010841
:10466C004000002018280020FEE7000080B582B032
:10467C0000AFFB1D00221A700B4B1A680A4B8021ED
:10468C0049000A431A60002000F010F8031E03D002
:10469C00FB1D01221A7001E0FFF72EFBFB1D1B789E
:1046AC001800BD4602B080BD0020024090B585B018
:1046BC0000AF78600F23FB1800221A701D4B1B787B
:1046CC00002B2BD01C4B1C681A4B1B781900FA239F
:1046DC009800FBF711FD030019002000FBF70CFDFF
:1046EC000300180000F0B3FB031E12D17B68032BF0
:1046FC000AD8796801235B420022180000F082FB83
:10470C000E4B7A681A600DE00F23FB1801221A7009
:10471C0008E00F23FB1801221A7003E00F23FB188B
:10472C0001221A700F23FB181B781800BD4605B028
:10473C0090BDC0463C000020340000203800002012
:10474C0080B500AF054B1B781A00054B1B68D218BF
:10475C00034B1A60C046BD4680BDC0463C000020DD
:10476C001428002080B500AF024B1B681800BD4612
:10477C0080BDC0461428002080B584B000AF78609E
:10478C00FFF7F0FF0300BB607B68FB60FB68013345
:10479C0005D00A4B1B781A00FB689B18FB60C046BF
:1047AC00FFF7E0FF0200BB68D31AFA689A42F7D809
:1047BC00C046C046BD4604B080BDC0463C0000208B
:1047CC0080B582B000AF7860064B1B68064A134078
:1047DC001900044B7A680A431A60C046BD4602B001
:1047EC0080BDC04600000140FFF9FFFF80B582B0DC
:1047FC0000AF7860054A8023D25804497B68134384
:10480C0080228B50C046BD4602B080BD00180240CD
:10481C0080B582B000AF7860064A8023D3587A689E
:10482C00D2430449134080228B50C046BD4602B08F
:10483C0080BDC0460018024080B582B000AF7860E1
:10484C00054A8423D25804497B68134384228B5035
:10485C00C046BD4602B080BD0018024080B582B093
:10486C0000AF7860064A8423D3587A68D24304494F
:10487C00134084228B50C046BD4602B080BDC0465A
:10488C000018024080B582B000AF7860044B196804
:10489C00034B7A680A431A60C046BD4602B080BD1D
:1048AC000018024080B582B000AF7860054B1A68E2
:1048BC007B68D943034B0A401A60C046BD4602B020
:1048CC0080BDC0460018024080B582B000AF786051
:1048DC00044B5968034B7A680A435A60C046BD467C
:1048EC0002B080BD0018024080B582B000AF786085
:1048FC00054B5A687B68D943034B0A405A60C04643
:10490C00BD4602B080BDC0460018024080B582B0E2
:10491C0000AF7860034B7A681A61C046BD4602B09E
:10492C0080BDC0460018024080B582B000AF7860F0
:10493C00034B7A68DA60C046BD4602B080BDC04603
:10494C000018024080B588B000AF78600023FB608F
:10495C001F217B1800221A707B68002B03D17B1857
:10496C0001221A703DE17B681B681B68DB0FDA07BC
:10497C0080231B069A4204D11F23FB1801221A70B4
:10498C002FE17B6829229B5CDBB2002B0AD17B6870
:10499C002822002199547B680022DA627B68180077
:1049AC00FFF7D2F97B681B681B6830221340BB6190
:1049BC007B685A697B681B691A437B681B6A1A43BC
:1049CC007B689B691A437B68DB691A437B68DB68ED
:1049DC0013437B617B681B681B68854A1340190075
:1049EC007B681B687A690A431A607B685A68802363
:1049FC001B019A420DD17F4B1A687E4B7E490A40AF
:104A0C001A607C4B5A687B4B802109010A435A601F
:104A1C001FE07B685A68C0235B019A420DD1754B2D
:104A2C001A68744B802109010A431A60714B5A6849
:104A3C00704B71490A405A600BE06E4B1A686D4B13
:104A4C006D490A401A606B4B5A686A4B6A490A40B6
:104A5C005A607B689B68A022D201934217D0A02297
:104A6C00D201934230D8012B1FD08022D201934225
:104A7C002AD1604B1A685F4B8021C9010A431A6026
:104A8C005C4B5A685B4B5D490A405A6029E0594BB4
:104A9C001A68584B59490A401A60564B5A68554B7C
:104AAC008021C9010A435A601BE0524B1A68514BD2
:104ABC008021C9010A431A604E4B5A684D4B802124
:104ACC00C9010A435A600CE04A4B1A68494B4B49DE
:104ADC000A401A60474B5A68464B48490A405A608C
:104AEC00C0467B681B681B683022134016D0BB691C
:104AFC00002B13D1424B1B6842491800FBF7FCFA00
:104B0C0003005A1C13009B009B189B00FB6002E0E7
:104B1C00FB68013BFB60FB68002BF9D17B681B68D1
:104B2C00344A934202D180239B0201E08023DB02B2
:104B3C003B617B685B6A0322134040D07B685B6AF5
:104B4C001022134004D03B691800FFF79BFE03E0D2
:104B5C003B691800FFF7A6FE7B685B6A20221340B6
:104B6C0004D03B691800FFF7AFFE03E03B69180067
:104B7C00FFF7BAFE3B691800FFF7D6FE3B69180039
:104B8C00FFF7C4FE7B685B6A0222134004D03B69CA
:104B9C001800FFF751FE03E03B691800FFF75EFEBB
:104BAC007B685B6A0122134004D03B691800FFF755
:104BBC001DFE0CE03B691800FFF72AFE07E03B697D
:104BCC001800FFF74BFE3B691800FFF721FE7B68CE
:104BDC0029229B5CDBB2002B03D17B6829220121AB
:104BEC0099541F23FB181B781800BD4608B080BDD4
:104BFC000F7400FE00020140FFF7FFFFFFBFFFFF35
:104C0C0034000020400D030080B584B000AF786004
:104C1C000023BB600F217B1800221A707B68002BCD
:104C2C0003D17B1801221A7035E07B681B681B6866
:104C3C00DB0FDA0780231B069A4204D10F23FB18E3
:104C4C0001221A7027E07B6829229B5CDBB2012BC6
:104C5C001DD17B681B681A687B681B6801210A439D
:104C6C001A607B682922022199540E4B1B680E494D
:104C7C001800FBF741FA03000133DB00BB6002E0D4
:104C8C00BB68013BBB60BB68002BF9D103E00F2371
:104C9C00FB1801221A700F23FB181B781800BD4655
:104CAC0004B080BD34000020400D030080B582B0FC
:104CBC0000AF0200FB1D1A70FB1D1B787F2B09D85F
:104CCC00FB1D1B781A001F231A40044B0121914035
:104CDC000A001A60C046BD4602B080BD00E100E08B
:104CEC0090B583B000AF02003960FB1D1A70FB1D3C
:104CFC001B787F2B28D82F4AFB1D1B785BB29B0897
:104D0C00C0339B009B58FA1D1278110003220A40F5
:104D1C00D200FF2191400A00D2431A4011003B6897
:104D2C009B01FF221A40FB1D1B7818000323034034
:104D3C00DB009A401F48FB1D1B785BB29B080A43A3
:104D4C00C0339B001A5031E01B4AFB1D1B78190025
:104D5C000F230B40083B9B0806339B00D3180433EE
:104D6C001B68FA1D1278110003220A40D200FF21A1
:104D7C0091400A00D2431A4011003B689B01FF226C
:104D8C001A40FB1D1B78180003230340DB009A40DC
:104D9C000948FB1D1B781C000F232340083B9B0874
:104DAC000A4306339B00C31804331A60C046BD4641
:104DBC0003B090BD00E100E000ED00E080B582B0F2
:104DCC0000AF78607B685A1E80235B049A4201D343
:104DDC00012310E00A4B7A68013A5A6001235B42C6
:104DEC0003211800FFF77CFF054B00229A60044B4F
:104DFC0007221A6000231800BD4602B080BDC046D1
:104E0C0010E000E080B584B000AFB9607A600F218B
:104E1C007B18021C1A70BA687B181B785BB21100E5
:104E2C001800FFF75DFFC046BD4604B080BD80B5DD
:104E3C0082B000AF0200FB1D1A70FB1D1B785BB229
:104E4C001800FFF733FFC046BD4602B080BD80B5E9
:104E5C0082B000AF78607B681800FFF7AFFF0300EB
:104E6C001800BD4602B080BD80B582B000AF78603E
:104E7C007B68002B01D1012377E07B681B683D4ADE
:104E8C009446634414211800FBF736F903009A008A
:104E9C007B681A647B682522022199547B681B6805
:104EAC001A687B681B6834490A401A607B681B6867
:104EBC0019687B689A687B68DB681A437B681B6996
:104ECC001A437B685B691A437B689B691A437B684E
:104EDC00DB691A437B681B6A1A437B681B680A43AD
:104EEC001A607B68180000F099FA7B689A68802336
:104EFC00DB019A4202D17B6800225A607B685A68B7
:104F0C007B685B6C3F210A401A607B689B6C7A68FB
:104F1C00D26C5A607B685B68002B11D07B685B6835
:104F2C00042B0DD87B68180000F0A4FA7B681B6D6D
:104F3C0000221A607B685B6D7A68926D5A6008E09B
:104F4C007B6800221A657B6800225A657B68002208
:104F5C009A657B680022DA637B68252201219954CB
:104F6C007B6824220021995400231800BD4602B00E
:104F7C0080BDC046F8FFFDBF0F80FFFF80B586B037
:104F8C0000AFF860B9607A603B601723FB18002211
:104F9C001A70FB6824229B5C012B01D102236FE069
:104FAC00FB68242201219954FB6825229B5CDBB20F
:104FBC00012B57D1FB68252202219954FB68002252
:104FCC00DA63FB681B681A68FB681B6801218A435B
:104FDC001A603B687A68B968F86800F0DFF9FB681A
:104FEC001B6B002B08D0FB681B681A68FB681B68DE
:104FFC000E210A431A600FE0FB681B681A68FB68F5
:10500C001B6804218A431A60FB681B681A68FB68DA
:10501C001B680A210A431A60FB685B6C1A688023C0
:10502C005B02134008D0FB685B6C1A68FB685B6C16
:10503C00802149000A431A60FB681B6D002B08D0C5
:10504C00FB681B6D1A68FB681B6D802149000A43C5
:10505C001A60FB681B681A68FB681B6801210A430D
:10506C001A600AE0FB688022DA63FB6824220021C4
:10507C0099541723FB1801221A701723FB181B785D
:10508C001800BD4606B080BD80B582B000AF786018
:10509C007B68002B01D1012350E07B6825229B5CAF
:1050AC00DBB2022B08D07B680422DA637B682422F3
:1050BC0000219954012341E07B681B681A687B68C6
:1050CC001B680E218A431A607B685B6C1A687B68CC
:1050DC005B6C1C490A401A607B681B681A687B6809
:1050EC001B6801218A431A60174B59687B681B6C3B
:1050FC001C22134001229A40134B0A435A607B68CE
:10510C009B6C7A68D26C5A607B681B6D002B0CD040
:10511C007B681B6D1A687B681B6D0A490A401A6014
:10512C007B685B6D7A68926D5A607B6825220121E1
:10513C0099547B6824220021995400231800BD4601
:10514C0002B080BDFFFEFFFF0000024080B584B0BE
:10515C0000AF78600F217B1800221A707B68252223
:10516C009B5CDBB2022B06D07B680422DA637B18D3
:10517C0001221A7049E07B681B681A687B681B68FF
:10518C000E218A431A607B681B681A687B681B684F
:10519C0001218A431A607B685B6C1A687B685B6CC4
:1051AC001D490A401A601D4B59687B681B6C1C22F8
:1051BC00134001229A40194B0A435A607B689B6C3E
:1051CC007A68D26C5A607B681B6D002B0CD07B68A4
:1051DC001B6D1A687B681B6D0F490A401A607B684F
:1051EC005B6D7A68926D5A607B6825220121995417
:1051FC007B682422002199547B689B6B002B04D084
:10520C007B689B6B7A68100098470F23FB181B7800
:10521C001800BD4604B080BDFFFEFFFF0000024039
:10522C0080B584B000AF7860554B1B68FB607B6821
:10523C001B681B68BB607B681B6C1C221340042220
:10524C009A401300FA68134027D0BB68042213401D
:10525C0023D07B681B681B682022134007D17B6816
:10526C001B681A687B681B6804218A431A60444BCC
:10527C0059687B681B6C1C22134004229A40404BDB
:10528C000A435A607B681B6B002B00D173E07B6870
:10529C001B6B7A68100098476DE07B681B6C1C22B6
:1052AC00134002229A401300FA6813402ED0BB68B8
:1052BC00022213402AD07B681B681B6820221340F3
:1052CC000BD17B681B681A687B681B680A218A43B0
:1052DC001A607B68252201219954294B59687B68F7
:1052EC001B6C1C22134002229A40254B0A435A6025
:1052FC007B682422002199547B68DB6A002B3AD00E
:10530C007B68DB6A7A681000984734E07B681B6C1A
:10531C001C22134008229A401300FA6813402BD029
:10532C00BB680822134027D07B681B681A687B680F
:10533C001B680E218A431A60114B59687B681B6CE1
:10534C001C22134001229A400D4B0A435A607B6881
:10535C000122DA637B682522012199547B6824227F
:10536C00002199547B685B6B002B05D07B685B6BD1
:10537C007A6810009847C046C046BD4604B080BD50
:10538C000000024080B582B000AF78607B682522B7
:10539C009B5CDBB21800BD4602B080BD80B584B00A
:1053AC0000AFF860B9607A603B60FB689B6CFA6890
:1053BC00D26C5A60FB681B6D002B04D0FB685B6DD4
:1053CC00FA68926D5A60144B5968FB681B6C1C226E
:1053DC00134001229A40104B0A435A60FB681B6829
:1053EC003A685A60FB689B68102B08D1FB681B68F5
:1053FC007A689A60FB681B68BA68DA6007E0FB6839
:10540C001B68BA689A60FB681B687A68DA60C046E9
:10541C00BD4604B080BDC0460000024080B584B0DB
:10542C0000AF78607B681B6C9B08104A9446634401
:10543C009B001A007B685A647B681B681A00FF2368
:10544C001340083B14211800FAF756FE0300FB60CA
:10545C007B68074A9A64FB681F22134001229A401A
:10546C007B68DA64C046BD4604B080BD0082001083
:10547C008008024080B584B000AF78607B685B68C0
:10548C003F221340FB60FB680A4A944663449B002E
:10549C001A007B681A657B68074A5A65FB68013BF2
:1054AC000322134001229A407B689A65C046BD4690
:1054BC0004B080BD3F8200104009024080B586B028
:1054CC0000AF7860396000237B6147E13B681B6863
:1054DC0001217A6991400A001340FB60FB68002BA4
:1054EC0000D138E13B685B6803221340012B05D0E7
:1054FC003B685B6803221340022B30D17B689B68AE
:10550C003B617B695B0003229A401300DA433B69E1
:10551C0013403B613B68DA687B695B009A4013007F
:10552C003A6913433B617B683A699A607B685B68B4
:10553C003B6101227B699A401300DA433B691340BB
:10554C003B613B685B681B0901221A407B699A40EE
:10555C0013003A6913433B617B683A695A603B68B4
:10556C005B6803221340032B17D07B68DB683B611D
:10557C007B695B0003229A401300DA433B691340BA
:10558C003B613B689A687B695B009A4013003A69FF
:10559C0013433B617B683A69DA603B685B680322C2
:1055AC001340022B23D17B69DA087B680832920006
:1055BC00D3583B617B69072213409B000F229A4012
:1055CC001300DA433B6913403B613B681A697B6902
:1055DC0007210B409B009A4013003A6913433B612F
:1055EC007B69DA087B68083292003969D1507B6894
:1055FC001B683B617B695B0003229A401300DA4312
:10560C003B6913403B613B685B6803221A407B6932
:10561C005B009A4013003A6913433B617B683A691B
:10562C001A603B685A68C0239B02134000D192E079
:10563C00504A7B699B0818339B009B583B617B69E4
:10564C0003221340DB000F229A401300DA433B691C
:10565C0013403B617A68A023DB059A4213D07B6828
:10566C00454A93420DD07B68444A934207D07B68ED
:10567C00434A934201D1032306E0052304E00223AD
:10568C0002E0012300E000237A6903210A40D200E2
:10569C0093403A6913433B6136497B699B08183345
:1056AC009B003A695A50334B1B683B61FB68DA43E9
:1056BC003B6913403B613B685A6880235B03134092
:1056CC0003D03A69FB6813433B612A4B3A691A6071
:1056DC00284B5B683B61FB68DA433B6913403B61D9
:1056EC003B685A6880239B03134003D03A69FB68DC
:1056FC0013433B611F4B3A695A601E4A8423D358AB
:10570C003B61FB68DA433B6913403B613B685A6879
:10571C0080239B02134003D03A69FB6813433B611F
:10572C00144984223B698B50124A8023D3583B6125
:10573C00FB68DA433B6913403B613B685A68802342
:10574C005B02134003D03A69FB6813433B61094980
:10575C0080223B698B507B6901337B613B681A6803
:10576C007B69DA40131E00D0B0E6C046C046BD4689
:10577C0006B080BD00180240000400500008005024
:10578C00000C005080B582B000AF78607B68002BB5
:10579C0001D1012382E07B6841229B5CDBB2002BB0
:1057AC0007D17B684022002199547B681800FEF7D2
:1057BC0001FB7B684122242199547B681B681A6881
:1057CC007B681B6801218A431A607B685A687B6876
:1057DC001B6834490A401A617B681B689A687B68AD
:1057EC001B6831490A409A607B68DB68012B08D141
:1057FC007B689A687B681B68802109020A439A605F
:10580C0007E07B689A687B681B68842109020A435D
:10581C009A607B68DB68022B04D17B681B68802252
:10582C0012015A607B681B685A687B681B681F49A9
:10583C000A435A607B681B68DA687B681B681A49E4
:10584C000A40DA607B681A697B685B691A4311004D
:10585C007B689B691A027B681B680A43DA607B6869
:10586C00D9697B681A6A7B681B680A431A607B6873
:10587C001B681A687B681B6801210A431A607B68E5
:10588C0000225A647B684122202199547B680022B3
:10589C001A637B6842220021995400231800BD46EC
:1058AC0002B080BDFFFFFFF0FF7FFFFF0080000212
:1058BC0090B589B002AFF86008007A6019000A232D
:1058CC00FB18021C1A800823FB180A1C1A80FB68A0
:1058DC0041229B5CDBB2202B00D0E7E0FB6840222E
:1058EC009B5C012B01D10223E1E0FB6840220121EA
:1058FC009954FEF737FF03007B6180231902F86887
:10590C007B6900931923012200F076FE031E01D05F
:10591C000123CCE0FB68412221219954FB684222EF
:10592C0010219954FB6800225A64FB687A685A6209
:10593C00FB680822BA1812885A85FB6800225A6341
:10594C00FB685B8D9BB2FF2B11D9FB68FF221A857C
:10595C00FB681B8DDAB280235C040A23FB181988C0
:10596C00F868554B0093230001F000F875E0FB68D4
:10597C005B8D9AB2FB681A85FB681B8DDAB28023AB
:10598C009C040A23FB181988F8684B4B00932300DE
:10599C0000F0ECFF61E07A69B96AFB68180000F06E
:1059AC006AFE031E01D0012381E0FB685B6A1A7852
:1059BC00FB681B689A62FB685B6A5A1CFB685A623C
:1059CC00FB685B8D9BB2013B9AB2FB685A85FB6806
:1059DC001B8D013B9AB2FB681A85FB685B8D9BB2F1
:1059EC00002B3AD0FB681B8D002B36D1BA6AF868B5
:1059FC007B69009313000022802100F0FDFD031E43
:105A0C0001D0012353E0FB685B8D9BB2FF2B11D9B6
:105A1C00FB68FF221A85FB681B8DDAB280235C04BD
:105A2C000A23FB181988F86800230093230000F060
:105A3C009DFF12E0FB685B8D9AB2FB681A85FB68D0
:105A4C001B8DDAB280239C040A23FB181988F86892
:105A5C0000230093230000F089FFFB685B8D9BB251
:105A6C00002B98D17A69B96AFB68180000F042FEE5
:105A7C00031E01D001231AE0FB681B682022DA61A7
:105A8C00FB681B685A68FB681B680C490A405A6023
:105A9C00FB68412220219954FB6842220021995431
:105AAC00FB68402200219954002300E002231800D7
:105ABC00BD4607B090BDC0460020008000E800FE47
:105ACC0080B584B000AF78607B681B689B69FB6015
