:020000040800F2
:1000000000900020E14F0008734E00087D4E00086C
:1000100000000000000000000000000000000000E0
:10002000000000000000000000000000834E0008F7
:1000300000000000000000008D4E0008974E0008F0
:10004000315000083150000831500008315000088C
:10005000315000083150000831500008315000087C
:1000600031500008A54E00083150000831500008FA
:10007000315000083150000831500008315000085C
:10008000315000083150000831500008315000084C
:10009000315000083150000831500008BD4E0008B2
:1000A00031500008ED4E0008054F0008315000089F
:0C00B0001D4F0008BD4F00083150000833
:1000BC0010B5064C2378002B07D1054B002B02D032
:1000CC00044800E000BF0123237010BD7400002021
:1000DC0000000000D8D80008044B10B5002B03D04A
:1000EC000349044800E000BF10BDC04600000000FA
:1000FC0078000020D8D80008002243088B4274D323
:10010C0003098B425FD3030A8B4244D3030B8B420C
:10011C0028D3030C8B420DD3FF22090212BA030C15
:10012C008B4202D31212090265D0030B8B4219D3F6
:10013C0000E0090AC30B8B4201D3CB03C01A524116
:10014C00830B8B4201D38B03C01A5241430B8B425E
:10015C0001D34B03C01A5241030B8B4201D30B0347
:10016C00C01A5241C30A8B4201D3CB02C01A52416E
:10017C00830A8B4201D38B02C01A5241430A8B4231
:10018C0001D34B02C01A5241030A8B4201D30B021A
:10019C00C01A5241CDD2C3098B4201D3CB01C01A34
:1001AC00524183098B4201D38B01C01A524143093E
:1001BC008B4201D34B01C01A524103098B4201D32C
:1001CC000B01C01A5241C3088B4201D3CB00C01A99
:1001DC00524183088B4201D38B00C01A5241430811
:1001EC008B4201D34B00C01A5241411A00D2014636
:1001FC00524110467047FFE701B5002000F0F0F8BF
:10020C0002BDC0460029F7D076E7704703460B4382
:10021C007FD4002243088B4274D303098B425FD3F3
:10022C00030A8B4244D3030B8B4228D3030C8B421F
:10023C000DD3FF22090212BA030C8B4202D3121205
:10024C00090265D0030B8B4219D300E0090AC30BDA
:10025C008B4201D3CB03C01A5241830B8B4201D387
:10026C008B03C01A5241430B8B4201D34B03C01A70
:10027C005241030B8B4201D30B03C01A5241C30AE8
:10028C008B4201D3CB02C01A5241830A8B4201D359
:10029C008B02C01A5241430A8B4201D34B02C01A43
:1002AC005241030A8B4201D30B02C01A5241CDD2E8
:1002BC00C3098B4201D3CB01C01A524183098B4233
:1002CC0001D38B01C01A524143098B4201D34B011C
:1002DC00C01A524103098B4201D30B01C01A52417F
:1002EC00C3088B4201D3CB00C01A524183088B4206
:1002FC0001D38B00C01A524143088B4201D34B00EF
:10030C00C01A5241411A00D2014652411046704760
:10031C005DE0CA0F00D04942031000D34042534065
:10032C0000229C4603098B422DD3030A8B4212D325
:10033C00FC22890112BA030A8B420CD38901921157
:10034C008B4208D3890192118B4204D389013AD094
:10035C00921100E08909C3098B4201D3CB01C01A69
:10036C00524183098B4201D38B01C01A524143097C
:10037C008B4201D34B01C01A524103098B4201D36A
:10038C000B01C01A5241C3088B4201D3CB00C01AD7
:10039C00524183088B4201D38B00C01A5241D9D2EF
:1003AC0043088B4201D34B00C01A5241411A00D270
:1003BC000146634652415B10104601D34042002B6C
:1003CC0000D54942704763465B1000D3404201B5EB
:1003DC00002000F005F802BD0029F8D016E77047A0
:1003EC007047C0468446100062468C46190063462E
:1003FC0000E0C0461FB500F00DFF002801D400211D
:10040C00C8421FBD10B500F05DFE4042013010BD6A
:10041C0010B500F0FFFE002801DB002010BD01200C
:10042C0010BDC04610B500F0F5FE002801DD00201F
:10043C0010BD012010BDC04610B500F085FE00288F
:10044C0001DC002010BD012010BDC04610B500F02D
:10045C007BFE002801DA002010BD012010BDC04633
:10046C00F0B54F464646D6460D000400C0B51F00F9
:10047C0011002803620F400A10437A00520DE3006A
:10048C003C039146640AFA0F4F0F6E0027439246C5
:10049C00B846760DED0FC900954200D199E04C4657
:1004AC00341BA446002C00DC7CE04A46002A00D118
:1004BC00B8E0C54A964200D11CE180223C001204EF
:1004CC001443A0466246382A00DD61E11F2A00DD94
:1004DC00CCE164462022121B444694400F00A146F6
:1004EC0064469140E7404C464A1E91413C4342468B
:1004FC0021436446E240801A5C1AA3429B415F424E
:10050C00C71B3B0200D4D0E07F027F0A002F00D132
:10051C00FFE0380001F06CFD0100083920232200B7
:10052C005B1A8F40DA408C401743B14200DAFFE08F
:10053C00891B4B1C1F2B00DDA8E020223900D21A8E
:10054C00200094409140D840621E9441DF40002628
:10055C0001430C43630709D00F232340042B05D020
:10056C00231DA342A44164423F191C003B0200D44A
:10057C009EE0954B01369E4200D1B7E0934AE408C9
:10058C0017407B0771057F0223433F0B4A0D120571
:10059C003A43ED072A4318001100E0BCBA46B146B5
:1005AC00A846F0BD002C4BD04C46A41BA446002EF4
:1005BC0000D023E104001C4300D1AFE16246541E7D
:1005CC00012A00D115E2804DAC4500D1C8E1A4460A
:1005DC001BE14A46B21A9446002A00DCACE04A46BB
:1005EC00002A43D0784A964200D1AFE180223C00E9
:1005FC0012041443A0466246382A67DC1F2A00DC2A
:10060C005FE14746203AD7406246202A05D064462F
:10061C004022121B4446944021434A1E91410C0037
:10062C003C4357E03A000A4300D105E12200013A6D
:10063C00012C00D182E1644CA4455BD0944641E787
:10064C00634C771C274200D0C4E004001C43002EEE
:10065C0000D069E1002C00D1BFE144460C4300D02E
:10066C00D0E14207DB081343C00829E03A000A43F3
:10067C0000D170E162466446013A012C00D1E0E001
:10068C00514CA44500D161E19446B4E73A001F39BE
:10069C00CA401100202B03D04022D31A9F403C4368
:1006AC00631E9C41002700260C43630700D053E7D0
:1006BC00B446E4087B072343F808434A94451DD00D
:1006CC006246070352053F0B520D60E744460C434C
:1006DC00621E9441E4189C429B415F423F183B02CE
:1006EC00E3D5394B01369E4200D0B5E032000027ED
:1006FC0000234CE74207DB081343C0081A000243EF
:10070C0000D1E1E180273F0307433F032E4A3F0B13
:10071C003DE7200001F06CFC010018311F2900DCC2
:10072C00FCE60838844027000024B14200DBFFE6D9
:10073C00264A761A17400DE7002A2FD04A46921BFC
:10074C009446002E00D1ADE01F4A914500D10FE137
:10075C008022120410436246382A00DD0FE11F2A62
:10076C0000DD80E1644620221E00121B6746040057
:10077C0093409440FE405A1E9341F84034431C432E
:10078C00804464188C42BF417F424E464744A6E7E2
:10079C0042460A4311004A1E9141ADE60C4C721CB4
:1007AC00224200D0A1E002001A43002E00D0FAE051
:1007BC00002A00D145E13A000A4300D046E1420745
:1007CC00DB081343C0087BE7FF070000FFFF7FFF38
:1007DC00FE07000047465C1AC21BA342BF417F4282
:1007EC00B94617004A46BF1A3A0200D58DE02300DD
:1007FC003B4300D08AE60020002561E7B44CA145BC
:10080C0000D1ADE08024240420436446382C3DDC28
:10081C0062461F2C00DDB7E020251E002D1B0400B6
:10082C00AB40AC40D640D04042465D1EAB41344359
:10083C00121A904623432CE04207DB081343C008EE
:10084C003BE75C189C429B4140445B42C718012625
:10085C003B0200D429E702269E4A63081740012276
:10086C0014401C43FB071C437F0873E64446203AA4
:10087C00D4406246202A05D067464022D21B474608
:10088C00974039434A1E9141214335E60343581E94
:10089C008341CC1AA142BF4143467F4255464E4646
:1008AC00DF1B2EE602001A4300D1BDE0624664460F
:1008BC00013A012C00D1E5E0854CA44558D0944672
:1008CC0049E764462022121B444694400F00A1467F
:1008DC0064469140E7404C464A1E91413C43424697
:1008EC000C436146CA408018F4E6794CA24200D110
:1008FC00FDE6591899429B4140445F42C719FC07D9
:10090C00490816000C437F08CFE6CC1AA142BF4120
:10091C0043467F42181A5546C71BF7E5C9087B07A3
:10092C0055460B43F808C8E6002C00D081E043463E
:10093C000B4315D1802000250003E3E65C1AA3428B
:10094C009B41C71B5B420126FF1ADAE54207DB0815
:10095C001343C008D2E64207DB081343C008ACE6D9
:10096C0043464246C9085B0755460B43D008C5E6CB
:10097C00434642465B07C9080B43D008BEE6034317
:10098C001C00631E9C41FCE60200203CE24014006B
:10099C006246202A03D04025AD1AA8400343581EB6
:1009AC008341234375E7002AE2D03A000A43CDD0B5
:1009BC004207DB0813438022C0081203104206D002
:1009CC00FC08144203D12000CB087A0713435A0FBA
:1009DC00DB005207DB08134390E643460B4300D180
:1009EC0009E743464246C9085B0755460B43D00806
:1009FC0066E6CC1AA14289413F1A49425546012666
:100A0C007F1A7EE542465C1A871AA34292415242F3
:100A1C00BF1A3A023DD5CC1AA142894143464942FC
:100A2C001F1A55467F1A95E57B07C9080B43F80832
:100A3C0043E64446DB080C4330D142071343C0085D
:100A4C005CE67B07C9080B43F80839E65C189C4246
:100A5C009B4140445B42C7183B0200D425E61D4B2A
:100A6C0001261F4021E60400203AD4406246202A89
:100A7C0004D040226646921B904003435A1E934179
:100A8C001C437EE65C188C4289414044494247181D
:100A9C00DDE623003B4300D1ADE606E644072343E5
:100AAC008024C0082403204208D04246D60826429F
:100ABC0004D155463000CB0851070B435A0FDB00CD
:100ACC00DB085207134319E60023014A1F005EE5B9
:100ADC00FF070000FFFF7FFFF0B557464E46454627
:100AEC00DE46E0B5814605000C03480092461F0027
:100AFC0085B0240B400DCE0F002800D156E1D44B0D
:100B0C00984200D172E16B0FE4001C4380231B045C
:100B1C0023439846CF4BED009B46002399468344D4
:100B2C0000933C037B005046240B5B0DFF0F002B06
:100B3C0000D11FE1C64A934200D162E1C549420F80
:100B4C008C46E40059461443802263441204CB1AA9
:100B5C0014439B46C200002033007B409A464B4610
:100B6C000F2B27D8BC499B00CB589F46B246009B05
:100B7C00022B16D0032B00D18EE2012B00D0D9E032
:100B8C0000230024002552461B052343D2071343A0
:100B9C002800190005B0F0BCBB46B246A946A046D9
:100BAC00F0BD00240025AA4BEDE7BA46A04615007F
:100BBC000090DCE7444500D2C7E100D1C2E101233B
:100BCC005B429C462E0040460025E3442302140E53
:100BDC001C431B0C994623041F0C1202494600921D
:100BEC000197FFF70FFB02007A430B04310C804690
:100BFC0019438A4207D901235B429C460919E044F8
:100C0C008C4200D807E2881A4946FFF7FBFA090420
:100C1C008C4631046646019A090C42430300314369
:100C2C008A4204D90919013B8C4200D8EDE1881A9B
:100C3C00424612041A4390464146009B0E041B0C7C
:100C4C001F000293009B360C1B04190C0B00734302
:100C5C00120C7E43039151437A431F0CBC46761809
:100C6C006644B14203D9802149028C466244310C5E
:100C7C008A1831041E04360C8E19904202D312D1FC
:100C8C00B54210D24346591E009B9C4665441F003A
:100C9C009D429B415B421B19C018844200D2A0E1CB
:100CAC0000D19BE18846AE1BB542AD41801A6D4226
:100CBC00401B844200D1D5E14946FFF7A3FA019AC3
:100CCC000B044243310C050019438A4200D96CE1F4
:100CDC00881A4946FFF796FA019A360442430904EA
:100CEC00360C03000E43B24200D953E10398B61AF6
:100CFC0002002D041D43029F2B041B0C5A437B4303
:100D0C009C46290C4843130C844463447943984211
:100D1C0003D98020400284466144180C12041B0441
:100D2C00120C41189B188E4200D2FFE000D1FAE061
:100D3C0001231D43494A5A44002A00DCAAE06B07F0
:100D4C0000D03DE1ED084346DB0106D54246444B5D
:100D5C001A4090468022D2005A44424B9A4200DDFF
:100D6C001FE743465B071D43434652055C02240BB9
:100D7C00530D08E75246224300D17BE0002C00D1F2
:100D8C00FAE0200001F034F902000B3A1D230100B7
:100D9C009B1A52460839DA408C40144352468A401A
:100DAC00314B58449B4683440020D5E64B462343A5
:100DBC00984644D0002C00D1CEE0200001F018F968
:100DCC00010002000B391D235B1A49461000D94063
:100DDC00083884400B004D462343984685402348F1
:100DEC00831A9B460023994600939AE64B4623436D
:100DFC0098461DD108239946063B0025834600934F
:100E0C008FE65246224309D1022349461943184B17
:100E1C0089469C4600240220E3449DE603234A466F
:100E2C001A43134B91469C4652460320E34493E6E7
:100E3C000C239946093BA0468346009371E6042394
:100E4C00994600239B4601330025009369E6C04672
:100E5C00FF07000001FCFFFFF4D80008FF030000AF
:100E6C00FFFFFFFEFE070000F30300000DFCFFFF79
:100E7C0001F8FFFF4946012319438946002401204C
:100E8C006AE6002380249A4600258A4B24037AE6DE
:100E9C0001256D4201239B1A382B00DD70E61F2BB8
:100EAC0000DCBFE01F2149428A1A4146D1400A00AA
:100EBC00202B04D04146804B5B4499400D436B1E64
:100ECC009D4107232A431D0000241540134200D1E5
:100EDC00D4E00F2100231140042900D1CBE0111DD7
:100EEC009142924152429B180A00190200D4C2E06E
:100EFC0001230024002546E6802341461B031942AA
:100F0C0008D01C4206D11C432403BA461500694B79
:100F1C00240B38E68024434624031C432403B246A6
:100F2C00644B240B2FE6002B00D103E7A619681E97
:100F3C00A64200D28DE08E4200D2A3E000D1B3E0F5
:100F4C000500F5E6AA4200D939E64346DE07580803
:100F5C006B081E43ED0739E6484601F049F80100DD
:100F6C000200153120321C2900DC2CE74B460838D6
:100F7C0083400025984632E701F03AF803001A0046
:100F8C00153220301C2A00DC00E75446083B0022B6
:100F9C009C4005E73619013BB44200D9A6E6B242A3
:100FAC0000D8A3E6831E3619A0E60919013D8C4230
:100FBC0000D98DE68A4200D88AE6851E091987E693
:100FCC000F232B40042B00D1BCE605235B42AB4224
:100FDC009B4104355B42ED089844B4E6AF4200D91E
:100FEC0060E6824204D800D05CE6AE4200D859E6F6
:100FFC0002235B429C46009BE0449C4665449D4218
:10100C009B415B421B19C0184DE68A4200D80EE684
:10101C00831E09190BE68A4200D8F4E5831E984614
:10102C000919F0E52549280059448D4042468A406B
:10103C00691E8D414146D840D94002432A430B00DA
:10104C00510700D151E70F211140042900D046E788
:10105C004BE705008E4200D06AE6009A934200D01E
:10106C0066E667E6164A5A44002A00DC10E70123BC
:10107C000025984467E65D075B021C0BD208002331
:10108C00154380E50098023D42008242BF417F42F9
:10109C003C1936190092DDE78024434624031C4397
:1010AC002403044B240B6EE5009A9A42EAD3050004
:1010BC00D3E7C046FF0700003E0400001E040000FA
:1010CC00FF030000F0B54E464546DE4657469046B7
:1010DC00E0B517001A03120B0500844619480E03DD
:1010EC004C0091465A00DB0F9B46360B640DC90F22
:1010FC00520D844219D0824210D0012094420ED15C
:10110C004E450CD10120C44509D1594517D0002CAE
:10111C0005D130002843431E984100E00120F0BC6B
:10112C00BB46B246A946A046F0BD330001202B4376
:10113C00F5D1A242F3D14B463B43F0D1E2E700207C
:10114C00EDE7C046FF070000F0B54746CE46040069
:10115C00180016001B031B0B2D4D4A00994680B539
:10116C0043000F03A446B0463F0B520DC90F5B0D55
:10117C00C00FAA4221D0AB4213D0002A22D13C434B
:10118C00002B02D14D462E4322D0002C10D0814290
:10119C0022D00220013908400138C0BCB946B04603
:1011AC00F0BD4D462E4329D1002AF0D13C43EED15F
:1011BC000028F2D101204042EFE73D0025431DD12C
:1011CC009342EED0002BE2D14C462643DFD1E0E730
:1011DC000020002CE1D0DCE79A420ADCE8DB4F452A
:1011EC00D7D80ED000204F45D7D20029E2D0080026
:1011FC00D3E74342584140000138CEE70220404239
:10120C00CBE7C445C5D80020C445C6D2EDE7C046DF
:10121C00FF070000F0B54746CE4604001800160044
:10122C001B031B0B2C4D4A00994680B543000F0342
:10123C00A446B0463F0B520DC90F5B0DC00FAA421E
:10124C000DD0AB4210D0002A27D13C43002B11D13A
:10125C004D462E430ED10020002C15D00EE03D0043
:10126C00254310D1934218D14D462E430BD1002A61
:10127C0002D13C43002C0BD0814214D00220013906
:10128C000840013800E00220C0BCB946B046F0BDB1
:10129C000028F9D101204042F6E7002BECD14C4656
:1012AC002643E9D1EAE79A4204DD43425841400023
:1012BC000138E9E79A42EBDB4F45DFD806D0002036
:1012CC004F45E1D20029E5D00800DDE7C445D5D86B
:1012DC000020C445D8D2F5E7FF070000F0B557460B
:1012EC004E464546DE46E0B598460C034B000600DC
:1012FC00924687B0240B5B0DCF0F002B00D15CE125
:10130C00D94A934200D175E1420FE4001443802284
:10131C0012041443D54AC500944663440093002339
:10132C0099469B46434642461E03D20F5B005046ED
:10133C009046360B5B0D00D120E1CB4A934200D195
:10134C0062E1CA49420F8C4600996344F6008C4610
:10135C00164380229C44120463461643C2000020AC
:10136C0000930099434601318C4649467B400193DA
:10137C000F2926D8BE4B890059588F4643460193F6
:10138C003400150083465B46022B16D0032B00D18C
:10139C0003E2012B00D0CDE0002200240025019BAC
:1013AC0012052243DB071A432800110007B0F0BCDA
:1013BC00BB46B246A946A046F0BD00240025AA4A69
:1013CC00EDE7280C2D042D0C2B00110C1204120C23
:1013DC005343984613002F00434399464F434F44C1
:1013EC00BB4647460B003F0CBA464343DA440293D4
:1013FC00D14504D980277F02B9464B44029353460A
:10140C001B0C9B4653461F0443461B041B0C98465F
:10141C003B0043440493330C3604360C984633009B
:10142C0043439946434643432F009A4643467743EA
:10143C005D43380C4D444519A94503D980235B0203
:10144C009946CA443F04280C3F0C2D04ED19270C77
:10145C002404240C0300200050437A4391463A00A4
:10146C0053440593030C9A464A43614349445144FF
:10147C00AB44894503D980235B0299464A44000456
:10148C000B0C000C090409182000994643467043C4
:10149C005C437E435F43030C9846A41944444A447E
:1014AC000397A64204D980235B02984647440397CE
:1014BC002304029E9A46059B5E449846AE42AD417B
:1014CC0076188E4289410004000C504440446D4211
:1014DC004719B846934649428946C344D944984271
:1014EC008041A845AD4193459241894589416D4262
:1014FC0040422843240C524249420A43039B0019A0
:10150C008018C7184B46DC0D049B75021D436A1EE0
:10151C0095414B46F60D7F0235435A023C43154329
:10152C00FB0100D41CE101216A080D401543E207C0
:10153C00154364084F496144002900DCB0E06B0797
:10154C0009D00F222A40042A05D02A1DAA42AD41F7
:10155C006D4264191500E30104D58021464AC90087
:10156C0014406144454A914200DD26E76207ED08CC
:10157C00640249051543240B4A0D10E752463243C9
:10158C0000D17FE0002E00D1DCE0300000F030FD17
:10159C0002000B3A1D2301009B1A52460839DA400F
:1015AC008E40164352468A40009B3549181A030058
:1015BC008C46634400200093D3E6250005434AD0B3
:1015CC00002C00D1B0E0200000F012FD0100020060
:1015DC000B391D2310005B1A31003500083884408C
:1015EC00D94085400C432648831A00930023994622
:1015FC009B4697E60500254326D10822009302233B
:10160C00002491469B468DE65246009B324310D1F6
:10161C00154900268C46634449460093022319431E
:10162C00894602209DE65B460197022B00D0ADE671
:10163C00C3E60D4A0320944663444A4600930323B1
:10164C001A43914652468CE60C2200930323050064
:10165C0091469B4666E6042399460023009301338A
:10166C0000249B465EE6C046FF07000001FCFFFF1E
:10167C0034D90008FF030000FFFFFFFEFE07000047
:10168C000DFCFFFF49460123194389460026012022
:10169C0067E6002380240025434A019324037EE659
:1016AC000120401A382800DD76E61F285BDD1F225A
:1016BC0023005242511ACB401900202803D03B4A38
:1016CC006244944025436A1E95412A000A4307212F
:1016DC000D000024154011425BD00F210024114055
:1016EC00042953D0111D914292415242A4180A0070
:1016FC0023024BD501220024002550E680231B0336
:10170C001C4209D01E4207D133431C03434615002B
:10171C00240B254A019342E680221203144324032E
:10172C00214A240B01973AE600F062FC010002000A
:10173C00153120321C2900DC4BE734000838002519
:10174C00844050E700F054FC03001A00153220309E
:10175C001C2A00DC1EE75646083B00229E4023E76D
:10176C00009B9C46E6E61249220061442E008D4007
:10177C008A40C640691E8D4132432A43C4405307F8
:10178C00B6D00F2111400429ACD1B1E76507640232
:10179C00240BD2081543002201E6802212031443C5
:1017AC002403014A240BFAE5FF0700003E04000065
:1017BC001E040000F8B557464E464546DE46E0B5D9
:1017CC001E0017004A000B03520D5B0A9046420F95
:1017DC001A43CD0FCD4C3103C300944670007A0FE1
:1017EC00490AFF009A46B946400DF60F1143A04234
:1017FC0000D1B1E001225640B346B54200D188E099
:10180C004246121A002A00DCAEE0002800D1C1E0EA
:10181C00BE48804500D151E1802000040143382AA4
:10182C0000DD7BE11F2A00DDEEE120203E00801A66
:10183C000C00D640D140874062468440521A781E34
:10184C008741944634432743DC1BA3429B416246A9
:10185C005B42D31A99464B461B0200D418E14B4607
:10186C005802430A99464B46002B00D137E14846B3
:10187C0000F0BEFB010008392023220048465B1A09
:10188C00DA4088408C4043461043884500DD36E101
:10189C00C91A4B1C1F2B00DDEAE020222600D21AAD
:1018AC0001009440DE40D84000239140621E9441D8
:1018BC008146984631430C43630709D00F232340DC
:1018CC00042B05D0231DA342A4416442A1441C0057
:1018DC004B461B0200D4DEE041468C4B0131994251
:1018EC0000D1E7E04B468A48E4080340180049055C
:1018FC005B07400223434A0D040B1205ED072243FC
:10190C002A4318001100F0BCBB46B246A946A046BB
:10191C00F8BD4246121A002A52DD002800D19CE084
:10192C00A04500D1CAE0802000040143382A00DD24
:10193C0049E11F2A00DC97E110000E002038C64058
:10194C00202A04D04020821A91400F43B9464C46BD
:10195C00621E944134433AE10A003A4328D0B3461C
:10196C00B5422BD06B4A4244002A5DD042464446D5
:10197C00821A002C00D0F5E065461D4300D19CE195
:10198C00551E012A00D1FBE1604CA24200D1BDE101
:10199C002A00F0E00800384300D1C3E0501E012AB1
:1019AC0000D1A8E1594CA24200D187E0020036E7F1
:1019BC0001225640B346B54200D021E7554A424475
:1019CC00002A00D1B5E042464446821A002C00D1D0
:1019DC0038E14E4EB04200D1DEE18026644636043A
:1019EC003443A446382A00DD96E11F2A00DD24E2A8
:1019FC002026B41AA24664465646B440A1461C00A2
:101A0C004E46D440264334005646B3405E1EB34186
:101A1C001C436346D340C918E419BC42BF417F4202
:101A2C00B94680468944D8E040463B4C01302042C0
:101A3C0000D0B4E04046002800D044E16046184392
:101A4C0000D190E10800384300D0AAE16146DB08E0
:101A5C0049070B436146CC0827E00800384361D0A6
:101A6C00501E012A00D139E1A24227D002005DE7C5
:101A7C0002001F39CA401100202B03D04022D31A78
:101A8C0098400443631E9C410023994698460C439E
:101A9C00630700D012E74B464A46E4085B07234332
:101AAC00D408424619498A420ED024035205240B0D
:101ABC00520D22E70A00002400231EE7DB086246D1
:101ACC00520713436246D4081A00224300D1FCE1AA
:101ADC0080221203144324030C4A240B0DE720002C
:101AEC0000F086FA010018311F2900DCC4E6083822
:101AFC008440434620000024884500DCC8E6044AA4
:101B0C005B1A104098468146D6E6C046FF07000097
:101B1C00FFFF7FFF01F8FFFFFE0700000F437A1E57
:101B2C00974191E66146DB0849070B436146CC08B7
:101B3C00B8E74046D34C0130204200D0A2E04046EA
:101B4C00002800D001E16046184300D15EE1080096
:101B5C00384300D05FE16146DB0849070B4361461F
:101B6C00CC08A2E7C84DA84200D1CFE0802564463E
:101B7C002D042C43A446382A56DC1F2A00DDD1E064
:101B8C0020251E00AD1A6446AB40AC40D6405D1E0D
:101B9C00AB41344323436446D440091B49E06046BF
:101BAC00DC1B461AA34280414042814630004E461F
:101BBC00801B8146000276D44B46234300D052E66C
:101BCC000024002571E739430C00621E9441E4188F
:101BDC009C429B415B42634499464B461B0200D49A
:101BEC0056E701239C46A84BE044984538D04B4619
:101BFC00A648012203401800630814401C43C30785
:101C0C001C434308994657E610000E002038C64086
:101C1C00202A04D04020821A91400F43B9464F46E7
:101C2C007A1E974137430FE662461A4313005A1E39
:101C3C009341FC1AA742BF417F42CB1B99465D469C
:101C4C00804608E666461E4300D1BEE0561E012AB9
:101C5C0000D109E18C4CA24200D119E13200C1E65D
:101C6C0042460024002348E620200C00801A3E0047
:101C7C0087408440D640781E8741D14034433C4352
:101C8C008C44A4E7804A904200D1E9E0DF199F42DE
:101C9C009B4161445B42C918CC077F084B089946AD
:101CAC0080463C43F4E6FC1AA742BF4163467F42A0
:101CBC00C91ACB1B99465D46D5E5FF084B075D4617
:101CCC003B43CC08EEE662461A4300D082E00B00A0
:101CDC003B431BD1802400252403F9E6DC199C42EC
:101CEC009B41614489465B4299444B461B0244D458
:101CFC0001239846CCE6DC1B6246A3429B41511A59
:101D0C005B42CB1A994601239846A4E5FF084B0782
:101D1C005D463B43CC08D7E662461A431400631E6B
:101D2C009C4179E615006446203DEC40A046202AF3
:101D3C0005D040256446AA1A944023439A4654463B
:101D4C00631E9C414346234373E762461A4323D0E8
:101D5C000A003A4300D0A0E06246DB085207134366
:101D6C006246D408B0E60B003B4300D128E7FF08DD
:101D7C004B075D463B43CC0897E60223984636E773
:101D8C00FC1AA742BF4163467F42C91ACB1B994636
:101D9C0001235D4698465EE54B07FF083B43CC08A4
:101DAC0092E6DC1B6046A342B641401A7642801B89
:101DBC008146000260D5FC1AA742BF4163467F42B0
:101DCC00C91ACB1B99465D4676E5FF084B073B438A
:101DDC00CC0867E60A00DB083A4300D16FE662469E
:101DEC00520713436246D40880221203144207D0D0
:101DFC00C808104204D15D460400FB0849070B4398
:101E0C005A0FDB00DB08520713435DE64B07FF0854
:101E1C003B43CC0849E6DC199C429B416144894612
:101E2C005B4299444B461B0200D431E64A46174BA1
:101E3C001A400123914698462AE616006446203E35
:101E4C00F440A046202A05D040266446B21A94409D
:101E5C0023439A465446631E9C4143461C43DBE590
:101E6C0002000024002348E5DC19BC42BF41614458
:101E7C0089467F42B94438E74B46234300D19FE65D
:101E8C0006E6C046FE070000FF070000FFFF7FFFCD
:101E9C00FF084B073B43CC0816E66246DB085207AB
:101EAC0013436246D40880221203144207D0C80898
:101EBC00104204D15D460400FB0849070B435A0F3E
:101ECC00DB005207DB081343FEE50023014A1C002C
:101EDC0013E5C046FF0700000A0030B5134C530051
:101EEC0009030500090B00205B0DD20FA34204DD92
:101EFC000F48834202DD0F4BD01830BD80204003C9
:101F0C0001430D48C01A1F2808DD0C48C31AD940DC
:101F1C000B005842002AF0D11800EEE7084CC540DF
:101F2C00A446634499400B002B43F2E7FE030000E8
:101F3C001D040000FFFFFF7F3304000013040000AA
:101F4C00EDFBFFFF70B5002816D0C317C5185D4018
:101F5C00C40F280000F04CF8114A121A0A2816DC9B
:101F6C0003002E0015339E400B23181AC540520552
:101F7C002D032D0B530D03E0002400230025002618
:101F8C001B052B43E40723433000190070BD0B38AD
:101F9C00854052052D0300262D0B530DF0E7C0464E
:101FAC001E04000010B5041E10D000F021F80F4BD9
:101FBC001B1A0A2811DC0B222100121AD1401530F1
:101FCC000A035B058440120B5B0D01E00023002229
:101FDC001B0513432000190010BD22000B38824052
:101FEC005B0512030024120B5B0DF1E71E040000CD
:101FFC001C2101231B04984201D3000C10391B0A2D
:10200C00984201D3000A08391B09984201D30009F0
:10201C00043902A2105C40187047C0460403020247
:10202C0001010101000000000000000080B582B039
:10203C0000AF0200FB1D1A70FB1D1B787F2B09D80B
:10204C00FB1D1B781A001F231A40044B01219140E1
:10205C000A001A60C046BD4602B080BD00E100E037
:10206C0090B583B000AF02003960FB1D1A70FB1DE8
:10207C001B787F2B28D82F4AFB1D1B785BB29B0843
:10208C00C0339B009B58FA1D1278110003220A40A2
:10209C00D200FF2191400A00D2431A4011003B6844
:1020AC009B01FF221A40FB1D1B78180003230340E1
:1020BC00DB009A401F48FB1D1B785BB29B080A4350
:1020CC00C0339B001A5031E01B4AFB1D1B781900D2
:1020DC000F230B40083B9B0806339B00D31804339B
:1020EC001B68FA1D1278110003220A40D200FF214E
:1020FC0091400A00D2431A4011003B689B01FF2219
:10210C001A40FB1D1B78180003230340DB009A4088
:10211C000948FB1D1B781C000F232340083B9B0820
:10212C000A4306339B00C31804331A60C046BD46ED
:10213C0003B090BD00E100E000ED00E080B582B09E
:10214C0000AF78607B681B6801221A437B681A60B9
:10215C00C046BD4602B080BD80B582B000AF78608D
:10216C007B681B68034A1A407B681A60C046BD46F0
:10217C0002B080BDFFFFFFDF80B586B000AF786096
:10218C003960EFF31083BB60BB687B610123FB609C
:10219C00FB6883F31088C0467B689B68DB00DA0819
:1021AC003B685B071A437B689A607B693B613B69C0
:1021BC0083F31088C046C046BD4606B080BD000003
:1021CC0080B586B000AF78603960EFF31083BB60E8
:1021DC00BB687B610123FB60FB6883F31088C046FE
:1021EC007B689B68084A1A403B685B061A437B680D
:1021FC009A607B693B613B6983F31088C046C0469B
:10220C00BD4606B080BDC046FFFFFFF180B582B071
:10221C0000AF78607B685B68074A1A407B685A603D
:10222C007B689B682A2293431A007B689A60C0469D
:10223C00BD4602B080BDC046FFB7FFFF80B582B07F
:10224C0000AF78607B68DA6980239B031A40802397
:10225C009B039A4201D1012300E000231800BD46E4
:10226C0002B080BD80B582B000AF78607B68DA695F
:10227C008023DB031A408023DB039A4201D1012324
:10228C0000E000231800BD4602B080BD80B586B0CA
:10229C0000AF7860EFF31083BB60BB687B610123F8
:1022AC00FB60FB6883F31088C0467B681B682022A8
:1022BC001A437B681A607B693B613B6983F3108826
:1022CC00C046C046BD4606B080BD80B586B000AFE6
:1022DC007860EFF31083BB60BB687B610123FB600C
:1022EC00FB6883F31088C0467B689B6801221A4305
:1022FC007B689A607B693B613B6983F31088C046BD
:10230C00C046BD4606B080BD80B582B000AF7860D7
:10231C007B685B6A9BB2DB05DB0D9BB21800BD468C
:10232C0002B080BD80B582B000AF7860044B1968F4
:10233C00034B7A680A431A60C046BD4602B080BDA2
:10234C000000014080B582B000AF786039607B68D6
:10235C003A689A61C046BD4602B080BD80B582B075
:10236C0000AF786039607B683A689A62C046BD46B7
:10237C0002B080BD80B584B000AF7860074BD96BDC
:10238C00064B7A680A43DA63044BDB6B7A681340BA
:10239C00FB60FB68C046BD4604B080BD0010024027
:1023AC0080B584B000AF7860074B596B064B7A68E8
:1023BC000A435A63044B5B6B7A681340FB60FB68FF
:1023CC00C046BD4604B080BD0010024090B58FB031
:1023DC0002AF2A23FB1800221A802823FB180022A4
:1023EC001A802623FB1800221A802423FB180022B3
:1023FC001A802223FB18012252421A8002F014FE8A
:10240C0000F036F9904B5A6B8F4B01210A435A63FB
:10241C008D4B5B6B01221340FB60FB688A4B5A6B44
:10242C00894B02210A435A63874B5B6B0222134090
:10243C00BB60BB68844B5A6B834B04210A435A63C1
:10244C00814B5B6B042213407B607B6800F060FC6B
:10245C0000F040FC00F044FB00F068F900F046FA94
:10246C0000F0F4FB00F0D4F900F092F900F0FAF966
:10247C00764B180003F0A6F8642002F05BFE01F026
:10248C00ABFD00F083FE012002F054FE00F01AFFB9
:10249C0002F092F801F0A0F802F07CF96C4B1A688B
:1024AC006B4B6C490A431A60694B1800FFF7EEFE40
:1024BC00674B1800FFF709FF654B1A6A644B08213C
:1024CC000A431A6202F0DAF8012001F045F8002103
:1024DC00012001F05FF8002001F03EF8302141208E
:1024EC0001F058F8012001F037F80021102001F01C
:1024FC0051F800212E2001F04DF82123FB18022267
:10250C001A702023FB1804221A701F23FB18262292
:10251C001A701E23FB1810221A702F217B1801220F
:10252C001A701D23FB18F1221A701C23FB180122B0
:10253C001A701B23FB1804221A701A23FB1807228B
:10254C001A701923FB180E221A701823FB1800227C
:10255C001A7017203B1800221A707B1801221A706F
:10256C003B181B7801221340DBB2002B02D07B18E6
:10257C0002221A7018203A181A23FB1812781B78AA
:10258C00D318DBB2013BDCB21923FA182F23FB184A
:10259C0012781B78D31ADAB217217B181B78D31850
:1025AC00DAB27B1819783B1818782B4B0193FF2360
:1025BC0000931300220000F0E9FE2E23FB180022EA
:1025CC001A701CE0254B5A69244B40210A435A616E
:1025DC00224B5A69214B40218A435A61204B214A94
:1025EC002149224805F06AF8FA235B00180002F032
:1025FC00A1FD2E22BB18BA18127801321A702E23A4
:10260C00FB181B78002BDDD0144B5A69134B40215F
:10261C008A435A612D23FB1800221A700DE000200A
:10262C0001F038FDFA239B00180002F083FD2D22E7
:10263C00BB18BA18127801321A702D23FB181B78AC
:10264C00012BECD9FEE7C0460010024090000020A0
:10265C00004400400D100010300000200008005015
:10266C00881300008F1E000074D90008140100208C
:10267C0090B593B000AF10243B19180038231A0002
:10268C0000210AF00DF93B00180010231A0000215C
:10269C000AF006F980239B00180005F01FFB3B197C
:1026AC0002221A603B1980225200DA6021007B184A
:1026BC0000221A617B1840225A617B180222DA61CF
:1026CC007B1802221A627B1800225A627B1808229D
:1026DC009A627B1880229202DA627B188022920422
:1026EC001A637B18802292055A637B18180005F038
:1026FC0041FB031E01D002F07FF83B0007221A6059
:10270C003B0002225A603B0000229A603B000022F0
:10271C00DA603B000221180005F046FE031E01D0D2
:10272C0002F06AF8C046BD4613B090BD80B500AF4C
:10273C00154B164A1A60144B802252001A61124B28
:10274C0030225A61104B0022DA610F4B00229A6042
:10275C000D4B00229A610C4B802292031A620A4B99
:10276C000022DA60084B00225A60074B12225A6290
:10277C00054B180002F0C4FD031E01D002F03CF81A
:10278C00C046BD4680BDC0469000002000020140FE
:10279C0080B500AF1B4B1C4A1A601A4B1B4A5A607F
:1027AC00184B00229A60174B0122DA60154B00225D
:1027BC001A61144B00225A61124B00229A61114B80
:1027CC000022DA610F4B00221A620E4B180003F044
:1027DC0055FC031E01D002F00FF80A4B0021180023
:1027EC0004F0DEFD031E01D002F006F8054B0021BB
:1027FC00180004F021FE031E01D001F0FDFFC046BD
:10280C00BD4680BDC0000020005400402C10941028
:10281C0080B500AF114B124A1A60104B8022920007
:10282C005A600E4B00229A600C4B0022DA600B4B64
:10283C00802292001A61094BFA2292015A61074BCD
:10284C0000229A61054B180004F042FE031E01D0D1
:10285C0001F0D2FFC046BD4680BDC0461401002029
:10286C000030014080B500AF1E4B0822DA611D4BD1
:10287C001D4A1A601B4B822252005A60194B0022CF
:10288C009A60184BE022D200DA60164B02221A61D1
:10289C00144B01225A61134B802292009A61114B06
:1028AC001022DA610F4B00221A620E4B00225A6280
:1028BC000C4B00229A620B4B0722DA62094B002266
:1028CC001A63084B00225A63064B180006F016FCDC
:1028DC00031E01D001F090FF024B0822DA61C046C2
:1028EC00BD4680BDAC0100200038004080B59EB0D4
:1028FC0000AF6823FB18180010231A00002109F000
:10290C00CFFF5C23FB1818000C231A00002109F0E0
:10291C00C7FF5023FB1818000C231A00002109F0E4
:10292C00BFFF3423FB1818001C231A00002109F0E8
:10293C00B7FF3B00180034231A00002109F0B0FF48
:10294C00644B654A1A60634B00225A60614B00224B
:10295C009A60604B614ADA605E4B00221A615D4BF3
:10296C0000225A615B4B80229A615A4B180007F087
:10297C00E3FB031E01D001F03FFF68217B1880228E
:10298C0052011A607A18534B1100180007F076FEAA
:10299C00031E01D001F030FF4E4B180007F024FC51
:1029AC00031E01D001F028FF5C217B1800221A6065
:1029BC007B1800225A607B1800229A607A18454BCB
:1029CC001100180008F034FB031E01D001F014FFB5
:1029DC0050217B1802221A607B1801225A607B1846
:1029EC0000229A607A183B4B0121180008F034FC45
:1029FC00031E01D001F000FF34217B1860221A6005
:102A0C007B18962252005A607B1800229A607B1821
:102A1C000022DA607B1804221A617B1800225A61AA
:102A2C007B1800229A6179182A4B0022180007F0B3
:102A3C0025FD031E01D001F0DFFE34217B1832226C
:102A4C005A607918234B1022180007F017FD031E4B
:102A5C0001D001F0D1FE3B00802212011A603B0034
:102A6C008022D2005A603B0000229A603B00002278
:102A7C00DA603B00802252011A613B0080229201F5
:102A8C005A613B000A229A613B000022DA613B004A
:102A9C0000221A623B00802292045A623B00002200
:102AAC009A623B000022DA623B008022D2011A6358
:102ABC003A00084B1100180008F028FB031E01D047
:102ACC0001F09AFE034B180002F0C4F8C046BD4654
:102ADC001EB080BD10020020002C01407F020000BF
:102AEC0090B59DB000AF5023FB18180020231A009E
:102AFC00002109F0D5FE3823FB18180018231A0002
:102B0C00002109F0CDFE3B1D180034231A000021D2
:102B1C0009F0C6FE3B1D02221A603B1D00229A6082
:102B2C003B1D180005F0EAFD031E01D001F064FE08
:102B3C0080239B021800FFF71DFC0120FFF730FCDF
:102B4C0038243B1904221A603B1902225A603B19A3
:102B5C0003229A603B190022DA603B1900221A61A9
:102B6C003B1901225A613A19A023DB051100180008
:102B7C0009F014FB21007B1808221A607B18022232
:102B8C005A607B1803229A607B180122DA607B184A
:102B9C0001221A617B1801225A617A18A023DB05E5
:102BAC001100180009F0FAFA00211C20FFF758FA5E
:102BBC001C20FFF73BFA50217B1800221A607B186F
:102BCC00E12212025A607B18802252019A607B1813
:102BDC000022DA607B1800221A617B180C225A61E1
:102BEC007B1800229A617B180022DA617B18164A46
:102BFC001900100009F0A2FD134B00211800FFF77B
:102C0C00BBFA114B00211800FFF7DAFA0E4B180033
:102C1C00FFF7A2FA0C4B1800FFF7F8FA0A4B180052
:102C2C00FFF78CFAC046084B1800FFF707FB031E92
:102C3C00F9D0054B1800FFF715FB031EF3D0C04667
:102C4C00C046BD461DB090BD0044004080B500AFED
:102C5C001C4B5A681B4B802109030A435A601A4BC0
:102C6C00184A1A60184B194A5A60174B00229A607E
:102C7C00154B0022DA60144B00221A61124B082209
:102C8C005A61114B8022D2009A610F4B8022920024
:102C9C00DA610D4B802252001A620B4B00225A62F1
:102CAC00094B00221A64084B180008F081FB031E24
:102CBC0001D001F0A1FD044B054A5A60C046BD4647
:102CCC0080BDC046004800405C02002000093D0069
:102CDC0000127A0080B582B000AF0C4B9A6B0B4B94
:102CEC0001210A439A63094B9B6B012213407B60C1
:102CFC007B6800220021092002F062FD092002F00D
:102D0C0074FDC046BD4602B080BDC04600100240F6
:102D1C0080B586B000AF3B00180018231A000021C4
:102D2C0009F0BEFD0220FFF73BFB0420FFF738FB48
:102D3C000120FFF735FB80239B008F4A1900100000
:102D4C00FFF700FB8023DB018C4A19001000FFF712
:102D5C00F9FA80231B02894A19001000FFF7F2FAD6
:102D6C00A023DB0540211800FFF7ECFAA023DB05BC
:102D7C0080211800FFF7E6FA804B40211800FFF77E
:102D8C00EDFA80231A01A023DB0511001800FFF7D0
:102D9C00E5FA80235A01A023DB0511001800FFF788
:102DAC00DDFA3B00802292001A603B0001225A603F
:102DBC003B0003229A603B000022DA603B000122B8
:102DCC001A613B006C4A1900100009F0E7F93B004E
:102DDC008022D2011A603B0001225A603B00002283
:102DEC009A603B000022DA603B0001221A613B0032
:102DFC00624A1900100009F0D1F93B00802212023E
:102E0C001A603B0001225A603B0000229A603B0092
:102E1C000022DA603B0001221A613B00574A19007C
:102E2C00100009F0BBF93B0001221A603B000022A4
:102E3C005A603B0001221A613A00A023DB05110005
:102E4C00180009F0ABF93B0002221A603B0000228B
:102E5C005A603B0001221A613A00A023DB051100E5
:102E6C00180009F09BF93B0010221A603B0000226D
:102E7C005A603B0001221A613A00A023DB051100C5
:102E8C00180009F08BF93B0040221A603B0001222C
:102E9C005A603B0003229A603B000022DA603B0040
:102EAC0000221A613A00A023DB051100180009F07A
:102EBC0075F93B0080221A603B0001225A603B00EE
:102ECC0003229A603B000022DA603B0000221A6168
:102EDC003A00A023DB051100180009F05FF93B0054
:102EEC0040221A603B0001225A603B0003229A6088
:102EFC003B000022DA603B0000221A613B001F4AB3
:102F0C001900100009F04AF93B00802212011A60E6
:102F1C003B0001225A603B0003229A603B000022D6
:102F2C00DA603B0000221A613A00A023DB05110095
:102F3C00180009F033F93B00802252011A603B0063
:102F4C0001225A603B0003229A603B000022DA60A7
:102F5C003B0000221A613A00A023DB051100180087
:102F6C0009F01CF980231B031800FFF7DBF9C0469E
:102F7C00BD4606B080BDC04600040050000800509D
:102F8C0080B500AF144B1800FFF7BEF903001A0010
:102F9C00124B1A80124B01221A70104B1B881A000C
:102FAC0080235B0013400AD00C4B1B88DAB20D4B0C
:102FBC001A700D4B00221A800C4B01221A700B4B0D
:102FCC001B78012B04D1054B1B88180000F042F82C
:102FDC00C046BD4680BDC046004400401A030020D8
:102FEC0018030020E80200201C0300201903002015
:102FFC0080B582B000AF7860A023DB055A69A023AE
:10300C00DB0580218A435A61A023DB055A69A02382
:10301C00DB0540210A435A61034B00221A70C0465B
:10302C00BD4602B080BDC0461E03002080B582B0F4
:10303C0000AF786001F08CFAC046BD4602B080BD8E
:10304C0080B582B000AF786001F08CFAC046BD4606
:10305C0002B080BD80B584B000AF0200BB1D1A80E9
:10306C000F23FB1800221A70C046394B1B78002B1B
:10307C00FBD0374B00221A70364B1B881A00BB1D35
:10308C001B88D9B2344B9954324B1B8801339AB2FA
:10309C00304B1A802F4B1B88002B4FD02D4B1B888D
:1030AC001A002D4B5B7801339A4247DD0F23FB1836
:1030BC0000221A700FE00F217B181B78264AD25C75
:1030CC00264B1B78D318DAB2244B1A707B181A785B
:1030DC007B1801321A70204B5B785A1C0F217B181D
:1030EC001B789A42E7DA1D4B1B78002B22D0194B28
:1030FC001B881A00184B5B7802339A421AD1184B72
:10310C0000221A707B1800221A700AE00F203B185C
:10311C001B78114A0021D1543B181A783B18013204
:10312C001A700D4B5B785A1C0F23FB181B789A42B4
:10313C00ECDA03E0084B180000F008FB094B1A6AA4
:10314C00084B08210A431A62C046BD4604B080BD34
:10315C00180300201C030020E8020020200300209C
:10316C00190300200044004080B582B000AF02007B
:10317C00FB1D1A70F91D04480A23012208F068F996
:10318C00C046BD4602B080BD5C02002080B500AFD9
:10319C004A4B1A68494B01218A431A60474B5A68BB
:1031AC00464B802109030A435A60444B1A68434B2F
:1031BC0001210A431A60012001F0BCFF012001F03B
:1031CC00B9FF3F4B0021180007F06EF8012001F009
:1031DC00B1FFA023DB055A69A023DB0540218A43FC
:1031EC005A61A023DB055A69A023DB0580218A43A1
:1031FC005A61AF20FFF7B8FFB820FFF7B5FF0020EA
:10320C00FFF7B2FF0020FFF7AFFF0120FFF7ACFF85
:10321C000220FFF7A9FF0420FFF7A6FF0720FFF706
:10322C00A3FF0B20FFF7A0FF0E20FFF79DFF12203E
:10323C00FFF79AFF1720FFF797FF1B20FFF794FF6C
:10324C002120FFF791FF2820FFF78EFF3120FFF799
:10325C008BFF3F20FFF788FFA020FFF785FF522050
:10326C00FFF782FF8120FFF77FFFFF20FFF77CFF36
:10327C00A120FFF779FF0020FFF776FFA220FFF7D0
:10328C0073FF0020FFF770FFA820FFF76DFF7F2072
:10329C00FFF76AFFA023DB055A69A023DB05802119
:1032AC000A435A61A023DB055A69A023DB054021A0
:1032BC000A435A61C046BD4680BDC0460048004026
:1032CC001002002080B582B000AFA023DB055A6944
:1032DC00A023DB0540218A435A61A023DB055A69F0
:1032EC00A023DB0580218A435A617520FFF73CFF40
:1032FC000020FFF739FF7F20FFF736FF1520FFF77F
:10330C0033FF0020FFF730FF7F20FFF72DFFA023B6
:10331C00DB055A69A023DB0540218A435A61A023AF
:10332C00DB055A69A023DB0580210A435A61BB1DCA
:10333C0000221A800DE0C046124BDB69802213403C
:10334C00FAD0104B00229A62BB1D1A88BB1D0132A9
:10335C001A80BB1D1B880C4A9342ECD9A023DB05B9
:10336C005A69A023DB0580218A435A61A023DB051F
:10337C005A69A023DB0540210A435A61C046BD4669
:10338C0002B080BD0048004001200000F0B585B0BF
:10339C0000AF05000C0010001900FB1D2A1C1A7050
:1033AC00BB1D221C1A707B1D021C1A703B1D0A1CB3
:1033BC001A700E243B1900221A80FB1D1B785BB27D
:1033CC00002B00DAC1E0BB1D1B785BB2002B00DACE
:1033DC00BBE07B1D1B785BB2002B00DAB5E03B1D1C
:1033EC001B785BB2002B00DAAFE00D257B19FA1DC0
:1033FC0012781A700C26BB19BA1D12781A700B238E
:10340C00FB187A1D12781A700A22BB183A1D127812
:10341C001A70A023DB055A69A023DB0540218A43DF
:10342C005A61A023DB055A69A023DB0580218A435E
:10343C005A617520FFF798FE7B191B781800FFF76F
:10344C0093FE0B23FB181B781800FFF78DFE15203D
:10345C00FFF78AFEBB191B785B08DBB21800FFF77D
:10346C0083FE0A22BB181B785B08DBB21800FFF73F
:10347C007BFEA023DB055A69A023DB0580210A43D0
:10348C005A61A023DB055A69A023DB0540210A43BE
:10349C005A61A023DB055A69A023DB0540218A432E
:1034AC005A61A023DB055A69A023DB0580210A435E
:1034BC005A613B1900221A8012E0C046254BDB6989
:1034CC0080221340FAD00E217B181B88FA6AD3187D
:1034DC001A78204B9A627B181A887B1801321A8052
:1034EC000E23FB181A880B23FB1819780D23FB18D5
:1034FC001B78CB1A01330A21791809784908C9B20B
:10350C0008000C21791809784908C9B2411A01310F
:10351C004B439A42D1DBC0460E4BDB6980221340F1
:10352C00FAD0012001F006FEA023DB055A69A02386
:10353C00DB0580218A435A61A023DB055A69A0234D
:10354C00DB0540210A435A6100E0C046BD4605B088
:10355C00F0BDC0460048004080B586B002AF020006
:10356C00FB1D1A700C217B1800221A707B18FA1D97
:10357C0012785A707A180648FA239B00009302239B
:10358C00302102F011FEC046BD4604B080BDC046DD
:10359C00C000002080B586B002AF0200FB1D1A707F
:1035AC00BB1D0A1C1A700C217B18FA1D12781A709C
:1035BC007B18BA1D12785A707A180648FA239B00A9
:1035CC0000930223302102F0EFFDC046BD4604B04B
:1035DC0080BDC046C000002080B500AF0020FFF7C2
:1035EC00BBFF01210120FFF7D5FF0120FFF7B4FF3E
:1035FC0000210220FFF7CEFF0F2001F09BFD0020E1
:10360C00FFF7AAFF03210420FFF7C4FF9121052037
:10361C00FFF7C0FF04210620FFF7BCFF00210720A5
:10362C00FFF7B8FF00210820FFF7B4FF0F2001F0CF
:10363C0081FD84210B20FFF7ADFF82210C20FFF7C9
:10364C00A9FF00210D20FFF7A5FF80210E20FFF719
:10365C00A1FF00211B20FFF79DFF00211C20FFF77D
:10366C0099FF02213C20FFF795FF0120FFF774FF23
:10367C0010210120FFF78EFF00210A20FFF78AFF9F
:10368C0000210C20FFF786FF00211620FFF782FF98
:10369C0000211820FFF77EFF00211920FFF77AFF89
:1036AC0000210920FFF776FF00211020FFF772FFA1
:1036BC0000212E20FFF76EFF10213020FFF76AFF4C
:1036CC0002212D20FFF766FF0020FFF745FF902118
:1036DC003F20FFF75FFF00214120FFF75BFF042134
:1036EC004020FFF757FFC046BD4680BD90B583B064
:1036FC0000AF040008001100FB1D221C1A70BB1D3A
:10370C00021C1A707B1D0A1C1A700020FFF724FF84
:10371C00BB1D1B7819004120FFF73CFF0120FFF770
:10372C001BFF00211020FFF735FF7B1D1B781900B4
:10373C002E20FFF72FFFFB1D1B7819003020FFF701
:10374C0029FFC046BD4603B090BD000080B584B0D3
:10375C0000AF78600F217B18FF221A700D23FB1825
:10376C0000221A70D44B01221A70D44B00221A700A
:10377C007B681A787B681A707B681B7880225242AF
:10378C001343DBB29AB2CE4B1A807B681B780F2B9B
:10379C0000D861E17B681B78152B00D95CE1A02374
:1037AC00DB051B691022134005D17B187A1812789F
:1037BC0001218A431A70A023DB051B6902221340E6
:1037CC0006D10F22BB18BA18127802218A431A703C
:1037DC00A023DB051B690122134006D10F22BB1865
:1037EC00BA18127804218A431A70A023DB051A69CF
:1037FC0080239B01134006D10F22BB18BA181278F4
:10380C0008218A431A70A023DB051A698023DB0187
:10381C00134006D10F22BB18BA18127810218A4314
:10382C001A700F217B187A181278D2431A700C2058
:10383C003B1804221A703B181B789BB2023B9AB2BD
:10384C009F4B5A807B181B789AB29D4B9A800E2303
:10385C00FB1800221A7011E00E203B181A78984BB6
:10386C005200D35AD9B20D22BB18BA1812788A1842
:10387C001A703B181A783B1801321A700E203B183C
:10388C001A780C23FB181B78013B9A42E4DB0D21C0
:10389C007B187A18127852421A707B181B789AB2DD
:1038AC00874BDA803B1800221A70C046854BDB69C7
:1038BC0080221340FAD0824B1B8880225200134383
:1038CC009AB2804B9A620E23FB1801221A7013E0F5
:1038DC00C0467C4BDB6980221340FAD00E217B184A
:1038EC001A78774B5200D35ADAB2764B9A627B181D
:1038FC001A787B1801321A700E23FA180C23FB1855
:10390C0012781B789A42E3D36E4B1A686D4B0421E4
:10391C000A431A60684B00221A707B681B78112BC3
:10392C0009D17B689A78684B1A70644B11221A7013
:10393C00664B00221A707B681B78122B15D17B68A2
:10394C0002331B781A00624B1A607B6803331B78B6
:10395C001A00604B1A607B681A795B4B1A70574BD4
:10396C0012221A70594B00221A707B681B78132B89
:10397C0040D17B6802331B781A00554B1A607B6868
:10398C0003331B781A00534B1A607B681A79524B1D
:10399C001A70514B1B78102252421343DAB24F4B20
:1039AC001A707B6801331B78043BDAB24C4B1A70EB
:1039BC000E23FB1800221A700FE00E203B181B7808
:1039CC0005337A68D2183B181B781178454AD154C4
:1039DC003B181A783B1801321A70414B1B780E2297
:1039EC00BA1812789A42E8D3344B13221A70374B18
:1039FC0000221A707B681B78142B09D17B689A788B
:103A0C00394B1A702D4B14221A70304B00221A703D
:103A1C007B681B78152B0DD17B689A78334B1A7009
:103A2C007B68DA78324B1A70244B15221A70274BAC
:103A3C0000221A707B681B78162B0DD17B68DA7804
:103A4C002A4B1A707B681A79294B1A701B4B162259
:103A5C001A701E4B00221A707B681B78002B00D04A
:103A6C00A0E00C217B1814221A707B181B789BB2D7
:103A7C00023B9AB2124B5A800E23FB1800221A708A
:103A8C0010E00E203B181B781A4AD15C3B181B78AF
:103A9C009A1C89B20A4B5200D1523B181A783B1827
:103AAC0001321A700E22BB181B78102BE9D9BB18E7
:103ABC0000221A7032E0C046BC0200201E03002017
:103ACC000403002000440040BD0200201F0300201E
:103ADC00C4020020C8020020280300202903002073
:103AEC00C2020020D0020020BE020020BF02002033
:103AFC00C0020020000000200E203B181A78DB4B7F
:103B0C005200D35AD9B20D22BB18BA1812788A189F
:103B1C001A703B181A783B1801321A700E23FB18D6
:103B2C001A780C203B181B78013B9A42E4DB0D21E0
:103B3C007B187A18127852421A703B181B785A1E4E
:103B4C007B181B7899B2C94B5200D152C046C84B56
:103B5C00DB6980221340FAD0C44B1B8880225200B0
:103B6C0013439AB2C24B9A6214E00E217B181A7856
:103B7C007B1801321A70C046BD4BDB6980221340A2
:103B8C00FAD00E23FB181A78B84B5200D35ADAB27B
:103B9C00B74B9A620E23FB181A78B44B5200D35AC7
:103BAC00002BE2D17B681B78012B00D07FE00C212D
:103BBC007B180B221A707B181B789BB2023B9AB2B3
:103BCC00AA4B5A800E23FB1800221A7010E00E200C
:103BDC003B181B78A74AD15C3B181B789A1C89B2FE
:103BEC00A24B5200D1523B181A783B1801321A7072
:103BFC000E22BB181B78102BE9D9BB1800221A70A7
:103C0C0011E00E203B181A78984B5200D35AD9B2B7
:103C1C000D22BB18BA1812788A181A703B181A7829
:103C2C003B1801321A700E23FB181A780C203B1823
:103C3C001B78013B9A42E4DB0D217B187A18127831
:103C4C0052421A703B181B785A1E7B181B7899B27B
:103C5C00864B5200D152C046854BDB698022134003
:103C6C00FAD0824B1B888022520013439AB2804BAD
:103C7C009A6214E00E217B181A787B1801321A70A4
:103C8C00C0467B4BDB6980221340FAD00E23FB1815
:103C9C001A78764B5200D35ADAB2754B9A620E23CD
:103CAC00FB181A78714B5200D35A002BE2D17B6867
:103CBC001B78022B00D07FE00C217B1813221A708A
:103CCC007B181B789BB2023B9AB2684B5A800E232E
:103CDC00FB1800221A7010E00E203B181B78664A65
:103CEC00D15C3B181B789A1C89B2604B5200D152A4
:103CFC003B181A783B1801321A700E22BB181B782D
:103D0C00102BE9D9BB1800221A7011E00E203B18B9
:103D1C001A78564B5200D35AD9B20D22BB18BA1886
:103D2C0012788A181A703B181A783B1801321A70DC
:103D3C000E23FB181A780C203B181B78013B9A4277
:103D4C00E4DB0D217B187A18127852421A703B185A
:103D5C001B785A1E7B181B7899B2444B5200D152D7
:103D6C00C046434BDB6980221340FAD03F4B1B8883
:103D7C008022520013439AB23D4B9A6214E00E21FA
:103D8C007B181A787B1801321A70C046384BDB69E5
:103D9C0080221340FAD00E23FB181A78334B5200B2
:103DAC00D35ADAB2324B9A620E23FB181A782F4B85
:103DBC005200D35A002BE2D17B681B78032B00D026
:103DCC007BE00C217B1804221A707B181B789BB2A9
:103DDC00023B9AB2254B5A80284B1B789AB2234B44
:103DEC009A800D23FB181B789AB2204BDA800E2395
:103DFC00FB1800221A7011E00E203B181A781B4B8E
:103E0C005200D35AD9B20D22BB18BA1812788A189C
:103E1C001A703B181A783B1801321A700E23FB18D3
:103E2C001A780C203B181B78013B9A42E4DB0D21DD
:103E3C007B187A18127852421A703B181B785A1E4B
:103E4C007B181B7899B2094B5200D152C046084BD3
:103E5C00DB6980221340FAD0044B1B88802252006D
:103E6C0013439AB2024B9A621FE0C046040300202F
:103E7C000044004014000020200000201C00002002
:103E8C000E217B181A787B1801321A70C0464E4BE3
:103E9C00DB6980221340FAD00E23FB181A784B4BA7
:103EAC005200D35ADAB2484B9A620E23FB181A7896
:103EBC00464B5200D35A002BE2D17B681B78042B63
:103ECC0000D076E00C217B1804221A707B181B782A
:103EDC009BB2023B9AB23D4B5A807B6802331B78F3
:103EEC001A003B4B1A603B4B1B789AB2374B9A80AB
:103EFC000D23FB181B789AB2344BDA800E23FB1877
:103F0C0000221A7011E00E203B181A782F4B520029
:103F1C00D35AD9B20D22BB18BA1812788A181A7053
:103F2C003B181A783B1801321A700E23FB181A78BA
:103F3C000C203B181B78013B9A42E4DB0D217B18CB
:103F4C007A18127852421A703B181B785A1E7B183A
:103F5C001B7899B21D4B5200D152C0461A4BDB69EB
:103F6C0080221340FAD0194B1B8880225200134335
:103F7C009AB2154B9A6214E00E217B181A787B18B2
:103F8C0001321A70C046104BDB6980221340FAD004
:103F9C000E23FB181A780D4B5200D35ADAB20A4B87
:103FAC009A620E23FB181A78084B5200D35A002B36
:103FBC00E2D1054B1A6A044B08210A431A62C04627
:103FCC001800BD4604B080BD00440040040300202E
:103FDC00CC020020C102002080B582B000AF0120CD
:103FEC0001F0A8F8284B5A69274B28490A405A6116
:103FFC00FB1D66221A70F91D25480523012205F0C8
:10400C0035F9214B5A69204B802189000A435A61AA
:10401C00C046C046C046C046C046C0461A4B5A6948
:10402C00194B1A490A405A61FB1D99221A70F91D45
:10403C0017480523012205F019F9134B5A69124B45
:10404C00802189000A435A61012001F073F8FB1D9D
:10405C00B7221A700C4B5A690B4B0C490A405A6127
:10406C00F91D0B480523012205F000F9064B5A698E
:10407C00054B802189000A435A61012001F05AF84E
:10408C00C046BD4602B080BD00040050FFFDFFFFDE
:10409C00AC010020F0B58DB000AF0200FB1D1A7012
:1040AC002B23FB1813221A700023FB6000223021F3
:1040BC001020FFF71BFB884B00221A600023FB62C9
:1040CC00864B00221A70854B1B78012B09D1844B2F
:1040DC005A69834B40218A435A617F4B00221A60F4
:1040EC001DE27D4B1B68002B00D0A5E0FB1D1A7850
:1040FC001300DB009B181A007A4B1A60794B1B6873
:10410C00DAB21C243B191A70764B1B681B0ADAB204
:10411C003B195A70734B1B681B0CDAB23B199A7023
:10412C00704B1B681B0EDAB23B19DA706E4B5A6976
:10413C006D4B6E490A405A612B23F9186C48322397
:10414C00012205F093F83B19D91C6948322301224E
:10415C0005F08CF83B19991C65483223012205F0B7
:10416C0085F83B19591C62483223012205F07EF870
:10417C0039195F483223012205F078F85D4B202471
:10418C0039195B48092205F0C9F9574B5A69564B46
:10419C00802189000A435A6120003B181A791821A2
:1041AC007B181A703B18DA787B185A703B189A787F
:1041BC007B189A703B185A787B18DA701323FB180B
:1041CC0000221A701223FB1800221A701123FB18FC
:1041DC0000221A701023FB1800221A707B18002280
:1041EC001A707B1800225A707B1800229A707B1868
:1041FC000022DA7014217B18DB781A00FB6A134357
:10420C00FB62FB6A1B02FB627B189B781A00FB6A41
:10421C001343FB62FB6A1B02FB627B185B781A0080
:10422C00FB6A1343FB62FB6A1B02FB627B181B7865
:10423C001A00FB6A1343FB622F4BFB622F4B1B884C
:10424C001900F86AFBF758FF03001A002C4B1A6090
:10425C00254B5A69244B25490A405A612B23F918DE
:10426C0023483223012205F001F818243B19D91CEC
:10427C001F483223012204F0F9FF3B19991C1C48FA
:10428C003223012204F0F2FF3B19591C1848322347
:10429C00012204F0EBFF391915483223012204F0F6
:1042AC00E5FF144C80235A0116491148230005F0F0
:1042BC0035F90D4B5A690C4B802189000A435A6120
:1042CC0080231A010F49104B180003F0EFFA0F4B23
:1042DC0001221A701CE1C0462C230020353300202B
:1042EC00000800502403002000040050FFFDFFFFD5
:1042FC00AC01002088130000147C0A00640000202C
:10430C0030230020342300201401002034330020FB
:10431C00854B1B78022B7CD1844B5A69834B4021F3
:10432C000A435A61FB688022120194466344FB6085
:10433C0013203B1800221A7012257B1900221A70C8
:10434C001126BB1900221A701023FB1800221A70B8
:10435C00FB68DAB218217B181A70FB681B0ADAB2F8
:10436C007B185A70FB681B0CDAB27B189A70FB68CE
:10437C001B0EDAB27B18DA70FB681B0EDAB2040083
:10438C003B181A70FB681B0CDAB27B191A70FB68AD
:10439C001B0ADAB2BB191A70FB68DAB21023FB18CD
:1043AC001A70634B5A69624B62490A405A612B225C
:1043BC00B91861483223012204F058FF39195E48BC
:1043CC003223012204F052FF79195B483223012277
:1043DC0004F04CFFB91958483223012204F046FF6F
:1043EC001023F91854483223012204F03FFF534C98
:1043FC0080231A0152495048230005F08FF84C4B8A
:10440C005A694B4B802189000A435A61464B012261
:10441C001A70454B1B78002B7AD1444B5A69434B8D
:10442C0040218A435A61FB688022120194466344FE
:10443C00FB6018217B1800221A707B1800225A701E
:10444C007B1800229A707B180022DA70FB68DAB2B3
:10445C007B181A70FB681B0ADAB27B185A70FB685F
:10446C001B0CDAB27B189A70FB681B0EDAB27B1845
:10447C00DA70FB681B0EDAB213243B191A70FB6856
:10448C001B0CDAB212257B191A70FB681B0ADAB204
:10449C001126BB191A70FB68DAB21023FB181A70BC
:1044AC00234B5A69224B23490A405A612B22B918D3
:1044BC0021483223012204F0D9FE39191E48322337
:1044CC00012204F0D3FE79191B483223012204F097
:1044DC00CDFEB91918483223012204F0C7FE10236F
:1044EC00F91815483223012204F0C0FE134C802326
:1044FC001A0114491048230005F010F80C4B5A69A6
:10450C000B4B802189000A435A61074B01221A7018
:10451C000D4B1A680D4B1B689A4200D8F8E6180030
:10452C00BD460DB0F0BDC04634330020000800502D
:10453C0000040050FFFDFFFFAC01002088130000B9
:10454C0034230020342B00202C2300203023002087
:10455C0080B500AF024B02221A70C046BD4680BD2A
:10456C003433002080B582B000AFFB1D13221A70CB
:10457C000C4B1B685A1C0B4B1A600A4B1A680A4BE3
:10458C001B689A4209D880231A010849084B180065
:10459C0003F08CF9074B00221A70C046BD4602B0DE
:1045AC0080BDC0462C230020302300203423002063
:1045BC00140100203433002080B582B000AF3B1DC5
:1045CC00294A12781A70FB1D9E221A70274B5A69C1
:1045DC00264B27490A405A61F91D264832230122ED
:1045EC0004F044FEFA239B00391D2248012204F0FA
:1045FC0095FF3B1D1B781A001F4B1A601E4B1B6846
:10460C001A021D4B1A60FA239B00391D194801220E
:10461C0004F084FF3B1D1B781A00174B1B68D21843
:10462C00154B1A60144B1B681A02134B1A60FA23B1
:10463C009B00391D0F48012204F070FF3B1D1B78B5
:10464C001A000D4B1B68D2180B4B1A60074B5A699A
:10465C00064B802189000A435A61074B1B681800DE
:10466C00BD4602B080BDC046F0D800080004005022
:10467C00FFFDFFFFAC010020E4020020F0B585B087
:10468C0000AF0E23FB1800221A804AE00E26BB193D
:10469C001B881800FDF786FC00228023DB05FCF745
:1046AC001BFA02000B0014001D00244B1B88180081
:1046BC00FDF778FC02000B0020002900FCF70CFA37
:1046CC0002000B003A607B601D4A1E4B386879680B
:1046DC00FCF704FE02000B001000190008F0E8F8CB
:1046EC000022194BFCF7FAFD02000B00B9190C88DB
:1046FC0010001900FDF7F0FB030019B2134B620018
:10470C00D152BB191988BB191B885A1C0F4B490075
:10471C00C95E0E4B5200D152BB19BA191288023223
:10472C001A80064B1B880E22BA1812889A42ADD3F7
:10473C00C046C046BD4605B0F0BDC0466200002074
:10474C003B43D5598CA28340C0FFDF402C03002093
:10475C0080B586B002AF0200FB1D1A70BB1D0A1C8F
:10476C001A700C217B18FA1D12781A707B18BA1D5E
:10477C0012785A707A180648FA239B000093022389
:10478C00322101F011FDC046BD4604B080BDC046CB
:10479C00C000002080B582B000AFFB1D00221A7053
:1047AC00BB1D00221A707B1D00221A703B1D0022BB
:1047BC001A70FB1C00221A70BB1C00221A707B1C86
:1047CC0000221A703B0000221A70FB1D1B78372246
:1047DC001343DBB219002020FFF7BAFFBB1D1B7877
:1047EC007C2252421343DBB219002320FFF7B0FFA7
:1047FC00C046BD4602B080BD80B500AFC046BD46C8
:10480C0080BD000080B582B000AF114B1A6C104B0C
:10481C0001210A431A640E4B1B6C012213407B606E
:10482C007B680B4BDA6B0A4B802149050A43DA6330
:10483C00074BDA6B80235B0513403B603B6880239E
:10484C009B00180000F09AFCC046BD4602B080BD2B
:10485C000010024090B589B000AF78600C243B1971
:10486C00180014231A00002108F01AF87B681B6842
:10487C00104A93421AD1104B5A6B0F4B02210A4328
:10488C005A630D4B5B6B02221340BB60BB683B1938
:10489C0004221A603B1903225A603B1900229A60C9
:1048AC003B19064A1900100001F084FAC046BD46B7
:1048BC0009B090BD000201400010024000040050FD
:1048CC0090B597B000AF78604423FB181800142300
:1048DC001A00002107F0E4FF10243B1918003423C0
:1048EC001A00002107F0DCFF7B681B68274A934203
:1048FC0047D13B1920221A603B1900221A613B193F
:10490C00180003F0FBFE031E01D0FFF775FF204BD0
:10491C005A6B1F4B01210A435A631D4B5B6B0122DF
:10492C001340FB60FB6844217B18C022D2001A6044
:10493C007B1812225A607B1801229A607B18002285
:10494C00DA607B1806221A617A18A023DB051100A5
:10495C00180001F02FFA0E4BDA6B0D4B80218903F6
:10496C000A43DA630A4BDA6B80239B031340BB6068
:10497C00BB6800220021172000F022FF172000F056
:10498C0034FFC046BD4617B090BDC0460054004031
:10499C000010024090B599B000AF78604C23FB1822
:1049AC00180014231A00002107F07AFF18243B1971
:1049BC00180034231A00002107F072FF7B681B6873
:1049CC004F4A934200D097E03B19802212011A60A3
:1049DC003B1900225A613B19180003F08FFE031E8D
:1049EC0001D0FFF709FF474B1A6C464B8021490158
:1049FC000A431A64434B1A6C80235B0113407B619E
:104A0C007B69404B5A6B3F4B01210A435A633D4B28
:104A1C005B6B012213403B613B693A4B5A6B394B40
:104A2C0002210A435A63374B5B6B02221340FB6033
:104A3C00FB684C217B18802212021A600C003B1977
:104A4C0002225A603B1901229A603B190322DA6058
:104A5C003B1900221A613A19A023DB05110018003A
:104A6C0001F0A8F921007B1838221A607B18022269
:104A7C005A607B1801229A607B180322DA607B183B
:104A8C0000221A617B18204A1900100001F092F9DB
:104A9C001E4B1F4A1A601D4B11225A601B4B1022D1
:104AAC009A601A4B0022DA60184B80221A61174B5D
:104ABC00802252005A61154B8022D2009A61134B0E
:104ACC000022DA61114BC02292011A620F4B1800BE
:104ADC0000F0A8FE031E01D0FFF78EFE7B680B4A88
:104AEC00DA620A4B7A689A6200220021192000F0DF
:104AFC0067FE192000F079FEC046BD4619B090BD86
:104B0C000030014000100240000400505001002011
:104B1C000800024090B58BB000AF786014243B19AC
:104B2C00180014231A00002107F0BAFE7B681B68DA
:104B3C002A4A93424DD12A4BDA6B294B8021C90169
:104B4C000A43DA63264BDA6B8023DB0113403B61AB
:104B5C003B69234B5A6B224B02210A435A63204B6D
:104B6C005B6B02221340FB60FB683B1940221A600E
:104B7C003B1902225A603B1901229A603B19002210
:104B8C00DA603B1904221A613B19164A190010000D
:104B9C0001F010F921007B18C02252001A607B181A
:104BAC0002225A607B1801229A607B180022DA607C
:104BBC007B1801221A617B180A4A1900100001F0B7
:104BCC00F9F8002200211A2000F0FAFD1A2000F05A
:104BDC000CFEC046BD460BB090BDC0460038004030
:104BEC00001002400004005090B591B000AF786006
:104BFC000C243B19180034231A00002107F050FE36
:104C0C007B681B68114A93421CD13B19802292038A
:104C1C001A603B1900229A623B19180003F06EFDD2
:104C2C00031E01D0FFF7E8FD094B1A6C084B8021DD
:104C3C0009010A431A64064B1A6C80231B011340AA
:104C4C00BB60BB68C046BD4611B090BD002C014096
:104C5C000010024090B589B000AF78600C243B196D
:104C6C00180014231A00002107F01AFE7B681B6839
:104C7C00154A934223D1154B5A6B144B01210A430D
:104C8C005A63124B5B6B01221340BB60BB683B1930
:104C9C00802252001A6021007B1802225A607B1875
:104CAC0002229A607B180322DA607B1802221A61B6
:104CBC007A18A023DB051100180001F07BF8C04620
:104CCC00BD4609B090BDC046002C0140001002400A
:104CDC0090B58BB000AF786014243B1918001423E6
:104CEC001A00002107F0DCFD7B681B68304A9342F8
:104CFC0059D1304BDA6B2F4B8021C9020A43DA634E
:104D0C002C4BDA6B8023DB0213403B613B69294B54
:104D1C005A6B284B01210A435A63264B5B6B0122C9
:104D2C001340FB60FB68234B5A6B224B02210A4356
:104D3C005A63204B5B6B02221340BB60BB683B1970
:104D4C0020221A603B1902225A603B1900229A60F9
:104D5C003B190322DA603B1904221A613A19A02389
:104D6C00DB051100180001F025F821007B18032247
:104D7C001A607B1802225A607B1800229A607B18FA
:104D8C000322DA607B1804221A617B180A4A190084
:104D9C00100001F00FF8002200211D2000F010FD82
:104DAC001D2000F022FDC046BD460BB090BDC04694
:104DBC0000480040001002400004005080B582B052
:104DCC0000AF78607B68DB6902221340022B01D1B3
:104DDC00012300E000231800BD4602B080BD80B561
:104DEC0082B000AF78607B68DB6904221340042B2F
:104DFC0001D1012300E000231800BD4602B080BDA4
:104E0C0080B582B000AF78607B68DB690822134004
:104E1C00082B01D1012300E000231800BD4602B08D
:104E2C0080BD80B582B000AF78607B68DB692022E2
:104E3C001340202B01D1012300E000231800BD46B4
:104E4C0002B080BD80B582B000AF78607B681B6813
:104E5C0020221340202B01D1012300E00023180055
:104E6C00BD4602B080BD80B500AFC046BD4680BD1A
:104E7C0080B500AFFEE780B500AFC046BD4680BD33
:104E8C0080B500AFC046BD4680BD80B500AF00F018
:104E9C0035F9C046BD4680BD80B500AF034B180048
:104EAC0000F03AFEC046BD4680BDC0465001002011
:104EBC0080B500AF094B1B689A69E023DB001340F7
:104ECC0004D0064B180001F091FA03E0034B1800D4
:104EDC0001F072FAC046BD4680BDC046C00000203D
:104EEC0080B500AF034B180002F08CFDC046BD46E8
:104EFC0080BDC0461401002080B500AF034B1800E4
:104F0C0004F02AFEC046BD4680BDC046AC01002060
:104F1C0080B500AF254B1A6A244B08210A431A624C
:104F2C00224B1A6A214B02210A431A621F4B1A6A3E
:104F3C001E4B04210A431A621C4B1800FFF771FF29
:104F4C00031E09D0194B1800FFF77CFF031E03D07A
:104F5C00FEF716F8C04625E0144B1A6A134B0821CD
:104F6C000A431A62114B1800FFF74AFF031E08D0C0
:104F7C000E4B1A6A0D4B08210A431A620B4B5B6AE3
:104F8C0010E00A4B1800FFF719FF031E02D0074B65
:104F9C005B6A07E0054B1800FFF721FF031E01D0E9
:104FAC00024B5B6AC046BD4680BDC0460044004013
:104FBC0080B500AF034B180006F008FBC046BD4699
:104FCC0080BDC0465C02002080B500AFC046BD4627
:104FDC0080BD00000D488546FFF7F6FF0C480D49D3
:104FEC000D4A002302E0D458C4500433C4188C4238
:104FFC00F9D30A4A0A4C002301E013600432A2429E
:10500C00FBD307F029FCFDF7E1F9FEE70090002047
:10501C0000000020740000205819010874000020C2
:10502C003C330020FEE7000080B582B000AFFB1DD2
:10503C0000221A700B4B1A680A4B802149000A4354
:10504C001A60002000F010F8031E03D0FB1D012293
:10505C001A7001E0FFF7D6FBFB1D1B781800BD464C
:10506C0002B080BD0020024090B585B000AF7860E2
:10507C000F23FB1800221A701D4B1B78002B2BD012
:10508C001C4B1C681A4B1B781900FA239800FBF771
:10509C0033F8030019002000FBF72EF8030018006A
:1050AC0000F0B3FB031E12D17B68032B0AD879687E
:1050BC0001235B420022180000F082FB0E4B7A6841
:1050CC001A600DE00F23FB1801221A7008E00F2361
:1050DC00FB1801221A7003E00F23FB1801221A702F
:1050EC000F23FB181B781800BD4605B090BDC046B9
:1050FC0070000020680000206C00002080B500AF1C
:10510C00054B1B781A00054B1B68D218034B1A6011
:10511C00C046BD4680BDC04670000020383300201C
:10512C0080B500AF024B1B681800BD4680BDC04661
:10513C003833002080B584B000AF7860FFF7F0FF03
:10514C000300BB607B68FB60FB68013305D00A4B36
:10515C001B781A00FB689B18FB60C046FFF7E0FF4A
:10516C000200BB68D31AFA689A42F7D8C046C04608
:10517C00BD4604B080BDC0467000002080B582B032
:10518C0000AF7860064B1B68064A13401900044BAD
:10519C007A680A431A60C046BD4602B080BDC0465C
:1051AC0000000140FFF9FFFF80B582B000AF7860CE
:1051BC00054A8023D25804497B68134380228B50C4
:1051CC00C046BD4602B080BD0018024080B582B01A
:1051DC0000AF7860064A8023D3587A68D2430449DA
:1051EC00134080228B50C046BD4602B080BDC046E5
:1051FC000018024080B582B000AF7860054A842365
:10520C00D25804497B68134384228B50C046BD4658
:10521C0002B080BD0018024080B582B000AF78604B
:10522C00064A8423D3587A68D24304491340842213
:10523C008B50C046BD4602B080BDC046001802402F
:10524C0080B582B000AF7860044B1968034B7A6864
:10525C000A431A60C046BD4602B080BD0018024029
:10526C0080B582B000AF7860054B1A687B68D94373
:10527C00034B0A401A60C046BD4602B080BDC04612
:10528C000018024080B582B000AF7860044B5968BA
:10529C00034B7A680A435A60C046BD4602B080BDD3
:1052AC000018024080B582B000AF7860054B5A6898
:1052BC007B68D943034B0A405A60C046BD4602B0D6
:1052CC0080BDC0460018024080B582B000AF786047
:1052DC00034B7A681A61C046BD4602B080BDC04619
:1052EC000018024080B582B000AF7860034B7A683A
:1052FC00DA60C046BD4602B080BDC0460018024010
:10530C0080B588B000AF78600023FB601F217B184C
:10531C0000221A707B68002B03D17B1801221A70B3
:10532C003DE17B681B681B68DB0FDA0780231B06DB
:10533C009A4204D11F23FB1801221A702FE17B68BB
:10534C0029229B5CDBB2002B0AD17B68282200212E
:10535C0099547B680022DA627B681800FFF77AFAAE
:10536C007B681B681B6830221340BB617B685A69E1
:10537C007B681B691A437B681B6A1A437B689B69B1
:10538C001A437B68DB691A437B68DB6813437B61D8
:10539C007B681B681B68854A134019007B681B6877
:1053AC007A690A431A607B685A6880231B019A4207
:1053BC000DD17F4B1A687E4B7E490A401A607C4B9C
:1053CC005A687B4B802109010A435A601FE07B68B5
:1053DC005A68C0235B019A420DD1754B1A68744B05
:1053EC00802109010A431A60714B5A68704B71494C
:1053FC000A405A600BE06E4B1A686D4B6D490A40BF
:10540C001A606B4B5A686A4B6A490A405A607B684F
:10541C009B68A022D201934217D0A022D2019342C2
:10542C0030D8012B1FD08022D20193422AD1604B5D
:10543C001A685F4B8021C9010A431A605C4B5A6899
:10544C005B4B5D490A405A6029E0594B1A68584B2E
:10545C0059490A401A60564B5A68554B8021C9016C
:10546C000A435A601BE0524B1A68514B8021C90108
:10547C000A431A604E4B5A684D4B8021C9010A43AE
:10548C005A600CE04A4B1A68494B4B490A401A6067
:10549C00474B5A68464B48490A405A60C0467B689D
:1054AC001B681B683022134016D0BB69002B13D12C
:1054BC00424B1B6842491800FAF71EFE03005A1CA7
:1054CC0013009B009B189B00FB6002E0FB68013BF8
:1054DC00FB60FB68002BF9D17B681B68344A934254
:1054EC0002D180239B0201E08023DB023B617B68BD
:1054FC005B6A0322134040D07B685B6A1022134026
:10550C0004D03B691800FFF79BFE03E03B691800D1
:10551C00FFF7A6FE7B685B6A2022134004D03B6930
:10552C001800FFF7AFFE03E03B691800FFF7BAFE67
:10553C003B691800FFF7D6FE3B691800FFF7C4FE65
:10554C007B685B6A0222134004D03B691800FFF7AA
:10555C0051FE03E03B691800FFF75EFE7B685B6A57
:10556C000122134004D03B691800FFF71DFE0CE02C
:10557C003B691800FFF72AFE07E03B691800FFF7AC
:10558C004BFE3B691800FFF721FE7B6829229B5CD0
:10559C00DBB2002B03D17B682922012199541F23F4
:1055AC00FB181B781800BD4608B080BD0F7400FEB8
:1055BC0000020140FFF7FFFFFFBFFFFF6800002064
:1055CC00400D030080B584B000AF78600023BB6051
:1055DC000F217B1800221A707B68002B03D17B18DB
:1055EC0001221A7035E07B681B681B68DB0FDA0739
:1055FC0080231B069A4204D10F23FB1801221A7038
:10560C0027E07B6829229B5CDBB2012B1DD17B68D8
:10561C001B681A687B681B6801210A431A607B6847
:10562C002922022199540E4B1B680E491800FAF7D7
:10563C0063FD03000133DB00BB6002E0BB68013B90
:10564C00BB60BB68002BF9D103E00F23FB180122D0
:10565C001A700F23FB181B781800BD4604B080BDD0
:10566C0068000020400D030080B582B000AF02003E
:10567C00FB1D1A70FB1D1B787F2B09D8FB1D1B789B
:10568C001A001F231A40044B012191400A001A6092
:10569C00C046BD4602B080BD00E100E090B583B0CD
:1056AC0000AF02003960FB1D1A70FB1D1B787F2BAD
:1056BC0028D82F4AFB1D1B785BB29B08C0339B007C
:1056CC009B58FA1D1278110003220A40D200FF21C8
:1056DC0091400A00D2431A4011003B689B01FF2203
:1056EC001A40FB1D1B78180003230340DB009A4073
:1056FC001F48FB1D1B785BB29B080A43C0339B0001
:10570C001A5031E01B4AFB1D1B7819000F230B406C
:10571C00083B9B0806339B00D31804331B68FA1D07
:10572C001278110003220A40D200FF2191400A0096
:10573C00D2431A4011003B689B01FF221A40FB1D0B
:10574C001B78180003230340DB009A400948FB1D1B
:10575C001B781C000F232340083B9B080A4306338D
:10576C009B00C31804331A60C046BD4603B090BDFD
:10577C0000E100E000ED00E080B582B000AF7860A1
:10578C007B685A1E80235B049A4201D3012310E0EC
:10579C000A4B7A68013A5A6001235B4203211800D4
:1057AC00FFF77CFF054B00229A60044B07221A601E
:1057BC0000231800BD4602B080BDC04610E000E0DA
:1057CC0080B584B000AFB9607A600F217B18021CE1
:1057DC001A70BA687B181B785BB211001800FFF7BF
:1057EC005DFFC046BD4604B080BD80B582B000AF41
:1057FC000200FB1D1A70FB1D1B785BB21800FFF733
:10580C0033FFC046BD4602B080BD80B582B000AF4C
:10581C0078607B681800FFF7AFFF03001800BD46E7
:10582C0002B080BD80B582B000AF78607B68002B81
:10583C0001D1012377E07B681B683D4A94466344A1
:10584C0014211800FAF758FC03009A007B681A64BC
:10585C007B682522022199547B681B681A687B6837
:10586C001B6834490A401A607B681B6819687B689E
:10587C009A687B68DB681A437B681B691A437B68F0
:10588C005B691A437B689B691A437B68DB691A4323
:10589C007B681B6A1A437B681B680A431A607B6827
:1058AC00180000F037FA7B689A688023DB019A4273
:1058BC0002D17B6800225A607B685A687B685B6CFB
:1058CC003F210A401A607B689B6C7A68D26C5A60E4
:1058DC007B685B68002B11D07B685B68042B0DD850
:1058EC007B68180000F042FA7B681B6D00221A607E
:1058FC007B685B6D7A68926D5A6008E07B68002269
:10590C001A657B6800225A657B6800229A657B6861
:10591C000022DA637B682522012199547B682422BA
:10592C000021995400231800BD4602B080BDC0462A
:10593C00F8FFFDBF0F80FFFF80B586B000AFF860A9
:10594C00B9607A603B601723FB1800221A70FB6861
:10595C0024229B5C012B01D102236FE0FB682422E3
:10596C0001219954FB6825229B5CDBB2012B57D19A
:10597C00FB68252202219954FB680022DA63FB683C
:10598C001B681A68FB681B6801218A431A603B6814
:10599C007A68B968F86800F07DF9FB681B6B002B1E
:1059AC0008D0FB681B681A68FB681B680E210A4349
:1059BC001A600FE0FB681B681A68FB681B680421FF
:1059CC008A431A60FB681B681A68FB681B680A210B
:1059DC000A431A60FB685B6C1A6880235B021340F5
:1059EC0008D0FB685B6C1A68FB685B6C8021490013
:1059FC000A431A60FB681B6D002B08D0FB681B6DFB
:105A0C001A68FB681B6D802149000A431A60FB6809
:105A1C001B681A68FB681B6801210A431A600AE0BC
:105A2C00FB688022DA63FB68242200219954172337
:105A3C00FB1801221A701723FB181B781800BD469F
:105A4C0006B080BD80B584B000AF78600F217B18A4
:105A5C0000221A707B6825229B5CDBB2022B06D0DD
:105A6C007B680422DA637B1801221A7049E07B6898
:105A7C001B681A687B681B680E218A431A607B6856
:105A8C001B681A687B681B6801218A431A607B6853
:105A9C005B6C1A687B685B6C1D490A401A601D4B75
:105AAC0059687B681B6C1C22134001229A40194BCD
:105ABC000A435A607B689B6C7A68D26C5A607B682C
:105ACC001B6D002B0CD07B681B6D1A687B681B6DE3
