:020000040800F2
:1000000000900020C95200085B51000865510008AB
:1000100000000000000000000000000000000000E0
:100020000000000000000000000000006B5100080C
:100030000000000000000000755100087F5100081A
:1000400019530008195300081953000819530008E0
:1000500019530008195300081953000819530008D0
:10006000195300088D51000819530008195300084E
:1000700019530008195300081953000819530008B0
:1000800019530008195300081953000819530008A0
:10009000195300081953000819530008A551000806
:1000A00019530008D5510008ED51000819530008F4
:0C00B00005520008A55200081953000872
:1000BC0010B5064C2378002B07D1054B002B02D032
:1000CC00044800E000BF0123237010BD4000002055
:1000DC000000000040C90008044B10B5002B03D0F1
:1000EC000349044800E000BF10BDC04600000000FA
:1000FC004400002040C90008002243088B4274D3FE
:10010C0003098B425FD3030A8B4244D3030B8B420C
:10011C0028D3030C8B420DD3FF22090212BA030C15
:10012C008B4202D31212090265D0030B8B4219D3F6
:10013C0000E0090AC30B8B4201D3CB03C01A524116
:10014C00830B8B4201D38B03C01A5241430B8B425E
:10015C0001D34B03C01A5241030B8B4201D30B0347
:10016C00C01A5241C30A8B4201D3CB02C01A52416E
:10017C00830A8B4201D38B02C01A5241430A8B4231
:10018C0001D34B02C01A5241030A8B4201D30B021A
:10019C00C01A5241CDD2C3098B4201D3CB01C01A34
:1001AC00524183098B4201D38B01C01A524143093E
:1001BC008B4201D34B01C01A524103098B4201D32C
:1001CC000B01C01A5241C3088B4201D3CB00C01A99
:1001DC00524183088B4201D38B00C01A5241430811
:1001EC008B4201D34B00C01A5241411A00D2014636
:1001FC00524110467047FFE701B5002000F006F8A9
:10020C0002BDC0460029F7D076E770477047C0465C
:10021C0080B582B000AF0200FB1D1A70FB1D1B786D
:10022C007F2B09D8FB1D1B781A001F231A40044B87
:10023C00012191400A001A60C046BD4602B080BD43
:10024C0000E100E090B583B000AF02003960FB1D07
:10025C001A70FB1D1B787F2B28D82F4AFB1D1B788F
:10026C005BB29B08C0339B009B58FA1D127811009F
:10027C0003220A40D200FF2191400A00D2431A40C7
:10028C0011003B689B01FF221A40FB1D1B781800D4
:10029C0003230340DB009A401F48FB1D1B785BB215
:1002AC009B080A43C0339B001A5031E01B4AFB1DCC
:1002BC001B7819000F230B40083B9B0806339B004F
:1002CC00D31804331B68FA1D1278110003220A405C
:1002DC00D200FF2191400A00D2431A4011003B6822
:1002EC009B01FF221A40FB1D1B78180003230340BF
:1002FC00DB009A400948FB1D1B781C000F23234090
:10030C00083B9B080A4306339B00C31804331A604E
:10031C00C046BD4603B090BD00E100E000ED00E03A
:10032C0080B582B000AF78607B681B6801221A43ED
:10033C007B681A60C046BD4602B080BD80B582B0F5
:10034C0000AF78607B681B68034A1A407B681A60B0
:10035C00C046BD4602B080BDFFFFFFDF80B586B052
:10036C0000AF78603960EFF31083BB60BB687B61D2
:10037C000123FB60FB6883F31088C0467B689B6895
:10038C00DB00DA083B685B071A437B689A607B6981
:10039C003B613B6983F31088C046C046BD4606B03E
:1003AC0080BD000080B586B000AF78603960EFF397
:1003BC001083BB60BB687B610123FB60FB6883F32C
:1003CC001088C0467B689B68084A1A403B685B06ED
:1003DC001A437B689A607B693B613B6983F31088A5
:1003EC00C046C046BD4606B080BDC046FFFFFFF10B
:1003FC0080B582B000AF78607B685B68074A1A40B2
:10040C007B685A607B689B682A2293431A007B683E
:10041C009A60C046BD4602B080BDC046FFB7FFFF24
:10042C0080B582B000AF78607B68DA6980239B036B
:10043C001A4080239B039A4201D1012300E0002340
:10044C001800BD4602B080BD80B582B000AF7860A8
:10045C007B68DA698023DB031A408023DB039A4232
:10046C0001D1012300E000231800BD4602B080BD7D
:10047C0080B586B000AF7860EFF31083BB60BB68CB
:10048C007B610123FB60FB6883F31088C0467B68AB
:10049C001B6820221A437B681A607B693B613B69AD
:1004AC0083F31088C046C046BD4606B080BD80B5FB
:1004BC0086B000AF7860EFF31083BB60BB687B61E4
:1004CC000123FB60FB6883F31088C0467B689B6844
:1004DC0001221A437B689A607B693B613B6983F319
:1004EC001088C046C046BD4606B080BD80B582B0FF
:1004FC0000AF78607B685B6A9BB2DB05DB0D9BB25F
:10050C001800BD4602B080BD80B582B000AF7860E7
:10051C00044B1968034B7A680A431A60C046BD46FF
:10052C0002B080BD0000014080B582B000AF7860A1
:10053C0039607B683A689A61C046BD4602B080BD9E
:10054C0080B582B000AF786039607B683A689A6297
:10055C00C046BD4602B080BD80B584B000AF7860A7
:10056C00074BD96B064B7A680A43DA63044BDB6B97
:10057C007A681340FB60FB68C046BD4604B080BD82
:10058C000010024080B584B000AF7860074B596B07
:10059C00064B7A680A435A63044B5B6B7A681340C8
:1005AC00FB60FB68C046BD4604B080BD0010024035
:1005BC0080B588B000AF1E23FB1800221A801C23C4
:1005CC00FB1800221A801A23FB1800221A80182309
:1005DC00FB1800221A801623FB18012252421A80A3
:1005EC0004F096FE00F078F8354B5A6B344B012131
:1005FC000A435A63324B5B6B01221340FB60FB686E
:10060C002F4B5A6B2E4B02210A435A632C4B5B6BBC
:10061C0002221340BB60BB68294B5A6B284B042148
:10062C000A435A63264B5B6B042213407B607B6846
:10063C0000F0A0FB00F080FB00F086FA00F0AAF8B6
:10064C0000F088F900F036FB00F016F900F0D4F851
:10065C0000F03CF91B4B180005F028F9642004F05D
:10066C00DDFE01F001FD00F0EDFD012004F0D6FEF1
:10067C0000F084FE02F03AFA01F00AF804F0FEF9F8
:10068C00114B1A68104B11490A431A600E4B180093
:10069C00FFF7EEFE0C4B1800FFF709FF0A4B1A6A26
:1006AC00094B08210A431A62094B5A69084B40212D
:1006BC000A435A61074B1B78180002F079FAF9E7E4
:1006CC00001002405C000020004400400D1000109F
:1006DC0000080050EA02002090B593B000AF10243F
:1006EC003B19180038231A0000210CF01BF93B00B1
:1006FC00180010231A0000210CF014F980239B0021
:10070C00180007F02DFB3B1902221A603B198022BE
:10071C005200DA6021007B1800221A617B184022FB
:10072C005A617B180222DA617B1802221A627B184A
:10073C0000225A627B1808229A627B18802292024D
:10074C00DA627B18802292041A637B18802292054D
:10075C005A637B18180007F04FFB031E01D004F0FE
:10076C00BFF93B0007221A603B0002225A603B0093
:10077C0000229A603B000022DA603B000221180044
:10078C0007F054FE031E01D004F0AAF9C046BD4682
:10079C0013B090BD80B500AF154B164A1A60144BC0
:1007AC00802252001A61124B30225A61104B0022E7
:1007BC00DA610F4B00229A600D4B00229A610C4BB0
:1007CC00802292031A620A4B0022DA60084B002244
:1007DC005A60074B12225A62054B180004F004FFB2
:1007EC00031E01D004F07CF9C046BD4680BDC04656
:1007FC005C0000200002014080B500AF1B4B1C4A7E
:10080C001A601A4B1B4A5A60184B00229A60174BFD
:10081C000122DA60154B00221A61144B00225A6136
:10082C00124B00229A61114B0022DA610F4B00220D
:10083C001A620E4B180005F095FD031E01D004F052
:10084C004FF90A4B0021180006F01EFF031E01D0C1
:10085C0004F046F9054B0021180006F061FF031E59
:10086C0001D004F03DF9C046BD4680BD8C0000208F
:10087C00005400402C10941080B500AF114B124A5C
:10088C001A60104B802292005A600E4B00229A6024
:10089C000C4B0022DA600B4B802292001A61094B40
:1008AC00FA2292015A61074B00229A61054B1800FB
:1008BC0006F082FF031E01D004F012F9C046BD46BB
:1008CC0080BDC046E00000200030014080B500AF84
:1008DC001E4B0822DA611D4B1D4A1A601B4B8222EB
:1008EC0052005A60194B00229A60184BE022D20039
:1008FC00DA60164B00221A61144B00225A61134B1A
:10090C00802292009A61114B1022DA610F4B002267
:10091C001A620E4B00225A620C4B00229A620B4B4D
:10092C000722DA62094B00221A63084B08225A6329
:10093C00064B180008F024FC031E01D004F0D0F87C
:10094C00024B0822DA61C046BD4680BD780100200A
:10095C000038004080B59EB000AF6823FB1818002B
:10096C0010231A0000210BF0DDFF5C23FB1818008C
:10097C000C231A0000210BF0D5FF5023FB18180094
:10098C000C231A0000210BF0CDFF3423FB181800A8
:10099C001C231A0000210BF0C5FF3B001800342368
:1009AC001A0000210BF0BEFF644B654A1A60634BC2
:1009BC0000225A60614B00229A60604B614ADA60F7
:1009CC005E4B00221A615D4B00225A615B4B802208
:1009DC009A615A4B180009F0F1FB031E01D004F088
:1009EC007FF868217B18802252011A607A18534BC9
:1009FC001100180009F084FE031E01D004F070F8F9
:100A0C004E4B180009F032FC031E01D004F068F8BC
:100A1C005C217B1800221A607B1800225A607B181C
:100A2C0000229A607A18454B110018000AF042FB1C
:100A3C00031E01D004F054F850217B1802221A60D6
:100A4C007B1801225A607B1800229A607A183B4B63
:100A5C00012118000AF042FC031E01D004F040F8FA
:100A6C0034217B1860221A607B18C8225A607B18CC
:100A7C0000229A607B180022DA607B1804221A612B
:100A8C007B1800225A617B1800229A6179182B4B33
:100A9C000022180009F034FD031E01D004F020F8E8
:100AAC0034217B1832225A607918244B10221800FA
:100ABC0009F026FD031E01D004F012F83B00802241
:100ACC0012011A603B008022D2005A603B000022C7
:100ADC009A603B000022DA603B00802252011A61CE
:100AEC003B00802292015A613B000A229A613B0032
:100AFC000022DA613B0000221A623B008022920441
:100B0C005A623B0000229A623B000022DA623B00F0
:100B1C008022D2011A633A00084B110018000AF027
:100B2C0037FB031E01D003F0DBFF044B180004F06D
:100B3C0005FAC046BD461EB080BDC046DC01002093
:100B4C00002C01407F02000090B59DB000AF5023F7
:100B5C00FB18180020231A0000210BF0E3FE3823A9
:100B6C00FB18180018231A0000210BF0DBFE3B1DAC
:100B7C00180034231A0000210BF0D4FE3B1D022276
:100B8C001A603B1D00229A603B1D180007F0F8FD0F
:100B9C00031E01D003F0A4FF80239B021800FFF773
:100BAC00DBFC0120FFF7EEFC38243B1904221A6011
:100BBC003B1902225A603B1903229A603B1900220E
:100BCC00DA603B1901221A613B1901225A613A1968
:100BDC00A023DB05110018000BF022FB21007B1871
:100BEC0008221A607B1802225A607B1803229A6032
:100BFC007B180022DA607B1801221A617B18012213
:100C0C005A617A18A023DB05110018000BF008FBC1
:100C1C0000211C20FFF716FB1C20FFF7F9FA5021CE
:100C2C007B1800221A607B18E12212025A607B1892
:100C3C00802252019A607B180022DA607B18002215
:100C4C001A617B180C225A617B1800229A617B185E
:100C5C000022DA617B18164A190010000BF0B0FD67
:100C6C00134B00211800FFF779FB114B00211800E2
:100C7C00FFF798FB0E4B1800FFF760FB0C4B1800AE
:100C8C00FFF7B6FB0A4B1800FFF74AFBC046084BB0
:100C9C001800FFF7C5FB031EF9D0054B1800FFF732
:100CAC00D3FB031EF3D0C046C046BD461DB090BD5D
:100CBC000044004080B500AF1C4B5A681B4B802190
:100CCC0009030A435A601A4B184A1A60184B194AFE
:100CDC005A60174B00229A60154B0022DA60144BB5
:100CEC0000221A61124B08225A61114B8022D20049
:100CFC009A610F4B80229200DA610D4B80225200D8
:100D0C001A620B4B00225A62094B00221A64084BE0
:100D1C0018000AF08FFB031E01D003F0E1FE044B18
:100D2C00044A5A60C046BD4680BDC04600480040DB
:100D3C002802002000127A0080B582B000AF0C4B64
:100D4C009A6B0B4B01210A439A63094B9B6B012253
:100D5C0013407B607B6800220021092004F0A4FE74
:100D6C00092004F0B6FEC046BD4602B080BDC046A8
:100D7C000010024080B586B000AF3B00180018236D
:100D8C001A0000210BF0CEFD0220FFF7FBFB042024
:100D9C00FFF7F8FB0120FFF7F5FB80239B00A04A2F
:100DAC0019001000FFF7C0FB8023DB019D4A1900DE
:100DBC001000FFF7B9FB80231B029A4A19001000A0
:100DCC00FFF7B2FBA023DB0540211800FFF7ACFBBB
:100DDC00A023DB0580211800FFF7A6FB914B4021D7
:100DEC001800FFF7A1FB80231A01A023DB051100DB
:100DFC001800FFF7A5FB80235A01A023DB05110087
:100E0C001800FFF79DFB3B00802292001A603B000C
:100E1C0001225A603B0003229A603B000022DA60F8
:100E2C003B0001221A613B007D4A190010000BF0B7
:100E3C00F7F93B008022D2011A603B0001225A6074
:100E4C003B0000229A603B000022DA603B0001224A
:100E5C001A613B00734A190010000BF0E1F93B00DA
:100E6C00802212021A603B0001225A603B000022D1
:100E7C009A603B000022DA603B0001221A613B00C1
:100E8C00684A190010000BF0CBF93B0001221A60E4
:100E9C003B0000225A603B0001221A613A00A02359
:100EAC00DB05110018000BF0BBF93B0002221A60A5
:100EBC003B0000225A603B0001221A613A00A02339
:100ECC00DB05110018000BF0ABF93B0010221A6087
:100EDC003B0000225A603B0001221A613A00A02319
:100EEC00DB05110018000BF09BF93B0040221A6047
:100EFC003B0001225A603B0003229A603B00002217
:100F0C00DA603B0000221A613A00A023DB051100D5
:100F1C0018000BF085F93B0080221A603B0001227F
:100F2C005A603B0003229A603B000022DA603B00CF
:100F3C0000221A613A00A023DB05110018000BF007
:100F4C006FF93B0040221A603B0001225A603B00C3
:100F5C0003229A603B000022DA603B0001221A61F6
:100F6C003B00304A190010000BF05AF93B0080226C
:100F7C0012011A603B0001225A603B0003229A6066
:100F8C003B000022DA603B0000221A613A00A023E9
:100F9C00DB05110018000BF043F93B0080225201D5
:100FAC001A603B0001225A603B0003229A603B000E
:100FBC000022DA603B0000221A613A00A023DB0514
:100FCC00110018000BF02CF93B00802292011A60E2
:100FDC003B0000225A603B0001221A613A00A02318
:100FEC00DB05110018000BF01BF93B008022D2012D
:100FFC001A603B0000225A603B0001221A613A0041
:10100C00A023DB05110018000BF00AF980231B0349
:10101C001800FFF779FAC046BD4606B080BDC04641
:10102C00000400500008005080B500AF144B1800AD
:10103C00FFF75CFA03001A00124B1A80124B0122C4
:10104C001A70104B1B881A0080235B0013400AD0C7
:10105C000C4B1B88DAB20D4B1A700D4B00221A8008
:10106C000C4B01221A700B4B1B78012B04D1054B36
:10107C001B88180000F04AF8C046BD4680BDC0462B
:10108C0000440040E6020020E4020020B4020020EC
:10109C00E8020020E502002080B582B000AF786045
:1010AC00A023DB055A69A023DB0580218A435A6102
:1010BC00A023DB055A69A023DB0540210A435A61B2
:1010CC00064B00221A70064B5A69054B40210A4305
:1010DC005A61C046BD4602B080BDC046EA0200203F
:1010EC000008005080B582B000AF786001F062FC5F
:1010FC00C046BD4602B080BD80B582B000AF7860FE
:10110C0001F062FCC046BD4602B080BD80B584B023
:10111C0000AF0200BB1D1A800F23FB1800221A70AF
:10112C00C046394B1B78002BFBD0374B00221A7072
:10113C00364B1B881A00BB1D1B88D9B2344B9954F3
:10114C00324B1B8801339AB2304B1A802F4B1B88C1
:10115C00002B4FD02D4B1B881A002D4B5B78013385
:10116C009A4247DD0F23FB1800221A700FE00F2163
:10117C007B181B78264AD25C264B1B78D318DAB224
:10118C00244B1A707B181A787B1801321A70204B7A
:10119C005B785A1C0F217B181B789A42E7DA1D4B9F
:1011AC001B78002B22D0194B1B881A00184B5B782C
:1011BC0002339A421AD1184B00221A707B18002263
:1011CC001A700AE00F203B181B78114A0021D154E9
:1011DC003B181A783B1801321A700D4B5B785A1C6D
:1011EC000F23FB181B789A42ECDA03E0084B18002B
:1011FC0000F0D8FA094B1A6A084B08210A431A6204
:10120C00C046BD4604B080BDE4020020E8020020C8
:10121C00B4020020EC020020E50200200044004053
:10122C0080B582B000AF0200FB1D1A70F91D044896
:10123C000A2301220AF04EF9C046BD4602B080BD19
:10124C002802002080B500AF4A4B1A68494B012197
:10125C008A431A60474B5A68464B802109030A435C
:10126C005A60444B1A68434B01210A431A6001200F
:10127C0004F0D4F8012004F0D1F83F4B0021180001
:10128C0009F054F8012004F0C9F8A023DB055A69D1
:10129C00A023DB0540218A435A61A023DB055A6950
:1012AC00A023DB0580218A435A61AF20FFF7B8FFEA
:1012BC00B820FFF7B5FF0020FFF7B2FF0020FFF7C3
:1012CC00AFFF0120FFF7ACFF0220FFF7A9FF0420BE
:1012DC00FFF7A6FF0720FFF7A3FF0B20FFF7A0FFE8
:1012EC000E20FFF79DFF1220FFF79AFF1720FFF744
:1012FC0097FF1B20FFF794FF2120FFF791FF282079
:10130C00FFF78EFF3120FFF78BFF3F20FFF788FFA1
:10131C00A020FFF785FF5120FFF782FF8120FFF708
:10132C007FFFFF20FFF77CFFA120FFF779FF002054
:10133C00FFF776FFA220FFF773FF0020FFF770FF87
:10134C00A820FFF76DFF7F20FFF76AFFA023DB05C6
:10135C005A69A023DB0580210A435A61A023DB05CF
:10136C005A69A023DB0540210A435A61C046BD4699
:10137C0080BDC04600480040DC01002080B582B032
:10138C0000AFA023DB055A69A023DB0540218A436B
:10139C005A61A023DB055A69A023DB0580218A430F
:1013AC005A617520FFF73CFF0020FFF739FF7F20C3
:1013BC00FFF736FF1520FFF733FF0020FFF730FF54
:1013CC007F20FFF72DFFA023DB055A69A023DB0547
:1013DC0040218A435A61A023DB055A69A023DB050F
:1013EC0080210A435A61BB1D00221A800DE0C046C1
:1013FC00124BDB6980221340FAD0104B00229A6208
:10140C00BB1D1A88BB1D01321A80BB1D1B880C4AE0
:10141C009342ECD9A023DB055A69A023DB0580217C
:10142C008A435A61A023DB055A69A023DB054021BE
:10143C000A435A61C046BD4602B080BD0048004018
:10144C0001200000F0B585B000AF05000C001000C5
:10145C001900FB1D2A1C1A70BB1D221C1A707B1D47
:10146C00021C1A703B1D0A1C1A700E243B19002218
:10147C001A80FB1D1B785BB2002B00DAC2E0BB1D8F
:10148C001B785BB2002B00DABCE07B1D1B785BB2D7
:10149C00002B00DAB6E03B1D1B785BB2002B00DAA8
:1014AC00B0E00D257B19FA1D12781A700C26BB19A9
:1014BC003A1D12787F218A1A1A700B23FB187A1D99
:1014CC0012781A700A22BB18BA1D12787F218A1A58
:1014DC001A70A023DB055A69A023DB0540218A433F
:1014EC005A61A023DB055A69A023DB0580218A43BE
:1014FC005A617520FFF794FE7B191B781800FFF7D3
:10150C008FFE0B23FB181B781800FFF789FE1520A4
:10151C00FFF786FEBB191B785B08DBB21800FFF7E0
:10152C007FFE0A22BB181B785B08DBB21800FFF7A2
:10153C0077FEA023DB055A69A023DB0580210A4333
:10154C005A61A023DB055A69A023DB0540210A431D
:10155C005A61A023DB055A69A023DB0540218A438D
:10156C005A61A023DB055A69A023DB0580210A43BD
:10157C005A613B1900221A8012E0C046234BDB69EA
:10158C0080221340FAD00E217B181B88FA6AD318DC
:10159C001A781E4B9A627B181A887B1801321A80B3
:1015AC000B23FB181A780D23FB181B78D31A013365
:1015BC000A22BA1812785208D2B211000C22BA18A8
:1015CC0012785208D2B28A1A01325A430E23FB18EF
:1015DC001B889A42D1DAC0460C4BDB69802213403F
:1015EC00FAD0A023DB055A69A023DB0580218A43AE
:1015FC005A61A023DB055A69A023DB0540210A436D
:10160C005A6100E0C046BD4605B0F0BD0048004040
:10161C0080B586B002AF0200FB1D1A700C217B183E
:10162C0000221A707B18FA1D12785A707A18064824
:10163C00FA239B0000930223302104F029FFC046BB
:10164C00BD4604B080BDC0468C00002080B586B07D
:10165C0002AF0200FB1D1A70BB1D0A1C1A700C2174
:10166C007B18FA1D12781A707B18BA1D12785A70F2
:10167C007A180648FA239B0000930223302104F0C9
:10168C0007FFC046BD4604B080BDC0468C0000209C
:10169C0080B500AF0020FFF7BBFF01210120FFF751
:1016AC00D5FF0120FFF7B4FF00210220FFF7CEFF8A
:1016BC000F2003F0B3FE0020FFF7AAFF0321042044
:1016CC00FFF7C4FF91210520FFF7C0FF042106207E
:1016DC00FFF7BCFF00210720FFF7B8FF002108200F
:1016EC00FFF7B4FF0F2003F099FE84210B20FFF7C6
:1016FC00ADFF82210C20FFF7A9FF00210D20FFF781
:10170C00A5FF80210E20FFF7A1FF00211B20FFF772
:10171C009DFF00211C20FFF799FF02213C20FFF7C1
:10172C0095FF0120FFF774FF10210120FFF78EFFBA
:10173C0000210A20FFF78AFF00210C20FFF786FF0B
:10174C0000211620FFF782FF00211820FFF77EFFF3
:10175C0000211920FFF77AFF00210920FFF776FFFF
:10176C0000211020FFF772FF00212E20FFF76EFFE3
:10177C0010213020FFF76AFF02212D20FFF766FFB2
:10178C000020FFF745FF90213F20FFF75FFF00216E
:10179C004120FFF75BFF04214020FFF757FFC046B5
:1017AC00BD4680BD80B584B000AF78600F23FB18B8
:1017BC00FF221A700D23FB1800221A70D44B012241
:1017CC001A70D44B00221A707B681A787B681A70D6
:1017DC007B681B78112B0FD07B681B78122B0BD0DE
:1017EC007B681B78132B07D07B681B78142B03D0DA
:1017FC007B681B78152B05D1C74B5A69C64B40210A
:10180C008A435A617B681B78112B05D1C24B5A69EC
:10181C00C14B40218A435A617B681B78802252421B
:10182C001343DBB29AB2BD4B1A807B681B780F2B2B
:10183C0000D857E17B681B78152B00D952E1A02307
:10184C00DB051B691022134006D10F22BB18BA18F6
:10185C00127801218A431A70A023DB051B6902222E
:10186C00134006D10F22BB18BA18127802218A43F2
:10187C001A70A023DB051B690122134006D10F222D
:10188C00BB18BA18127804218A431A70A023DB05FE
:10189C001A6980239B01134006D10F22BB18BA187A
:1018AC00127808218A431A70A023DB051A69802359
:1018BC00DB01134006D10F22BB18BA181278102185
:1018CC008A431A700F217B187A181278D2431A7037
:1018DC000C203B1804221A703B181B789BB2023B5D
:1018EC009AB28E4B5A807B181B789AB28B4B9A808B
:1018FC000E23FB1800221A7011E00E203B181A78E8
:10190C00864B5200D35AD9B20D22BB18BA18127892
:10191C008A181A703B181A783B1801321A700E206C
:10192C003B181A780C23FB181B78013B9A42E4DB1A
:10193C000D217B187A18127852421A707B181B787A
:10194C009AB2764BDA803B1800221A70C046744B60
:10195C00DB6980221340FAD0704B1B888022520026
:10196C0013439AB26E4B9A620E23FB1801221A7023
:10197C0013E0C0466A4BDB6980221340FAD00E217B
:10198C007B181A78654B5200D35ADAB2644B9A62C0
:10199C007B181A787B1801321A700E23FA180C2354
:1019AC00FB1812781B789A42E3D35D4B1A685C4B98
:1019BC0004210A431A60564B00221A707B681B786C
:1019CC00112B09D17B689A78564B1A70514B112206
:1019DC001A70554B00221A707B681B78122B15D18C
:1019EC007B6802331B781A00504B1A607B680333F8
:1019FC001B781A004E4B1A607B681A79494B1A7087
:101A0C00444B12221A70484B00221A707B681B78C8
:101A1C00132B40D17B6802331B781A00434B1A609E
:101A2C007B6803331B781A00414B1A607B681A7968
:101A3C00404B1A703F4B1B78102252421343DAB2C0
:101A4C003D4B1A707B6801331B78043BDAB23B4B7D
:101A5C001A700E23FB1800221A700FE00E203B1890
:101A6C001B7805337A68D2183B181B781178344AE6
:101A7C00D1543B181A783B1801321A702F4B1B7833
:101A8C000E22BA1812789A42E8D3224B13221A70FB
:101A9C00254B00221A707B681B78142B09D17B68AC
:101AAC009A78284B1A701B4B14221A701E4B00226A
:101ABC001A707B681B78152B0DD17B689A78224B9A
:101ACC001A707B68DA78214B1A70124B15221A7037
:101ADC00154B00221A707B681B78162B02D1124B07
:101AEC0000221A707B681B78002B00D0A0E00C2120
:101AFC007B1814221A707B181B789BB2023B9AB28B
:101B0C00064B5A800E23FB1800221A7031E0C04697
:101B1C0088020020EA02002000080050D0020020B9
:101B2C000044004089020020EB02002090020020BB
:101B3C0094020020F1020020F20200208E0200200C
:101B4C009C0200208A0200208B0200208C020020C4
:101B5C000E203B181B78CB4AD15C3B181B789A1C87
:101B6C0089B2C94B5200D1523B181A783B1801323A
:101B7C001A700E22BB181B78102BE9D9BB18002247
:101B8C001A7011E00E203B181A78BF4B5200D35A32
:101B9C00D9B20D22BB18BA1812788A181A703B18D1
:101BAC001A783B1801321A700E23FB181A780C2085
:101BBC003B181B78013B9A42E4DB0D217B187A1809
:101BCC00127852421A703B181B785A1E7B181B78DD
:101BDC0099B2AD4B5200D152C046AC4BDB6980225E
:101BEC001340FAD0A84B1B888022520013439AB2A0
:101BFC00A64B9A6214E00E217B181A787B180132DE
:101C0C001A70C046A14BDB6980221340FAD00E2318
:101C1C00FB181A789C4B5200D35ADAB29B4B9A623F
:101C2C000E23FB181A78984B5200D35A002BE2D192
:101C3C007B681B78012B00D07FE00C217B180B22DA
:101C4C001A707B181B789BB2023B9AB28E4B5A804F
:101C5C000E23FB1800221A7010E00E203B181B7884
:101C6C008B4AD15C3B181B789A1C89B2864B52006C
:101C7C00D1523B181A783B1801321A700E22BB183D
:101C8C001B78102BE9D9BB1800221A7011E00E201A
:101C9C003B181A787C4B5200D35AD9B20D22BB1880
:101CAC00BA1812788A181A703B181A783B18013235
:101CBC001A700E23FB181A780C203B181B78013B6A
:101CCC009A42E4DB0D217B187A18127852421A7072
:101CDC003B181B785A1E7B181B7899B26A4B520022
:101CEC00D152C046694BDB6980221340FAD0664B57
:101CFC001B888022520013439AB2644B9A6214E000
:101D0C000E217B181A787B1801321A70C0465F4B73
:101D1C00DB6980221340FAD00E23FB181A785A4B39
:101D2C005200D35ADAB2594B9A620E23FB181A7826
:101D3C00554B5200D35A002BE2D17B681B78022BF7
:101D4C0000D07FE00C217B1813221A707B181B78B3
:101D5C009BB2023B9AB24C4B5A800E23FB180022CA
:101D6C001A7010E00E203B181B784A4AD15C3B18C5
:101D7C001B789A1C89B2444B5200D1523B181A78EA
:101D8C003B1801321A700E22BB181B78102BE9D9A4
:101D9C00BB1800221A7011E00E203B181A783A4B2F
:101DAC005200D35AD9B20D22BB18BA1812788A181D
:101DBC001A703B181A783B1801321A700E23FB1854
:101DCC001A780C203B181B78013B9A42E4DB0D215E
:101DDC007B187A18127852421A703B181B785A1ECC
:101DEC007B181B7899B2284B5200D152C046274B16
:101DFC00DB6980221340FAD0234B1B8880225200CF
:101E0C0013439AB2214B9A6214E00E217B181A7874
:101E1C007B1801321A70C0461C4BDB6980221340C0
:101E2C00FAD00E23FB181A78174B5200D35ADAB299
:101E3C00164B9A620E23FB181A78134B5200D35A86
:101E4C00002BE2D17B681B78032B00D07CE00C21AB
:101E5C007B1804221A707B181B789BB2023B9AB237
:101E6C00094B5A800C4B1B789AB2074B9A800D2366
:101E7C00FB181B789AB2044BDA800E23FB18002255
:101E8C001A701DE000000020D00200200044004029
:101E9C0014000020200000201C0000200E203B1805
:101EAC001A786D4B5200D35AD9B20D22BB18BA18FE
:101EBC0012788A181A703B181A783B1801321A706B
:101ECC000E23FB181A780C203B181B78013B9A4206
:101EDC00E4DB0D217B187A18127852421A703B18E9
:101EEC001B785A1E7B181B7899B25B4B5200D1524F
:101EFC00C0465A4BDB6980221340FAD0564B1B88E4
:101F0C008022520013439AB2544B9A6214E00E2171
:101F1C007B181A787B1801321A70C0464F4BDB695C
:101F2C0080221340FAD00E23FB181A784A4B520029
:101F3C00D35ADAB2494B9A620E23FB181A78464BE5
:101F4C005200D35A002BE2D17B681B78042B00D0B3
:101F5C0076E00C217B1804221A707B181B789BB23C
:101F6C00023B9AB23C4B5A807B6802331B781A00B6
:101F7C003B4B1A603B4B1B789AB2374B9A800D2324
:101F8C00FB181B789AB2344BDA800E23FB18002214
:101F9C001A7011E00E203B181A782F4B5200D35AAE
:101FAC00D9B20D22BB18BA1812788A181A703B18BD
:101FBC001A783B1801321A700E23FB181A780C2071
:101FCC003B181B78013B9A42E4DB0D217B187A18F5
:101FDC00127852421A703B181B785A1E7B181B78C9
:101FEC0099B21D4B5200D152C0461C4BDB6980226A
:101FFC001340FAD0184B1B888022520013439AB21C
:10200C00164B9A6214E00E217B181A787B18013259
:10201C001A70C046114BDB6980221340FAD00E2394
:10202C00FB181A780C4B5200D35ADAB20B4B9A624B
:10203C000E23FB181A78084B5200D35A002BE2D10E
:10204C00064B1A6A054B08210A431A62C04618004F
:10205C00BD4604B080BDC046D00200200044004004
:10206C00980200208D02002080B582B000AF0120C4
:10207C0003F0D4F9284B5A69274B28490A405A6176
:10208C00FB1D66221A70F91D25480523012207F055
:10209C002FF9214B5A69204B802189000A435A6140
:1020AC00C046C046C046C046C046C0461A4B5A69D8
:1020BC00194B1A490A405A61FB1D99221A70F91DD5
:1020CC0017480523012207F013F9134B5A69124BD9
:1020DC00802189000A435A61012003F09FF9FB1DFE
:1020EC00B7221A700C4B5A690B4B0C490A405A61B7
:1020FC00F91D0B480523012207F0FAF8064B5A6923
:10210C00054B802189000A435A61012003F086F9AE
:10211C00C046BD4602B080BD00040050FFFDFFFF6D
:10212C0078010020B0B5424CA54402AF0200414BEF
:10213C0041495B18DB191A70404C3B1913221A7079
:10214C003C4B5B18DB191B785B033D483A1813605A
:10215C003B181B68DAB23B4B5B18DB191A703B1847
:10216C001B681B0ADAB2374B5B18DB195A703B1829
:10217C001B681B0CDAB2334B5B18DB199A703B18DB
:10218C001B681B0EDAB22F4B5B18DB19DA702E4B67
:10219C005A692D4B2D490A405A6139192C48322362
:1021AC00012207F0A5F808243B19D91C2848322332
:1021BC00012207F09DF83B19991C25483223012276
:1021CC0007F096F83B19591C21483223012207F0DD
:1021DC008FF839191E483223012207F089F81D4C5B
:1021EC0080239A01102579191948230007F0D8F992
:1021FC00154B5A69144B802189000A435A617B198B
:10220C000193FF2300937F237F2200210020FFF7FF
:10221C0019F9114B00221A70104B5A690F4B4021BF
:10222C000A435A61C0461800BD46034B9D44B0BDDD
:10223C00E0DFFFFFEFDFFFFF18200000132000009E
:10224C0014200000F0DFFFFF00040050FFFDFFFF33
:10225C007801002088130000EA02002000080050DA
:10226C00B0B5A74CA54402AF040008001100A54B63
:10227C00A54D5B19DB19221C1A70A44B2C001B19E1
:10228C00DB19021C1A70A24B20001B18DB190A1C4C
:10229C001A7000239F4C3A1913609F4D7B1913221F
:1022AC001A70984B01005B18DB191B780133FF3354
:1022BC005B0320003A1813603B181B68DAB2974B8B
:1022CC000C001B19DB191A7001007B181B681B0A08
:1022DC00DAB2924B1B19DB195A707B181B681B0C5A
:1022EC00DAB28E4B1B19DB199A707B181B681B0E0C
:1022FC00DAB28A4B1B19DB19DA70894B5A69884B95
:10230C0088490A405A61791987483223012206F01C
:10231C00EFFF08257B19D91C83483223012206F0D4
:10232C00E7FF7B19991C80483223012206F0E0FF5D
:10233C007B19591C7C483223012206F0D9FF7919EC
:10234C0079483223012206F0D3FF784B0C22B918BE
:10235C007548022207F024F9714B5A69704B8021A1
:10236C0089000A435A6172497B18724A1219D219B0
:10237C0012781A7070483B186E4A1219D21952789A
:10238C001A707B181B783A1812785343002B00DA1A
:10239C0001335B109BB202339AB2684B1A805D4BCF
:1023AC00FB181B68023366497A1813607B181B688C
:1023BC00DAB25A4B544C1B19DB191A707B181B6878
:1023CC001B0ADAB2554B1B19DB195A707B181B68A8
:1023DC001B0CDAB2514B1B19DB199A707B181B685A
:1023EC001B0EDAB24D4B1B19DB19DA70554B1A6AFE
:1023FC00544B08210A431A6247483B1813221A709F
:10240C00474B5A69464B47490A405A613918464866
:10241C003223012206F06CFF08257B19D91C424897
:10242C003223012206F064FF7B19991C3E483223AB
:10243C00012206F05DFF7B19591C3B483223012217
:10244C0006F056FF791938483223012206F050FF66
:10245C003A4B1A88354B10217918334807F0A0F8FD
:10246C002F4B5A692E4B802189000A435A61364BF7
:10247C0001221A70264B1B19DB191B780122134001
:10248C00DBB2002B02D0304B02221A701F4B1E49BC
:10249C005B18DA19264BFB1812781B78D318DBB2B1
:1024AC00013BDCB21A4B5B18DA19234BFB18127880
:1024BC001B78D318DAB2244B1B78D31ADAB2144B2C
:1024CC0008005B18DB191978104B1B18DB191878EE
:1024DC001023FB180193FF23009313002200FEF737
:1024EC00B1FF1A4B00221A70194B5A69184B402134
:1024FC000A435A61C0461800BD46034B9D44B0BD0B
:10250C00D8DFFFFFE7DFFFFF20200000E6DFFFFF43
:10251C00E5DFFFFF1C20000013200000E8DFFFFFB9
:10252C0000040050FFFDFFFF78010020881300001D
:10253C001B200000ECDFFFFF1A200000EE02002041
:10254C001420000000440040F0020020EA020020A9
:10255C000008005090B58DB000AF0200FB1D1A7042
:10256C002B23FB1813221A70974B5A69964B402158
:10257C000A435A61FB1D1A781300DB009B1880225A
:10258C00D20394466344FB60904B00221A600023F4
:10259C00FB628F4B00221A7000233B618C4B1B7823
:1025AC00012B09D1884B5A69874B40210A435A6148
:1025BC00864B00221A60E3E1844B1B68002B00D091
:1025CC00AFE0FB68DAB21C243B191A70FB681B0ADB
:1025DC00DAB23B195A70FB681B0CDAB23B199A70D1
:1025EC00FB681B0EDAB23B19DA707A4B5A69794BDD
:1025FC0079490A405A612B23F91878483223012271
:10260C0006F076FE3B19D91C74483223012206F0E1
:10261C006FFE3B19991C71483223012206F068FEAB
:10262C003B19591C6D483223012206F061FE391901
:10263C006A483223012206F05BFE694B20243919CB
:10264C006648092206F0ACFF624B5A69614B802147
:10265C0089000A435A6121007B181A7918203B180B
:10266C001A707B18DA783B185A707B189A783B18DA
:10267C009A707B185A783B18DA703B18DB781A0082
:10268C00FB681343FB60FB681B02FB603B189B78E9
:10269C001A00FB681343FB60FB681B02FB603B18D2
:1026AC005B781A00FB681343FB60FB681B02FB6042
:1026BC003B181B781A00FB681343FB607B181A7AD3
:1026CC0014203B181A707B18DA793B185A707B1857
:1026DC009A793B189A707B185A7901007B18DA703A
:1026EC007B18DB781A00FB6A1343FB62FB6A1B0244
:1026FC00FB627B189B781A00FB6A1343FB62FB6A34
:10270C001B02FB627B185B781A00FB6A1343FB62AB
:10271C00FB6A1B02FB627B181B781A00FB6A1343D3
:10272C00FB62304B1B881900F86AFDF7E5FC0300CF
:10273C001A002D4B1A60274B5A69264B26490A4022
:10274C005A612B23F91825483223012206F0D0FDBB
:10275C0018243B19D91C21483223012206F0C8FD4C
:10276C003B19991C1D483223012206F0C1FD3B196F
:10277C00591C1A483223012206F0BAFD39191748A0
:10278C003223012206F0B4FD164B1A88144B17495C
:10279C00124806F005FF0F4B5A690E4B8021890039
:1027AC000A435A61FB683B6100F093F90D4B1B889F
:1027BC005B089AB20D490E4B180005F0F3F80D4B5F
:1027CC0001221A70D4E0C04600080050F402002028
:1027DC00FD12002000040050FFFDFFFF78010020D7
:1027EC008813000030000020F8020020FC020020BA
:1027FC00E0000020FC120020634B1B78022B5CD104
:10280C00624B5A69614B40210A435A61604B1B88E9
:10281C005B089BB21A003B69D3183B613B69DAB287
:10282C0018243B191A703B691B0ADAB23B195A700F
:10283C003B691B0CDAB23B199A703B691B0EDAB27E
:10284C003B19DA70534B5A69524B53490A405A613F
:10285C002B23F91851483223012206F049FD3B196C
:10286C00D91C4E483223012206F042FD3B19991C1B
:10287C004A483223012206F03BFD3B19591C4748BC
:10288C003223012206F034FD391944483223012247
:10289C0006F02EFD3E4B1B885B089AB2404B41491B
:1028AC003E4806F07DFE3B4B5A693A4B802189002D
:1028BC000A435A61344B01221A70334B1B78002B9C
:1028CC0056D1334B1B885B089BB21A003B69D3185B
:1028DC003B613B69DAB218243B191A703B691B0A3D
:1028EC00DAB23B195A703B691B0CDAB23B199A707D
:1028FC003B691B0EDAB23B19DA70264B5A69254B31
:10290C0025490A405A612B23F91824483223012205
:10291C0006F0EEFC3B19D91C20483223012206F0AC
:10292C00E7FC3B19991C1D483223012206F0E0FC00
:10293C003B19591C19483223012206F0D9FC3919CC
:10294C0016483223012206F0D3FC114B1B885B087E
:10295C009AB2134B1449114806F022FE0D4B5A69DA
:10296C000C4B802189000A435A61074B01221A70D3
:10297C000E4B1A680E4B1B689A4200D83CE7C046B7
:10298C001800BD460DB090BDFC1200200008005090
:10299C003000002000040050FFFDFFFF78010020F4
:1029AC0088130000FC020020FC0A0020F402002026
:1029BC00F802002080B500AF024B02221A70C0460C
:1029CC00BD4680BDFC12002080B500AF0F4B1B68CC
:1029DC005A1C0E4B1A600D4B1A680D4B1B689A4211
:1029EC000CD80C4B1B885B089AB20B490B4B18008C
:1029FC0004F0D8FF0A4B00221A7004E0094B0122A4
:102A0C001A7000F05AF8C046BD4680BDF402002092
:102A1C00F802002030000020FC020020E000002022
:102A2C00FC120020FD12002090B585B000AF040010
:102A3C0008001100FB1D221C1A70BB1D021C1A7011
:102A4C007B1D0A1C1A700F217B1800221A707B1D2B
:102A5C001B781A1C5201D21A9200D31ADB18DAB264
:102A6C000C007B1874321A70FB1D50221A70BB1D9F
:102A7C0030221A700020FEF7CBFDBB1D1B7819000D
:102A8C004120FEF7E3FD0120FEF7C2FD00211020DE
:102A9C00FEF7DCFD3B191B7819002E20FEF7D6FD46
:102AAC00FB1D1B7819003020FEF7D0FD032002F02F
:102ABC00B5FCC046BD4605B090BD80B500AF012049
:102ACC00FEF7A6FD00212D20FEF7C0FDC046BD4639
:102ADC0080BD80B500AF0120FEF79AFD02212D20AC
:102AEC00FEF7B4FDC046BD4680BD000080B582B087
:102AFC0000AF3B1D294A12781A70FB1D9E221A70DA
:102B0C00274B5A69264B27490A405A61F91D26481A
:102B1C003223012206F0ECFBFA239B00391D2248DC
:102B2C00012206F03DFD3B1D1B781A001F4B1A605D
:102B3C001E4B1B681A021D4B1A60FA239B00391D91
:102B4C001948012206F02CFD3B1D1B781A00174B6F
:102B5C001B68D218154B1A60144B1B681A02134BC6
:102B6C001A60FA239B00391D0F48012206F018FD4C
:102B7C003B1D1B781A000D4B1B68D2180B4B1A60AF
:102B8C00074B5A69064B802189000A435A61074B4F
:102B9C001B681800BD4602B080BDC04658C900086D
:102BAC0000040050FFFDFFFF78010020B002002060
:102BBC0090B585B002AF0200FB1D1A70654B1B78F7
:102BCC00102B00D1BDE0644B1B78002B00D1BAE078
:102BDC00624B1B78002B00D0B7E0614B1A6A604B3C
:102BEC0008210A431A62FB1D1B78112B13D15D4B74
:102BFC005A695C4B40218A435A61584B11221A7016
:102C0C00594B1B781800FFF78DFA554B1A6A544B29
:102C1C0008210A431A62FB1D1B78122B0DD14F4B56
:102C2C0012221A70504B1878504B1B68D9B2504B6B
:102C3C001B68DBB21A00FFF713FBFB1D1B78132B71
:102C4C0011D1464B13221A70484B1B68D8B2484B13
:102C5C001B68D9B2474B1A78474B1C78474B0093EB
:102C6C00230000F093F8FB1D1B78142B0DD13B4B6C
:102C7C0014221A70424B1B781800FFF76BFC394B6F
:102C8C005A69384B40210A435A61FB1D1B78152B9E
:102C9C0046D1324B15221A703A4B1B78002B01D1BE
:102CAC00FFF70BFF374B1B781A0000210020FFF7B2
:102CBC00BBFE354B1B78002B02D1FEF75FFB29E0E6
:102CCC00A023DB055A69A023DB0540218A435A6106
:102CDC00A023DB055A69A023DB0580218A435A61B6
:102CEC008120FEF79DFA284B1B781B01DBB21800E4
:102CFC00FEF796FAA023DB055A69A023DB05802199
:102D0C000A435A61A023DB055A69A023DB05402145
:102D1C000A435A61134B5A69124B40210A435A61B8
:102D2C00FB1D1B78162B02D10C4B16221A70FB1DA7
:102D3C0000221A700A4B1A6A094B08210A431A62BC
:102D4C0004E0C04602E0C04600E0C0461800BD46A4
:102D5C0003B090BDB402002032000020EB02002032
:102D6C00004400400008005089020020900200201E
:102D7C00940200208E020020F10200209C02002010
:102D8C008A0200208B0200208C020020F0B5CE4677
:102D9C00474680B5E5B002AF16009C462023FF33B2
:102DAC0008229B18DA19031C13708F235B0008226E
:102DBC009B18DA190B1C13701E22FF320823D31830
:102DCC00DA19331C13708E2676000823F318DA19DF
:102DDC00634613705F238C2149005A1808239C46C4
:102DEC00BC4462442020FF300823C318DB191B7835
:102DFC0013705E20421808239C46BC44624408238E
:102E0C00F318DB191B781B0913705D267218082345
:102E1C009C46BC44624443183B6008239C46BC441B
:102E2C003B6863441B781B0113705C230A00591820
:102E3C0008239C46BC4461441300F2180826B4468F
:102E4C00BC4462441E00C0180823FB18C318127837
:102E5C001B7813430B70602130000A1808239C4622
:102E6C00BC446244012313708F235B0008229B181F
:102E7C00DB191A7801231340DBB2002B05D00B1899
:102E8C000822BA189A180223137061218C20400072
:102E9C000B180822BA189A18002313708E235B00A3
:102EAC0008229B18DB191A780123134005D00B1844
:102EBC000822BA189A18012313708E235B0008227B
:102ECC009B18DB191A780223134008D061238C223B
:102EDC0052009B180822BA189A1802231370612307
:102EEC008C2676009B1908229446BC4463441B78BC
:102EFC00002B00D0A7E26B4698465A218B1908226A
:102F0C00BA189A18312313808B1908229446BC44A2
:102F1C0063441A881300013BB621490008200918A4
:102F2C00C9190B6088210823CB18DB191A60002300
:102F3C008C2008268019C01903600823CB18DB19D4
:102F4C001868596803005B0F0E00F5001D43030061
:102F5C00DC0080210823CB18DB191A6000238420A5
:102F6C0008240019C01903600823CB18DB19186852
:102F7C00596803005B0F0D00ED008A2464000826DD
:102F8C00A619F619356008256519ED192D681D432C
:102F9C000823E318DB191D600300DB0088214900BE
:102FAC0008200918C9190B6013000733DB08DB0074
:102FBC006A46D31A9D4602AB0033B4225200082154
:102FCC005218D21913605A2490235B00FB181C6012
:102FDC008C267600A31908229446BC4463441A88B4
:102FEC001300013BB221490008200918C9190B60D4
:102FFC008023FB181A600023842179180B6080232E
:10300C00FB181868596803005B0F9C460D00ED0017
:10301C00862464000823E418E419256086256D00D5
:10302C000823EB18DC19256863461D4386235B00D7
:10303C0008241B19DB191D600300DB0084214900E7
:10304C0008200918C9190B60BA670023FB67B86F11
:10305C00F96F03005B0F0D00ED00862464003C1932
:10306C002560862464003C1925681D4386235B007B
:10307C00FB181D600300DB008421490079180B60EC
:10308C0013000733DB08DB006A46D31A9D4602ABFC
:10309C000033B022520008215218D2191360902329
:1030AC005B00FB181C683500631908229446BC446D
:1030BC0063441A881300013BAE214900082009180B
:1030CC00C9190B603A6700237B67386F796F03006F
:1030DC005B0F0C00E400FC2608257519ED192C601B
:1030EC0008243419E41924681C430823F318DB1949
:1030FC001C600300DB00F82108200918C9190B60BB
:10310C00BA660023FB66B86EF96E03005B0F0C0009
:10311C00E400F42608257519ED192C6008243419DF
:10312C00E41924681C430823F318DB191C60030002
:10313C00DB00F02108200918C9190B6013000733B4
:10314C00DB08DB006A46D31A9D4602AB0033AC2287
:10315C00520008215218D21913603F238C256D00A0
:10316C005B190822BA189A18072313703E235B19AF
:10317C000822BA189A180E23137062235B190822BE
:10318C00BA189A180023138010E164238C22520081
:10319C009B180822BA189A180023138042E0622365
:1031AC008C2149005B1808229446BC4463441A885D
:1031BC0080235B180820844608208146B944CC44FF
:1031CC0063441B689B181B781D006422531808204D
:1031DC008446BC446344188816005318082294464D
:1031EC00BC4463441C887E492A00D200521BD30085
:1031FC009B1ACB181B5CB422520008215218D2190E
:10320C001268135532008C2149005318082084464B
:10321C00BC4463441B88521808218C46BC4462444D
:10322C000133138064238C2149005B180822BA18DF
:10323C009A185A235B1808208446BC4463441288AD
:10324C001B889A42ABD366235B180822BA189A18CB
:10325C000023138030E066208C24640003190822BC
:10326C009446BC4463441A88B4256D000823EB18BB
:10327C00DB191B689A5C031908218C46BC44634417
:10328C0019885C231B190826B446BC4463441B787C
:10329C001340DBB20822AA18D2191268535403192E
:1032AC0008229446BC4463441B88021908218C46AE
:1032BC00BC4462440133138066238C256D005B197A
:1032CC000822BA189A185A235B1908218C46BC4458
:1032DC00634412881B889A42BDD35F20431908228D
:1032EC00BA189A183F231E005B1908218C46BC445F
:1032FC00634412781B78D318DBB2013BDCB28F210C
:10330C0049000823CB18DA193E214B1908218C46A9
:10331C00BC44634412781B78D318DAB260214B1981
:10332C0008218C46BC4463441B78D31ADBB2994603
:10333C008F2149000823CB18DB19197805008C2341
:10334C005B00C31808229446BC4463441878B42329
:10335C005B0008229B18DB191B680193FF23009369
:10336C004B462200FEF76EF88C2040002B180822EA
:10337C00BA1899182B180822BA189A1833001B1867
:10338C000824A446BC44634412781B78D3180B70F1
:10339C006222131808218C46BC4463441B88121803
:1033AC0008218C46BC446244013313801E23FF3336
:1033BC0008229B18DB191B789AB262218C204000E2
:1033CC000B180824A446BC4463441B88934200D2C7
:1033DC00DBE60B180822BA189A180023138020E099
:1033EC005CC9000864238C2040001B1808229446FA
:1033FC00BC4463441988B4235B0008229B18DB1976
:10340C001A68002353546222131808218C46BC44BA
:10341C0063441B88121808218C46BC446244013357
:10342C00138062238C2149005B180822BA189A1861
:10343C005A235B1808218C46BC44634412881B88B1
:10344C009A42CFD3C54661238C2252009B18082187
:10345C008C46BC4463441B78012B00D09DE26B4628
:10346C0098465A241500A3180822BA189A186323F0
:10347C00138090235B00FB181C6063190822944690
:10348C00BC4463441A881300013BA821490008205E
:10349C000918C9190B603A6600237B66386E796E81
:1034AC0003005B0F0D00ED00EC2608243419E41921
:1034BC00256008243419E41925681D430823F318E2
:1034CC00DB191D600300DB00E82108200918C9196D
:1034DC000B60BA650023FB65B86DF96D03005B0FDB
:1034EC000D00ED00E42608243419E41925600824A5
:1034FC003419E5192D681D430823F318DB191D60D9
:10350C000300DB00E02108200918C9190B60130027
:10351C000733DB08DB006A46D31A9D4602AB003347
:10352C00A621490008228A18D1190B6090235B0050
:10353C00FB181C6890235B00FB181C608C256D002D
:10354C00631908229446BC4463441A881300013B57
:10355C00A421490008200918C9190B603A650023F9
:10356C007B65386D796D03005B0F0D00ED00DC267B
:10357C0008243419E419256008243419E419256841
:10358C001D430823F318DB191D600300DB00D82151
:10359C0008200918C9190B60BA640023FB64B86CC5
:1035AC00F96C03005B0F0D00ED00D42608243419D0
:1035BC00E419256008243419E5192D681D430823E6
:1035CC00F318DB191D600300DB00D021082009185B
:1035DC00C9190B6013000733DB08DB006A46D31AEA
:1035EC009D4602AB0033A221490008228A18D1194A
:1035FC000B6090235B00FB181C688C256D00631915
:10360C0008229446BC4463441A881300013BA02151
:10361C00490008200918C9190B603A6400237B641F
:10362C00386C796C03005B0F0C00E400CC26082589
:10363C007519ED192C6008243419E41924681C43FD
:10364C000823F318DB191C600300DB00C8210820D9
:10365C000918C9190B60BA630023FB63B86BF96BCB
:10366C0003005B0F9C460C00E400C42635000823C5
:10367C00F618F61934602C0025000823E318DE191F
:10368C00346863461C432B0008255B19DB191C604E
:10369C000300DB00C02108200918C9190B601300B6
:1036AC000733DB08DB006A46D31A9D4602AB0033B6
:1036BC009E22520008215218D21913603F238C25E8
:1036CC006D005B190822BA189A18072313703E2351
:1036DC005B190822BA189A181223137062235B190B
:1036EC000822BA189A180023138009E164238C224B
:1036FC0052009B180822BA189A180023138041E034
:10370C0062238C2149005B1808229446BC44634414
:10371C001A8880235B180820844608208146B94407
:10372C00CC4463441B689B181B781D0064225318FF
:10373C0008208446BC44634418880E0053180822A1
:10374C009446BC4463441C887A492A00520052199E
:10375C005301D2188B181B5CA62252000821521858
:10376C00D21912681355642231005318082084466C
:10377C00BC4463441B88521808218C46BC446244E8
:10378C000133138064238C2149005B180822BA187A
:10379C009A185A235B1808208446BC446344128848
:1037AC001B889A42ACD366235B180822BA189A1865
:1037BC000023138030E066208C2464000319082257
:1037CC009446BC4463441A88A6256D000823EB1864
:1037DC00DB191B689A5C031908218C46BC446344B2
:1037EC0019885C231B190826B446BC4463441B7817
:1037FC001340DBB20822AA18D219126853540319C9
:10380C0008229446BC4463441B88021908218C4648
:10381C00BC4462440133138066238C256D005B1914
:10382C000822BA189A185A235B1908218C46BC44F2
:10383C00634412881B889A42BDD35F204319082227
:10384C00BA189A183F235B1908218C46BC44634470
:10385C0012781B78D318DBB2013BDCB28F267600D2
:10386C000823F318DA193E214B1908218C46BC4465
:10387C00634412781B78D318DAB2602149190823F3
:10388C00FB18CB181B78D31ADAB20823F318DB1900
:10389C00197805008C235B00C6180823FB18F31855
:1038AC001878A62676000823F318DE1933680193DE
:1038BC00FF23009313002200FDF7C4FD8C20400071
:1038CC002B180822BA1899182B180822BA189A180B
:1038DC003F231B180824A446BC44634412781B786D
:1038EC00D3180B706222131808218C46BC44634415
:1038FC001B88121808218C46BC4462440133138087
:10390C001E23FF3308229B18DB191B789AB2622105
:10391C008C2040000B180824A446BC4463441B882C
:10392C00934200D2E2E60B180822BA189A18002328
:10393C00138020E05CFA000864238C2040001B18E4
:10394C0008229446BC4463441988A6235B000822D1
:10395C009B18DB191A680023535462221318082190
:10396C008C46BC4463441B88121808218C46BC440A
:10397C0062440133138062238C2149005B180822B6
:10398C00BA189A185A235B1808218C46BC44634415
:10399C0012881B889A42CFD3C54661238C267600A9
:1039AC009B1908229446BC4463441B78022B01D01B
:1039BC0001F02BF86B461D005A24A3190822BA18E3
:1039CC009A1898235B0013807C60A31908229446F4
:1039DC00BC4463441B8890225200BA181360902395
:1039EC005B00FB181B68013B9C21490008228A18CC
:1039FC00D1190B6090235B00FB181B683B63002301
:103A0C007B63386B796B03005B0F0E00F600BC24F4
:103A1C000822A218D21916600822A218D6193668E4
:103A2C001E430823E318DB191E600300DB00B821DA
:103A3C0008228A18D1190B6090235B00FB181B68B5
:103A4C00BB620023FB62B86AF96A03005B0F9C46F9
:103A5C000E00F600B42422000823E418E4192660B2
:103A6C00160032000823F318DC19266863461E433F
:103A7C00130008229B18DB191E600300DB00B02129
:103A8C0008228A18D1190B6090235B00FB181B6865
:103A9C000733DB08DB006A46D31A9D4602AB0033C2
:103AAC009A22520008215218D21913607C687C604B
:103ABC008C267600A31908229446BC4463441B88C8
:103ACC0090225200BA18136090235B00FB181B68FD
:103ADC00013B9821490008228A18D1190B609023C8
:103AEC005B00FB181B683B6200237B62386A796AB7
:103AFC0003005B0F0E00F600AC240822A218D219AA
:103B0C0016600822A218D61936681E430823E3183B
:103B1C00DB191E600300DB00A82108228A18D119CA
:103B2C000B6090235B00FB181B68BB610023FB61DF
:103B3C00B869F96903005B0F9C460E00F600A424DB
:103B4C0022000823E418E41926601600320008232A
:103B5C00F318DC19266863461E43130008229B18D1
:103B6C00DB191E600300DB00A02108228A18D11982
:103B7C000B6090235B00FB181B680733DB08DB0032
:103B8C006A46D31A9D4602AB003396225200082196
:103B9C005218D21913607C688C267600A31908225F
:103BAC009446BC4463441B8890225200BA1813609C
:103BBC0090235B00FB181A68013A942149000823F2
:103BCC00CB18D9190A6090235B00FB181B683B616A
:103BDC0000227A61386979690200520F0C00E40006
:103BEC009C260823F318DB191C600823F318DC1936
:103BFC00246814430823F318DA1914600200D20065
:103C0C0098210823CB18D9190A6090235B00FB1864
:103C1C001B68BB600022FA60B868F9680200520F9A
:103C2C000C00E40094263E600823F618F619346064
:103C3C003C6823000826A419E619346814431A00BA
:103C4C000823D318DA1914600200D200902108233B
:103C5C00CB18D9190A6090235B00FB181B6807333B
:103C6C00DB08DB006A46D31A9D4602AB0033922276
:103C7C00520008215218D21913603F238C2676006B
:103C8C009B1908229446BC44634410221A703E23AC
:103C9C009B1908229446BC44634426221A70622362
:103CAC009B1908229446BC44634400221A8000F0FD
:103CBC0030FD62218C2464000B1908229446BC440C
:103CCC0063441B88802002190826B4460826B04697
:103CDC00B844C44462441268D3181B78202B11D109
:103CEC000B1908229446BC4463441B880219082112
:103CFC008C4608218846B844C44462441268D318E0
:103D0C0000221A7062218C2464000B19082294463C
:103D1C00BC4463441B88802002190826B44608263C
:103D2C00B046B844C44462441268D3181B78212BA3
:103D3C0011D10B1908229446BC4463441B88021908
:103D4C0008218C4608218846B844C4446244126851
:103D5C00D31801221A7062218C2464000B190822DA
:103D6C009446BC4463441B88802002190826B44640
:103D7C000826B046B844C44462441268D3181B7871
:103D8C00252B11D10B1908229446BC4463441B8883
:103D9C00021908218C4608218846B844C444624460
:103DAC001268D31802221A7062218C2464000B1939
:103DBC0008229446BC4463441B88802002190826C0
:103DCC00B4460826B046B844C44462441268D318BA
:103DDC001B78282B11D10B1908229446BC44634440
:103DEC001B88021908218C4608218846B844C44413
:103DFC0062441268D31803221A7062218C24640066
:103E0C000B1908229446BC4463441B888020021979
:103E1C000826B4460826B046B844C4446244126826
:103E2C00D3181B78292B11D10B1908229446BC44AA
:103E3C0063441B88021908218C4608218846B84423
:103E4C00C44462441268D31804221A7062218C2470
:103E5C0064000B1908229446BC4463441B888020E0
:103E6C0002190826B4460826B046B844C444624435
:103E7C001268D3181B782A2B11D10B1908229446DF
:103E8C00BC4463441B88021908218C4608218846CF
:103E9C00B844C44462441268D31805221A706221D3
:103EAC008C2464000B1908229446BC4463441B8880
:103EBC00802002190826B4460826B046B844C444EB
:103ECC0062441268D3181B782B2B11D10B190822C2
:103EDC009446BC4463441B88021908218C46082173
:103EEC008846B844C44462441268D31806221A7037
:103EFC0062218C2464000B1908229446BC44634450
:103F0C001B88802002190826B4460826B046B844FF
:103F1C00C44462441268D3181B782C2B11D10B1992
:103F2C0008229446BC4463441B88021908218C4621
:103F3C0008218846B844C44462441268D318072246
:103F4C001A7062218C2464000B1908229446BC441C
:103F5C0063441B88802002190826B4460826B04604
:103F6C00B844C44462441268D3181B782D2B11D169
:103F7C000B1908229446BC4463441B88021908217F
:103F8C008C4608218846B844C44462441268D3184D
:103F9C0008221A7062218C2464000B1908229446A2
:103FAC00BC4463441B88802002190826B4460826AA
:103FBC00B046B844C44462441268D3181B782E2B04
:103FCC0011D10B1908229446BC4463441B88021976
:103FDC0008218C4608218846B844C44462441268BF
:103FEC00D31809221A7062218C2464000B19082240
:103FFC009446BC4463441B88802002190826B446AE
:10400C000826B046B844C44462441268D3181B78DE
:10401C002F2B11D10B1908229446BC4463441B88E6
:10402C00021908218C4608218846B844C4446244CD
:10403C001268D3180A221A7062218C2464000B199E
:10404C0008229446BC4463441B888020021908262D
:10405C00B4460826B046B844C44462441268D31827
:10406C001B78302B11D10B1908229446BC446344A5
:10407C001B88021908218C4608218846B844C44480
:10408C0062441268D3180B221A7062218C246400CB
:10409C000B1908229446BC4463441B8880200219E7
:1040AC000826B4460826B046B844C4446244126894
:1040BC00D3181B78312B11D10B1908229446BC4410
:1040CC0063441B88021908218C4608218846B84491
:1040DC00C44462441268D3180C221A7062218C24D6
:1040EC0064000B1908229446BC4463441B8880204E
:1040FC0002190826B4460826B046B844C4446244A3
:10410C001268D3181B78322B11D10B190822944644
:10411C00BC4463441B88021908218C46082188463C
:10412C00B844C44462441268D3180D221A70622138
:10413C008C2464000B1908229446BC4463441B88ED
:10414C00802002190826B4460826B046B844C44458
:10415C0062441268D3181B78332B11D10B19082227
:10416C009446BC4463441B88021908218C460821E0
:10417C008846B844C44462441268D3180E221A709C
:10418C0062218C2464000B1908229446BC446344BD
:10419C001B88802002190826B4460826B046B8446D
:1041AC00C44462441268D3181B78342B11D10B19F8
:1041BC0008229446BC4463441B88021908218C468F
:1041CC0008218846B844C44462441268D3180F22AC
:1041DC001A7062218C2464000B1908229446BC448A
:1041EC0063441B88802002190826B4460826B04672
:1041FC00B844C44462441268D3181B78352B11D1CF
:10420C000B1908229446BC4463441B8802190821EC
:10421C008C4608218846B844C44462441268D318BA
:10422C0010221A7062218C2464000B190822944607
:10423C00BC4463441B88802002190826B446082617
:10424C00B046B844C44462441268D3181B78362B69
:10425C0011D10B1908229446BC4463441B880219E3
:10426C0008218C4608218846B844C444624412682C
:10427C00D31811221A7062218C2464000B190822A5
:10428C009446BC4463441B88802002190826B4461B
:10429C000826B046B844C44462441268D3181B784C
:1042AC00372B11D10B1908229446BC4463441B884C
:1042BC00021908218C4608218846B844C44462443B
:1042CC001268D31812221A7062218C2464000B1904
:1042DC0008229446BC4463441B888020021908269B
:1042EC00B4460826B046B844C44462441268D31895
:1042FC001B78382B11D10B1908229446BC4463440B
:10430C001B88021908218C4608218846B844C444ED
:10431C0062441268D31813221A7062218C24640030
:10432C000B1908229446BC4463441B888020021954
:10433C000826B4460826B046B844C4446244126801
:10434C00D3181B78392B11D10B1908229446BC4475
:10435C0063441B88021908218C4608218846B844FE
:10436C00C44462441268D31814221A7062218C243B
:10437C0064000B1908229446BC4463441B888020BB
:10438C0002190826B4460826B046B844C444624410
:10439C001268D3181B783A2B11D10B1908229446AA
:1043AC00BC4463441B88021908218C4608218846AA
:1043BC00B844C44462441268D31815221A7062219E
:1043CC008C2464000B1908229446BC4463441B885B
:1043DC00802002190826B4460826B046B844C444C6
:1043EC0062441268D3181B783B2B11D10B1908228D
:1043FC009446BC4463441B88021908218C4608214E
:10440C008846B844C44462441268D31816221A7001
:10441C0062218C2464000B1908229446BC4463442A
:10442C001B88802002190826B4460826B046B844DA
:10443C00C44462441268D3181B783C2B11D10B195D
:10444C0008229446BC4463441B88021908218C46FC
:10445C0008218846B844C44462441268D318172211
:10446C001A7062218C2464000B1908229446BC44F7
:10447C0063441B88802002190826B4460826B046DF
:10448C00B844C44462441268D3181B783D2B11D134
:10449C000B1908229446BC4463441B88021908215A
:1044AC008C4608218846B844C44462441268D31828
:1044BC0018221A7062218C2464000B19082294466D
:1044CC00BC4463441B88802002190826B446082685
:1044DC00B046B844C44462441268D3181B783E2BCF
:1044EC0011D10B1908229446BC4463441B88021951
:1044FC0008218C4608218846B844C444624412689A
:10450C00D31819221A7062218C2464000B1908220A
:10451C009446BC4463441B88802002190826B44688
:10452C000826B046B844C44462441268D3181B78B9
:10453C003F2B11D10B1908229446BC4463441B88B1
:10454C00021908218C4608218846B844C4446244A8
:10455C001268D3181A221A7062218C2464000B1969
:10456C0008229446BC4463441B8880200219082608
:10457C00B4460826B046B844C44462441268D31802
:10458C001B785B2B11D10B1908229446BC44634455
:10459C001B88021908218C4608218846B844C4445B
:1045AC0062441268D3181B221A7062218C24640096
:1045BC000B1908229446BC4463441B8880200219C2
:1045CC000826B4460826B046B844C444624412686F
:1045DC00D3181B785C2B11D10B1908229446BC44C0
:1045EC0063441B88021908218C4608218846B8446C
:1045FC00C44462441268D3181C221A7062218C24A1
:10460C0064000B1908229446BC4463441B88802028
:10461C0002190826B4460826B046B844C44462447D
:10462C001268D3181B785D2B11D10B1908229446F4
:10463C00BC4463441B88021908218C460821884617
:10464C00B844C44462441268D3181D221A70622103
:10465C008C2464000B1908229446BC4463441B88C8
:10466C00802002190826B4460826B046B844C44433
:10467C0062441268D3181B785F2B11D10B190822D6
:10468C009446BC4463441B88021908218C460821BB
:10469C008846B844C44462441268D3181E221A7067
:1046AC0062218C2464000B1908229446BC44634498
:1046BC001B88802002190826B4460826B046B84448
:1046CC00C44462441268D3181B787C2B11D10B198B
:1046DC0008229446BC4463441B88021908218C466A
:1046EC0008218846B844C44462441268D3181F2277
:1046FC001A7062218C2040000B1808229446BC448E
:10470C0063441A880B1808218C46BC44634401325C
:10471C001A801E23FF3308229B18DB191B789BB2CF
:10472C0062218C2040000A180824A446BC44624430
:10473C0012889A4201D2FFF7BCFA0B180822944651
:10474C00BC44634400221A8013E164238C2252007F
:10475C009B1808229446BC44634400221A8041E012
:10476C0062238C2149005B1808229446BC446344A4
:10477C001B88802252180820844608208046B844A2
:10478C00C44462441268D3181B781A006426731848
:10479C0008208446BC4463441888731808218C464E
:1047AC00BC4463441988A14C1300DB009B185B00CC
:1047BC009B181B01E3181A5C9A235B0008201B183A
:1047CC00DB191B685A548C21490073180822944633
:1047DC00BC4463441A88731808218C46BC44634457
:1047EC0001321A8064238C2149005B180822BA1804
:1047FC009A185A235B1808208446BC4463441288D8
:10480C001B889A42ACD366235B1808229446BC449E
:10481C00634400221A8032E066208C246400031961
:10482C0008229446BC4463441B889A2676000822CE
:10483C00B218D2191268D25C031908218C46BC44F8
:10484C0063441B8898465C21091908239C46BC4488
:10485C00614409780A40D1B20822B218D219126800
:10486C004346D154031908229446BC4463441A8825
:10487C00031908218C46BC44634401321A80662318
:10488C008C2676009B190822BA189A185A239B1961
:10489C0008218C46BC44634412881B889A42BBD3C3
:1048AC005F2083190822BA189A183F239B190821F4
:1048BC008C46BC44634412781B78D318DBB2013BA2
:1048CC00DCB28F2149000823CB18DA193E218B1951
:1048DC0008218C46BC44634412781B78D318DAB296
:1048EC0060218B1908218C46BC4463441B78D31A75
:1048FC00DBB298468F2149000823CB18DB191978B5
:10490C0006008C235B00C31808229446BC44634405
:10491C0018789A235B0008229B18DB191B680193FB
:10492C00FF23009343462200FCF78CFD8C204000B3
:10493C00331808229446BC44634432180821791871
:10494C0051183F2212180824A446BC44624409782A
:10495C0012788A181A7062210B1808229446BC44EB
:10496C0063441A880B1808218C46BC4463440132FA
:10497C001A801E23FF3308229B18DB191B789BB26D
:10498C0062218C2040000A180824A446BC446244CE
:10499C0012889A4200D2D8E60B1808229446BC44DE
:1049AC00634400221A801EE064238C2040001B18F4
:1049BC0008229446BC4463441B889A225200082166
:1049CC005218D21912680021D15462210B180822F6
:1049DC009446BC4463441A880B1808218C46BC448A
:1049EC00634401321A8062238C2149005B1808222F
:1049FC00BA189A185A235B1808218C46BC44634495
:104A0C0012881B889A42CFD3AD46094B00221A70EC
:104A1C00084B5A69074B40210A435A61C04618009B
:104A2C00BD4663B0C0BCB946B046F0BD5C5D010884
:104A3C00EA0200200008005080B586B002AF0200E8
:104A4C00FB1D1A70BB1D0A1C1A700C217B18FA1D59
:104A5C0012781A707B18BA1D12785A707A18064898
:104A6C00FA239B0000930223322101F011FDC04672
:104A7C00BD4604B080BDC0468C00002080B582B01D
:104A8C0000AFFB1D00221A70BB1D00221A707B1D8B
:104A9C0000221A703B1D00221A70FB1C00221A7097
:104AAC00BB1C00221A707B1C00221A703B000022D7
:104ABC001A70FB1D1B7837221343DBB21900202020
:104ACC00FFF7BAFFBB1D1B787C2252421343DBB2AB
:104ADC0019002320FFF7B0FFC046BD4602B080BDD1
:104AEC0080B500AFC046BD4680BD000080B582B029
:104AFC0000AF114B1A6C104B01210A431A640E4B78
:104B0C001B6C012213407B607B680B4BDA6B0A4BEE
:104B1C00802149050A43DA63074BDA6B80235B0576
:104B2C0013403B603B6880239B00180000F09AFC0C
:104B3C00C046BD4602B080BD0010024090B589B0A1
:104B4C0000AF78600C243B19180014231A000021C4
:104B5C0007F0E8FE7B681B68104A93421AD1104B91
:104B6C005A6B0F4B02210A435A630D4B5B6B0222AB
:104B7C001340BB60BB683B1904221A603B1903222B
:104B8C005A603B1900229A603B19064A1900100022
:104B9C0001F084FAC046BD4609B090BD0002014048
:104BAC00001002400004005090B597B000AF786040
:104BBC004423FB18180014231A00002107F0B2FE3E
:104BCC0010243B19180034231A00002107F0AAFE08
:104BDC007B681B68274A934247D13B1920221A60F5
:104BEC003B1900221A613B19180003F0C9FD031E82
:104BFC0001D0FFF775FF204B5A6B1F4B01210A4365
:104C0C005A631D4B5B6B01221340FB60FB68442114
:104C1C007B18C022D2001A607B1812225A607B18B3
:104C2C0001229A607B180022DA607B1806221A6136
:104C3C007A18A023DB051100180001F02FFA0E4B97
:104C4C00DA6B0D4B802189030A43DA630A4BDA6B6A
:104C5C0080239B031340BB60BB68002200211720FC
:104C6C0000F022FF172000F034FFC046BD4617B0FD
:104C7C0090BDC046005400400010024090B599B061
:104C8C0000AF78604C23FB18180014231A00002185
:104C9C0007F048FE18243B19180034231A00002191
:104CAC0007F040FE7B681B684F4A934200D097E0A8
:104CBC003B19802212011A603B1900225A613B19E0
:104CCC00180003F05DFD031E01D0FFF709FF474BF1
:104CDC001A6C464B802149010A431A64434B1A6CE7
:104CEC0080235B0113407B617B69404B5A6B3F4BCC
:104CFC0001210A435A633D4B5B6B012213403B611C
:104D0C003B693A4B5A6B394B02210A435A63374B76
:104D1C005B6B02221340FB60FB684C217B188022EA
:104D2C0012021A600C003B1902225A603B19012234
:104D3C009A603B190322DA603B1900221A613A1976
:104D4C00A023DB051100180001F0A8F921007B1845
:104D5C0038221A607B1802225A607B1801229A6052
:104D6C007B180322DA607B1800221A617B18204A18
:104D7C001900100001F092F91E4B1F4A1A601D4BCE
:104D8C0011225A601B4B10229A601A4B0022DA60D7
:104D9C00184B80221A61174B802252005A61154B16
:104DAC008022D2009A61134B0022DA61114BC0228F
:104DBC0092011A620F4B180000F0A8FE031E01D0DE
:104DCC00FFF78EFE7B680B4ADA620A4B7A689A62AE
:104DDC0000220021192000F067FE192000F079FE56
:104DEC00C046BD4619B090BD0030014000100240D5
:104DFC00000400501C0100200800024090B58BB04C
:104E0C0000AF786014243B19180014231A000021F9
:104E1C0007F088FD7B681B682A4A93424DD12A4BC8
:104E2C00DA6B294B8021C9010A43DA63264BDA6B12
:104E3C008023DB0113403B613B69234B5A6B224BB4
:104E4C0002210A435A63204B5B6B02221340FB6026
:104E5C00FB683B1940221A603B1902225A603B192D
:104E6C0001229A603B190022DA603B1904221A6174
:104E7C003B19164A1900100001F010F921007B189B
:104E8C00C02252001A607B1802225A607B18012241
:104E9C009A607B180022DA607B1801221A617B1859
:104EAC000A4A1900100001F0F9F8002200211A201A
:104EBC0000F0FAFD1A2000F00CFEC046BD460BB007
:104ECC0090BDC04600380040001002400004005065
:104EDC0090B591B000AF78600C243B1918003423C6
:104EEC001A00002107F01EFD7B681B68114A9342D3
:104EFC001CD13B19802292031A603B1900229A6242
:104F0C003B19180003F03CFC031E01D0FFF7E8FD31
:104F1C00094B1A6C084B802109010A431A64064B91
:104F2C001A6C80231B011340BB60BB68C046BD4696
:104F3C0011B090BD002C01400010024090B589B01A
:104F4C0000AF78600C243B19180014231A000021C0
:104F5C0007F0E8FC7B681B68154A934223D1154B7C
:104F6C005A6B144B01210A435A63124B5B6B01229F
:104F7C001340BB60BB683B19802252001A602100B1
:104F8C007B1802225A607B1802229A607B1803223B
:104F9C00DA607B1802221A617A18A023DB05110053
:104FAC00180001F07BF8C046BD4609B090BDC04664
:104FBC00002C01400010024090B58BB000AF78601F
:104FCC0014243B19180014231A00002107F0AAFC22
:104FDC007B681B68304A934259D1304BDA6B2F4BAC
:104FEC008021C9020A43DA632C4BDA6B8023DB0283
:104FFC0013403B613B69294B5A6B284B01210A43F7
:10500C005A63264B5B6B01221340FB60FB68234BFE
:10501C005A6B224B02210A435A63204B5B6B0222D0
:10502C001340BB60BB683B1920221A603B1902225B
:10503C005A603B1900229A603B190322DA603B1933
:10504C0004221A613A19A023DB051100180001F0A3
:10505C0025F821007B1803221A607B1802225A6063
:10506C007B1800229A607B180322DA607B180422DA
:10507C001A617B180A4A1900100001F00FF800227F
:10508C0000211D2000F010FD1D2000F022FDC04667
:10509C00BD460BB090BDC046004800400010024019
:1050AC000004005080B582B000AF78607B68DB698B
:1050BC0002221340022B01D1012300E0002318002F
:1050CC00BD4602B080BD80B582B000AF78607B6811
:1050DC00DB6904221340042B01D1012300E00023DF
:1050EC001800BD4602B080BD80B582B000AF7860BC
:1050FC007B68DB6908221340082B01D1012300E0F7
:10510C0000231800BD4602B080BD80B582B000AF50
:10511C0078607B68DB6920221340202B01D10123AE
:10512C0000E000231800BD4602B080BD80B582B0FF
:10513C0000AF78607B681B6820221340202B01D1C4
:10514C00012300E000231800BD4602B080BD80B5ED
:10515C0000AFC046BD4680BD80B500AFFEE780B550
:10516C0000AFC046BD4680BD80B500AFC046BD4651
:10517C0080BD80B500AF00F035F9C046BD4680BD9E
:10518C0080B500AF034B180000F03AFEC046BD4698
:10519C0080BDC0461C01002080B500AF094B1B68C8
:1051AC009A69E023DB00134004D0064B180001F091
:1051BC0091FA03E0034B180001F072FAC046BD46A9
:1051CC0080BDC0468C00002080B500AF034B18009A
:1051DC0002F094FCC046BD4680BDC046E0000020F5
:1051EC0080B500AF034B180004F0F8FCC046BD4678
:1051FC0080BDC0467801002080B500AF254B1A6AEF
:10520C00244B08210A431A62224B1A6A214B0221B1
:10521C000A431A621F4B1A6A1E4B04210A431A6274
:10522C001C4B1800FFF771FF031E09D0194B180017
:10523C00FFF77CFF031E03D0FBF7F6FEC04625E00C
:10524C00144B1A6A134B08210A431A62114B1800AB
:10525C00FFF74AFF031E08D00E4B1A6A0D4B0821AC
:10526C000A431A620B4B5B6A10E00A4B1800FFF7FB
:10527C0019FF031E02D0074B5B6A07E0054B1800B1
:10528C00FFF721FF031E01D0024B5B6AC046BD46EF
:10529C0080BDC0460044004080B500AF034B1800F1
:1052AC0006F0D6F9C046BD4680BDC0462802002097
:1052BC0080B500AFC046BD4680BD00000D48854698
:1052CC00FFF7F6FF0C480D490D4A002302E0D458B5
:1052DC00C4500433C4188C42F9D30A4A0A4C002334
:1052EC0001E013600432A242FBD307F0F7FAFBF79C
:1052FC005FF9FEE700900020000000204000002035
:10530C00488401084000002004130020FEE7000040
:10531C0080B582B000AFFB1D00221A700B4B1A68CF
:10532C000A4B802149000A431A60002000F010F853
:10533C00031E03D0FB1D01221A7001E0FFF7D6FB00
:10534C00FB1D1B781800BD4602B080BD002002403A
:10535C0090B585B000AF78600F23FB1800221A704F
:10536C001D4B1B78002B2BD01C4B1C681A4B1B782D
:10537C001900FA239800FAF7BFFE03001900200069
:10538C00FAF7BAFE0300180000F0B3FB031E12D1AB
:10539C007B68032B0AD8796801235B420022180032
:1053AC0000F082FB0E4B7A681A600DE00F23FB189D
:1053BC0001221A7008E00F23FB1801221A7003E077
:1053CC000F23FB1801221A700F23FB181B781800EF
:1053DC00BD4605B090BDC0463C0000203400002006
:1053EC003800002080B500AF054B1B781A00054B28
:1053FC001B68D218034B1A60C046BD4680BDC04620
:10540C003C0000200013002080B500AF024B1B684D
:10541C001800BD4680BDC0460013002080B584B086
:10542C0000AF7860FFF7F0FF0300BB607B68FB60A8
:10543C00FB68013305D00A4B1B781A00FB689B18DC
:10544C00FB60C046FFF7E0FF0200BB68D31AFA68A6
:10545C009A42F7D8C046C046BD4604B080BDC0468F
:10546C003C00002080B582B000AF7860064B1B6812
:10547C00064A13401900044B7A680A431A60C04666
:10548C00BD4602B080BDC04600000140FFF9FFFFE1
:10549C0080B582B000AF7860054A8023D2580449A9
:1054AC007B68134380228B50C046BD4602B080BD42
:1054BC000018024080B582B000AF7860064A8023A5
:1054CC00D3587A68D2430449134080228B50C0468B
:1054DC00BD4602B080BDC0460018024080B582B007
:1054EC0000AF7860054A8423D25804497B68134383
:1054FC0084228B50C046BD4602B080BD00180240CD
:10550C0080B582B000AF7860064A8423D3587A689D
:10551C00D2430449134084228B50C046BD4602B08E
:10552C0080BDC0460018024080B582B000AF7860E4
:10553C00044B1968034B7A680A431A60C046BD468F
:10554C0002B080BD0018024080B582B000AF786018
:10555C00054B1A687B68D943034B0A401A60C04656
:10556C00BD4602B080BDC0460018024080B582B076
:10557C0000AF7860044B5968034B7A680A435A6051
:10558C00C046BD4602B080BD0018024080B582B056
:10559C0000AF7860054B5A687B68D943034B0A40CF
:1055AC005A60C046BD4602B080BDC04600180240DD
:1055BC0080B582B000AF7860034B7A681A61C04640
:1055CC00BD4602B080BDC0460018024080B582B016
:1055DC0000AF7860034B7A68DA60C046BD4602B013
:1055EC0080BDC0460018024080B588B000AF78601E
:1055FC000023FB601F217B1800221A707B68002B94
:10560C0003D17B1801221A703DE17B681B681B6873
:10561C00DB0FDA0780231B069A4204D11F23FB18E9
:10562C0001221A702FE17B6829229B5CDBB2002BD4
:10563C000AD17B682822002199547B680022DA6207
:10564C007B681800FFF77AFA7B681B681B683022AE
:10565C001340BB617B685A697B681B691A437B6882
:10566C001B6A1A437B689B691A437B68DB691A4384
:10567C007B68DB6813437B617B681B681B68854A0E
:10568C00134019007B681B687A690A431A607B68AF
:10569C005A6880231B019A420DD17F4B1A687E4BAE
:1056AC007E490A401A607C4B5A687B4B8021090169
:1056BC000A435A601FE07B685A68C0235B019A4218
:1056CC000DD1754B1A68744B802109010A431A607D
:1056DC00714B5A68704B71490A405A600BE06E4B23
:1056EC001A686D4B6D490A401A606B4B5A686A4BCD
:1056FC006A490A405A607B689B68A022D201934297
:10570C0017D0A022D201934230D8012B1FD0802277
:10571C00D20193422AD1604B1A685F4B8021C90198
:10572C000A431A605C4B5A685B4B5D490A405A60ED
:10573C0029E0594B1A68584B59490A401A60564B84
:10574C005A68554B8021C9010A435A601BE0524BE1
:10575C001A68514B8021C9010A431A604E4B5A6892
:10576C004D4B8021C9010A435A600CE04A4B1A6820
:10577C00494B4B490A401A60474B5A68464B4849BB
:10578C000A405A60C0467B681B681B683022134075
:10579C0016D0BB69002B13D1424B1B684249180031
:1057AC00FAF7AAFC03005A1C13009B009B189B00E1
:1057BC00FB6002E0FB68013BFB60FB68002BF9D14E
:1057CC007B681B68344A934202D180239B0201E020
:1057DC008023DB023B617B685B6A0322134040D071
:1057EC007B685B6A1022134004D03B691800FFF7FA
:1057FC009BFE03E03B691800FFF7A6FE7B685B6A23
:10580C002022134004D03B691800FFF7AFFE03E0E1
:10581C003B691800FFF7BAFE3B691800FFF7D6FE8C
:10582C003B691800FFF7C4FE7B685B6A02221340D9
:10583C0004D03B691800FFF751FE03E03B691800E8
:10584C00FFF75EFE7B685B6A0122134004D03B6964
:10585C001800FFF71DFE0CE03B691800FFF72AFE4D
:10586C0007E03B691800FFF74BFE3B691800FFF798
:10587C0021FE7B6829229B5CDBB2002B03D17B6869
:10588C002922012199541F23FB181B781800BD46AF
:10589C0008B080BD0F7400FE00020140FFF7FFFF4F
:1058AC00FFBFFFFF34000020400D030080B584B023
:1058BC0000AF78600023BB600F217B1800221A70A8
:1058CC007B68002B03D17B1801221A7035E07B68B2
:1058DC001B681B68DB0FDA0780231B069A4204D176
:1058EC000F23FB1801221A7027E07B6829229B5C8E
:1058FC00DBB2012B1DD17B681B681A687B681B68A7
:10590C0001210A431A607B682922022199540E4B0B
:10591C001B680E491800FAF7EFFB03000133DB009C
:10592C00BB6002E0BB68013BBB60BB68002BF9D1DC
:10593C0003E00F23FB1801221A700F23FB181B78AE
:10594C001800BD4604B080BD34000020400D03009B
:10595C0080B582B000AF0200FB1D1A70FB1D1B78D6
:10596C007F2B09D8FB1D1B781A001F231A40044BF0
:10597C00012191400A001A60C046BD4602B080BDAC
:10598C0000E100E090B583B000AF02003960FB1D70
:10599C001A70FB1D1B787F2B28D82F4AFB1D1B78F8
:1059AC005BB29B08C0339B009B58FA1D1278110008
:1059BC0003220A40D200FF2191400A00D2431A4030
:1059CC0011003B689B01FF221A40FB1D1B7818003D
:1059DC0003230340DB009A401F48FB1D1B785BB27E
:1059EC009B080A43C0339B001A5031E01B4AFB1D35
:1059FC001B7819000F230B40083B9B0806339B00B8
:105A0C00D31804331B68FA1D1278110003220A40C4
:105A1C00D200FF2191400A00D2431A4011003B688A
:105A2C009B01FF221A40FB1D1B7818000323034027
:105A3C00DB009A400948FB1D1B781C000F232340F8
:105A4C00083B9B080A4306339B00C31804331A60B7
:105A5C00C046BD4603B090BD00E100E000ED00E0A3
:105A6C0080B582B000AF78607B685A1E80235B04DF
:105A7C009A4201D3012310E00A4B7A68013A5A602A
:105A8C0001235B4203211800FFF77CFF054B00222A
:105A9C009A60044B07221A6000231800BD4602B01E
:105AAC0080BDC04610E000E080B584B000AFB960A6
:105ABC007A600F217B18021C1A70BA687B181B784D
:105ACC005BB211001800FFF75DFFC046BD4604B085
